:020000040800F2
:10000000000001209520000821200008232000087E
:1000100025200008272000082920000800000000F3
:1000200000000000000000000000000081540008F3
:100030002B20000800000000115500082D200008AA
:10004000DD200008DD200008DD200008DD2000089C
:10005000DD200008DD200008DD200008DD2000088C
:10006000DD200008DD200008DD200008DD2000087C
:10007000DD200008DD200008DD200008DD2000086C
:10008000DD200008DD200008DD200008DD2000085C
:10009000DD200008DD200008DD200008DD2000084C
:1000A000DD200008DD200008DD200008DD2000083C
:1000B000DD200008DD200008DD200008DD2000082C
:1000C000DD200008DD200008DD200008DD2000081C
:1000D000DD200008DD200008DD20000845200008A4
:1000E000DD200008DD200008DD200008DD200008FC
:1000F000DD200008DD200008DD200008DD200008EC
:10010000DD200008DD200008DD200008DD200008DB
:10011000DD200008DD200008DD200008DD200008CB
:10012000DD200008DD200008DD200008DD200008BB
:1001300000000000000000000000000000000000BF
:1001400000000000000000000000000000000000AF
:10015000000000000000000000000000000000009F
:10016000000000000000000000000000000000008F
:10017000000000000000000000000000000000007F
:10018000000000000000000000000000000000006F
:10019000000000000000000000000000000000005F
:1001A000000000000000000000000000000000004F
:1001B000000000000000000000000000000000003F
:1001C000000000000000000000000000000000002F
:1001D000000000000000000000000000000000001F
:0401E0005FF8E0F1F3
:1001F00010B5054C237833B9044B13B10448AFF361
:1002000000800123237010BD740000200000000056
:100210005464000808B5034B1BB103490348AFF30E
:10022000008008BD00000000780000205464000831
:1002300081F0004102E000BF83F0004330B54FEA97
:1002400041044FEA430594EA050F08BF90EA020F04
:100250001FBF54EA000C55EA020C7FEA645C7FEA97
:10026000655C00F0E2804FEA5454D4EB5555B8BFBA
:100270006D420CDD2C4480EA020281EA030382EA2B
:10028000000083EA010180EA020281EA0303362DBD
:1002900088BF30BD11F0004F4FEA01314FF4801C90
:1002A0004CEA113102D0404261EB410113F0004FA2
:1002B0004FEA03334CEA133302D0524263EB430359
:1002C00094EA050F00F0A780A4F10104D5F1200EF7
:1002D0000DDB02FA0EFC22FA05F2801841F1000152
:1002E00003FA0EF2801843FA05F359410EE0A5F126
:1002F00020050EF1200E012A03FA0EFC28BF4CF057
:10030000020C43FA05F3C01851EBE37101F000450C
:1003100007D54FF0000EDCF1000C7EEB00006EEB19
:100320000101B1F5801F1BD3B1F5001F0CD34908A3
:100330005FEA30004FEA3C0C04F101044FEA4452FA
:1003400012F5800F80F09A80BCF1004F08BF5FEA81
:10035000500C50F1000041EB045141EA050130BD61
:100360005FEA4C0C404141EB0101013C28BFB1F573
:10037000801FE9D291F0000F04BF01460020B1FABE
:1003800081F308BF2033A3F10B03B3F120020CDA91
:100390000C3208DD02F1140CC2F10C0201FA0CF06F
:1003A00021FA02F10CE002F11402D8BFC2F1200CD4
:1003B00001FA02F120FA0CFCDCBF41EA0C0190408A
:1003C000E41AA2BF01EB0451294330BD6FEA0404D3
:1003D0001F3C1CDA0C340EDC04F11404C4F12002BE
:1003E00020FA04F001FA02F340EA030021FA04F3D0
:1003F00045EA030130BDC4F10C04C4F1200220FA27
:1004000002F001FA04F340EA0300294630BD21FA64
:1004100004F0294630BD94F0000F83F4801306BF2A
:1004200081F480110134013D4EE77FEA645C18BF1E
:100430007FEA655C29D094EA050F08BF90EA020FB5
:1004400005D054EA000C04BF1946104630BD91EAAD
:10045000030F1EBF0021002030BD5FEA545C05D1B0
:100460004000494128BF41F0004130BD14F58004EF
:100470003CBF01F5801130BD01F0004545F0FE4163
:1004800041F470014FF0000030BD7FEA645C1ABF98
:10049000194610467FEA655C1CBF0B46024650EACF
:1004A000013406BF52EA033591EA030F41F40021FB
:1004B00030BD00BF90F0000F04BF0021704730B581
:1004C0004FF4806404F132044FF000054FF0000156
:1004D00050E700BF90F0000F04BF0021704730B517
:1004E0004FF4806404F1320410F0004548BF4042EC
:1004F0004FF000013EE700BF42004FEAE2014FEA41
:1005000031014FEA02701FBF12F07F4393F07F4F1B
:1005100081F06051704732F07F4208BF704793F01E
:100520007F4F04BF41F40021704730B54FF4607431
:1005300001F0004521F000411CE700BF50EA010234
:1005400008BF704730B54FF000050AE050EA0102DD
:1005500008BF704730B511F0004502D5404261EB4D
:1005600041014FF4806404F132045FEA915C3FF48E
:10057000D8AE4FF003025FEADC0C18BF03325FEA2B
:10058000DC0C18BF033202EBDC02C2F1200300FADC
:1005900003FC20FA02F001FA03FE40EA0E0021FA01
:1005A00002F11444BDE600BF70B54FF0FF0C4CF4EF
:1005B000E06C1CEA11541DBF1CEA135594EA0C0FA1
:1005C00095EA0C0F00F0DEF82C4481EA030621EADC
:1005D0004C5123EA4C5350EA013518BF52EA033517
:1005E00041F4801143F4801338D0A0FB02CE4FF0C9
:1005F0000005E1FB02E506F00042E0FB03E54FF0F9
:100600000006E1FB03569CF0000F18BF4EF0010EF0
:10061000A4F1FF04B6F5007F64F5407404D25FEAEC
:100620004E0E6D4146EB060642EAC62141EA55519F
:100630004FEAC52040EA5E504FEACE2EB4F1FD0CE1
:1006400088BFBCF5E06F1ED8BEF1004F08BF5FEA5F
:10065000500E50F1000041EB045170BD06F0004611
:1006600046EA010140EA020081EA0301B4EB5C04BE
:10067000C2BFD4EB0C0541EA045170BD41F48011B6
:100680004FF0000E013C00F3AB8014F1360FDEBFDB
:10069000002001F0004170BDC4F10004203C35DAB7
:1006A0000C341BDC04F11404C4F1200500FA05F33A
:1006B00020FA04F001FA05F240EA020001F00042DB
:1006C00021F0004110EBD37021FA04F642EB060151
:1006D0005EEA430E08BF20EAD37070BDC4F10C047B
:1006E000C4F1200500FA04F320FA05F001FA04F23F
:1006F00040EA020001F0004110EBD37041F100012B
:100700005EEA430E08BF20EAD37070BDC4F1200535
:1007100000FA05F24EEA020E20FA04F301FA05F29D
:1007200043EA020321FA04F001F0004121FA04F245
:1007300020EA020000EBD3705EEA430E08BF20EA15
:10074000D37070BD94F0000F0FD101F0004640004F
:1007500041EB010111F4801F08BF013CF7D041EAD1
:10076000060195F0000F18BF704703F000465200D5
:1007700043EB030313F4801F08BF013DF7D043EAA6
:100780000603704794EA0C0F0CEA135518BF95EA5C
:100790000C0F0CD050EA410618BF52EA4306D1D1E3
:1007A00081EA030101F000414FF0000070BD50EA02
:1007B000410606BF1046194652EA430619D094EA8C
:1007C0000C0F02D150EA013613D195EA0C0F05D176
:1007D00052EA03361CBF104619460AD181EA0301CA
:1007E00001F0004141F0FE4141F470014FF0000082
:1007F00070BD41F0FE4141F4780170BD70B54FF01D
:10080000FF0C4CF4E06C1CEA11541DBF1CEA13559C
:1008100094EA0C0F95EA0C0F00F0A7F8A4EB05047E
:1008200081EA030E52EA03354FEA013100F0888075
:100830004FEA03334FF0805545EA131343EA12633E
:100840004FEA022245EA111545EA10654FEA0026F3
:100850000EF000419D4208BF964244F1FD0404F5AC
:10086000407402D25B084FEA3202B61A65EB030508
:100870005B084FEA32024FF480104FF4002CB6EBC5
:10088000020E75EB030E22BFB61A754640EA0C0045
:100890005B084FEA3202B6EB020E75EB030E22BF85
:1008A000B61A754640EA5C005B084FEA3202B6EBC6
:1008B000020E75EB030E22BFB61A754640EA9C0085
:1008C0005B084FEA3202B6EB020E75EB030E22BF55
:1008D000B61A754640EADC0055EA060E18D04FEA13
:1008E000051545EA16754FEA06164FEAC30343EAB3
:1008F00052734FEAC2025FEA1C1CC0D111F4801F80
:100900000BD141EA00014FF000004FF0004CB6E778
:1009100011F4801F04BF01430020B4F1FD0C88BF17
:10092000BCF5E06F3FF6AFAEB5EB030C04BFB6EB22
:10093000020C5FEA500C50F1000041EB045170BD15
:100940000EF0004E4EEA113114EB5C04C2BFD4EB42
:100950000C0541EA045170BD41F480114FF0000EC6
:10096000013C90E645EA060E8DE60CEA135594EA42
:100970000C0F08BF95EA0C0F3FF43BAF94EA0C0F45
:100980000AD150EA01347FF434AF95EA0C0F7FF4BA
:1009900025AF104619462CE795EA0C0F06D152EA0E
:1009A00003353FF4FDAE1046194622E750EA4106F2
:1009B00018BF52EA43067FF4C5AE50EA41047FF403
:1009C0000DAF52EA43057FF4EBAE12E74A0011D2B5
:1009D00012F5001211D20DD56FF47873B3EB625299
:1009E0000ED44FEAC12343F0004343EA505323FAA5
:1009F00002F070474FF00000704750EA013002D11A
:100A00004FF0FF3070474FF00000704710B5054CB5
:100A100020464FF4806102F04CF841F2883003F038
:100A2000EDFAF5E70018014080B58AB06A46214B1F
:100A3000164603F108052F4614461868596808330E
:100A400003C4AB422246F7D118681B7905AA23716B
:100A5000002315462060CDF80D300493154B144645
:100A600018685968083303C4BB422246F7D1186896
:100A70001B792060237100230F4F104CCDF82130DB
:100A800009933946304605F0D1F8324628210A202C
:100A900004F0C4FF2146284605F0C8F80A212A467A
:100AA000084604F0BBFF04F01FFF4FF47A7003F018
:100AB000A5FAE6E76C6400084A2700209E64000857
:100AC0002DE9F84F354D364E3C21284602F023FCE7
:100AD0003C21304602F01FFC2B68DFF8D080D3F8B1
:100AE00024A03368DFF8C8905C6A01F03BFB8346C2
:100AF0002C4F01F037FBA0EB0B00642846D9286887
:100B00003168D0F824E04A6A03681FFA8AFC13F0BF
:100B1000100F1FFA8EF318D0F245D6BFDB43ACEBB3
:100B200003036344A8F800300B68DB0614D51FFAF2
:100B300082FC9442D8BF6FEA0C0CA3B2CCBFA3EBEB
:100B40000C036344A9F800300BE0F245A8BF03F1A1
:100B5000FF33A3EB0C03E5E794421BDA141BA9F85F
:100B60000040B9F80030B8F800200F4C9A428BBF13
:100B7000D31A9B1A3B803B808CBF01230023D0F803
:100B800024A023704C6A01F0EDFA8346012003F0A3
:100B900035FAAEE74FF6FF73D4E700BF60270020B9
:100BA000802600209200002090000020AA2700202C
:100BB000F8260020000000002DE9F0432EA7D7E919
:100BC0000067DFF8DC90DFF8DC808BB0484601F08E
:100BD0004BFC404601F048FC4FF0FF31484601F025
:100BE000D9FA4FF0FF31404601F0D4FA484601F0FF
:100BF0007DFB0446404601F079FB80B2FFF76AFCBA
:100C000002460B4630463946FFF7F8FD1CA3D3E9F0
:100C10000023FFF711FBFFF7D9FEC5B247F2F850EA
:100C2000A4B2B0FBF4F0FFF755FC17A3D3E90023FF
:100C3000FFF704FBFFF7CAFE154BC2B21D80154B30
:100C4000684615491A8004F0D1FF6A4614210A202B
:100C500004F0E4FE2A46114905A804F0C7FF1E214E
:100C60000A2005AA04F0DAFE4FF47A7003F0C6F900
:100C7000ACE700BFAFF300809A999999999EDF4045
:100C80002FFA0AD28CC5F13F21E692AAEDA6E23FE7
:100C90007026002044270020806400088F6400082C
:100CA000C82600204026002010B596B0242200213E
:100CB0000DA804F093FF1422002101A804F08EFF78
:100CC000182200210DEB020004F088FF022401220B
:100CD00010230CA8CDE910230C9401F0FFFE01466F
:100CE00008B172B6FEE70F23CDE90300CDE901306C
:100CF000059001A802F0C8F808B172B6FEE70890A6
:100D000006A8069402F07CF908B172B6FEE716B0A8
:100D100010BD000080B59AB001F006FAFFF7C4FFDD
:100D20001022002111A804F059FFA44B4FF4BC611C
:100D30009A69A34842F040029A619A69012402F03C
:100D400040020092009A9A69002542F010029A61CE
:100D50009A6902F010020192019A9A6942F0040223
:100D60009A619A6902F004020292029A9A6942F028
:100D700008029A619B69002203F008030393039B16
:100D800001F092FE00223C218E4801F08DFE4FF4CE
:100D9000BC63CDE911340223894811A9CDE913536D
:100DA00001F098FD3C23CDE911340323854811A9B6
:100DB0001493139501F08EFD1022294606A804F025
:100DC0000DFF1C2229460AA8CDE9045504F006FFB0
:100DD0002022294611A804F001FF7B4C7B4B2046C2
:100DE000C4E9003541F61F43C4E90555C4E903359C
:100DF000A56002F037FB08B172B6FEE74FF48056EB
:100E0000204606A9069602F076FC08B172B6FEE707
:100E1000204602F053FB08B172B6FEE7CDE90400AC
:100E200004A9204602F06AFD024608B172B6FEE748
:100E30006023CDE90C00CDE90A30CDE90E00109019
:100E40000AA9204602F0F2FB08B172B6FEE70422BE
:100E500020460AA902F0EAFB08B172B6FEE74FF499
:100E60000053CDE91100CDE913001590189011A998
:100E70002046169302F078FD044608B172B6FEE7EC
:100E80000146102206A804F0A9FE1C2221460AA849
:100E9000CDE9044404F0A2FE2022214611A804F06A
:100EA0009DFEA0234A4D4B48AC60C5E900034FF4BA
:100EB0007A73C5E90334802328466C61AB6102F084
:100EC000D1FA08B172B6FEE7284606A9069602F0E6
:100ED00012FC08B172B6FEE7284602F0EFFA08B13C
:100EE00072B6FEE700233A4804A9CDE9043302F0C4
:100EF00005FD08B172B6FEE76023CDE90E00CDE92D
:100F00000A300C9010900C2231480AA902F08EFB96
:100F100008B172B6FEE74FF40053CDE91100CDE9F8
:100F200013001590189011A92948169302F01CFD82
:100F3000044608B172B6FEE7254800F0F3FF01252C
:100F40004FF080434FF6FF7803270A26DFF8909092
:100F500011A94846CDE90A44C9E90034C9E9038426
:100F6000CDE91174CDE91354CDE91564CDE91754D9
:100F7000C9F80840C9F81840199402F0CBFA08B132
:100F800072B6FEE7CDE90A000AA9484602F0B6FCAF
:100F9000034608B172B6FEE74FF4E1320E480F493E
:100FA000C0E90233C0E900120C220361C0E9052345
:100FB000C36102F077FDA8B172B6FEE700100240EF
:100FC0000018014000080140B42500200034014011
:100FD000FC260020002C0140FC2500200048004099
:100FE00060270020494C4A4BCDE90A00C4E9003093
:100FF000C4E90208CDE91170CDE91350CDE91560BF
:10100000CDE917502061A06111A92046199602F080
:1010100081FA08B172B6FEE7CDE90A000AA92046B6
:1010200002F06CFC08B172B6FEE73A4C3A4BCDE9DF
:10103000110023604FF460231390A060207320758B
:1010400060602046E361256101F096FA08B172B64E
:10105000FEE70B23139011A92046CDE9113501F0CD
:1010600049F908B172B6FEE72C4C2D4A0023012540
:1010700022604FF460222046CDE911331393A36020
:1010800023732375E2616360256101F075FA08B18D
:1010900072B6FEE70C23139011A92046CDE9113555
:1010A00001F028F9044608B172B6FEE704F0D6FC58
:1010B00005221C491C4802F0F0FE02F007FF214601
:1010C0001A4A1B4802F03EFF1A4B214618601A4A82
:1010D0001A4802F037FF1A4B21461860194A1A487D
:1010E00002F030FF194B21461860194A194802F0E6
:1010F00029FF194B21461860184A194802F022FFAF
:10110000184B186002F0FEFEFEE700BF80260020AC
:1011100000040040C8260020002401404026002092
:10112000002801404A270020FC250020B065000867
:101130000D0A0008A82500208C6500080D1900087C
:1011400074260020D4650008290A0008AC25002078
:1011500044650008C10A00087C2600206865000874
:10116000B90B0008B025002010B50F4C0122204615
:10117000042101F099FC20460122202101F094FC79
:1011800020460022082101F08FFC20460022102179
:1011900001F08AFCBDE810400022044B01201B68CE
:1011A0005A639A6302F02ABF00080140B425002068
:1011B000F8B54FF46177474C474E00220421204692
:1011C00001F072FC01220821204601F06DFC336819
:1011D00000225F632021204601F066FC01221021DD
:1011E000204601F061FC33684FF4FA709F6302F00F
:1011F00005FF5922394D04212B6820461A6401222B
:1012000001F052FC01222021204601F04DFC002279
:101210000821204601F048FC10210022204601F060
:1012200043FC40F6C412336840F628205A63C822B3
:101230009A6302F0E3FE4A222B6800251A64042117
:101240000122204601F030FC01222021204601F03D
:101250002BFC00220821204601F026FC0022102150
:10126000204601F021FC33682A465D6304219D631A
:10127000204601F019FC01220821204601F014FC4F
:1012800033682A465F632021204601F00DFC0122CD
:101290001021204601F008FC336840F272609F6321
:1012A00002F0ACFE01220421204601F0FDFB0122E8
:1012B0002021204601F0F8FB2A460821204601F0B3
:1012C000F3FB2A461021204601F0EEFB33685D63F4
:1012D0009D63F8BD00080140B4250020FC260020D5
:1012E0002DE9F8434FF461776E4C6F4E2046012292
:1012F000042101F0D9FB20460022082101F0D4FB93
:10130000336820465F630122202101F0CDFB0022DB
:101310001021204601F0C8FB33684FF448709F63EA
:1013200002F06CFE20460122042101F0BDFB2046A4
:1013300001222021002501F0B7FB204600220821D0
:1013400001F0B2FB20460022102101F0ADFB592232
:10135000DFF85881336820465D639D63D8F800301C
:1013600004211A642A4601F09FFB2A4620462021C8
:1013700001F09AFB20460122082101F095FB102183
:101380002046012201F090FB40F6C41233684FF072
:101390004A095A63C82240F6FC009A6302F02EFE06
:1013A000D8F800302046C3F840900122042101F013
:1013B0007BFB2A462046082101F076FB3368204655
:1013C0005D630122202101F06FFB2A461021204697
:1013D00001F06AFB33684FF4FA709D6302F00EFE71
:1013E0003922D8F8003020461A640421012201F085
:1013F0005BFB2A462046082101F056FB3368204655
:101400005F630122202101F04FFB2A461021204674
:1014100001F04AFB33684FF4FA709F6302F0EEFD6F
:101420005C22D8F8003020461A6404212A4601F0D4
:101430003BFB20460122082101F036FB33682A4697
:101440005F632046202101F02FFB0122102120465E
:1014500001F02AFB33684FF4FA709F6302F0CEFD6F
:10146000D8F800302046C3F840900122042101F052
:101470001BFB2A462046082101F016FB3368204654
:101480005D630122202101F00FFB20462A46102136
:1014900001F00AFB33684FF4FA709D63BDE8F8432E
:1014A00002F0ACBD00080140B4250020FC2600205D
:1014B000F8B54FF46176314C01220421204601F049
:1014C000F3FA01222021204601F0EEFA2C4D0022F1
:1014D0000821204601F0E8FA10210022204601F000
:1014E000E3FA2B6840F252305E639E6302F086FDA1
:1014F000C8222B68234F5A6340F6FC029A633922B4
:101500003B6840F29E701A6402F078FD4A223B6804
:1015100004211A642046002201F0C6FA01220821A3
:10152000204601F0C1FA2B6800225E63202120468C
:1015300001F0BAFA01221021204601F0B5FA2B6819
:101540004FF4FA709E6302F059FD012204212046F7
:1015500001F0AAFA01222021204601F0A5FA00227A
:101560000821204601F0A0FA00221021204601F0B7
:101570009BFA00222B685A639A63F8BD0008014069
:10158000B4250020FC260020F8B54FF46176274CE6
:1015900000220421204601F087FA00222021204663
:1015A00001F082FA224D01220821204601F07CFA46
:1015B00010210122204601F077FA2B6840F2DC501E
:1015C0005E639E6302F01AFDC8222B68194F5A63AE
:1015D00040F6FC029A6339223B6840F698001A6490
:1015E00002F00CFD4A223B684FF42F701A642B68FE
:1015F0005E639E6302F002FD00220421204601F09A
:1016000053FA00222021204601F04EFA012208213F
:10161000204601F049FA01221021204601F044FA47
:1016200000222B685A639A63F8BD00BF000801408E
:10163000B4250020FC26002038B54FF49663184DE1
:10164000184C2B804FF47A73174A23801278174B6B
:101650001B880AB3C3F596632B800122042114482A
:1016600001F022FA01222021114801F01DFA002286
:1016700008210F4801F018FA00220D48102101F04E
:1016800013FA0C4B2A881B6801205A6322889A633C
:10169000BDE8384002F0B2BCC3F57A732380DCE7C2
:1016A000A8270020FA2600209000002092000020A9
:1016B00000080140B425002038B54FF4FA6340F625
:1016C0009802174C1749184D23800978174B2A8028
:1016D0001B8801B3D31A2B8001220421144801F086
:1016E000E3F901222021124801F0DEF9002208214D
:1016F0000F4801F0D9F900220D48102101F0D4F96A
:101700000C4B2A881B6801205A6322889A63BDE823
:10171000384002F073BCC3F5FA632380DCE700BFF6
:10172000FA26002090000020A82700209200002028
:1017300000080140B42500204FF4966370B5174DA2
:10174000174C2B804FF47A73164A23801278164B6D
:101750001B88F2B1C3F596632B8000220421134845
:10176000134E01F0A1F901220821104801F09CF963
:1017700033682A8820215A630C48002201F094F92A
:1017800001221021094801F08FF9336822889A63F9
:1017900070BDC3F57A732380DFE700BFA827002060
:1017A000FA2600209000002092000020000801404E
:1017B000B42500204FF4FA6340F6980270B515493D
:1017C000154C164D23800978154B2A801B88E9B1EA
:1017D000D31A2B80002204211248134E01F064F921
:1017E000012208210F4801F05FF933682A8820217F
:1017F0005A630C48002201F057F9012210210948D0
:1018000001F052F9336822889A6370BDC3F5FA6318
:101810002380DFE790000020FA260020A827002080
:101820009200002000080140B42500204A22024B0B
:101830001B681A64704700BFFC2600203922024B47
:101840001B681A64704700BFFC2600205C22024B14
:101850001B681A64704700BFFC26002010B52023C7
:10186000044686B01022002102A8019304F0B6F9C4
:10187000302C32D0A4F16100C3B2192B1BD8192827
:1018800019D8DFE800F01C18261E2218181818189E
:1018900018181818181820181A1818180D281824AD
:1018A0000F4901A804F0C2F94FF6FF7314220D4846
:1018B00001A902F025F906B010BD0B49F1E70B496B
:1018C000EFE70B49EDE70B49EBE70B49E9E70B497C
:1018D000E7E70B49E5E70B49E3E70B49E1E700BF21
:1018E000A7640008FC250020AF640008B764000866
:1018F000BC640008C2640008D4640008E664000800
:10190000F6640008076500080D650008F7B50522B4
:10191000E149E24802F0C1FA0021E14801F0ECFFA0
:101920000421DF4801F0E8FF0C21DE4801F0E4FF6C
:101930000024D94DD94F0522D749384602F0ADFAD7
:10194000052C02AB2A5D03EB440308BF002423F8F7
:10195000082CFFF709FC2E5D7A2E09D8572E0CD8DB
:101960004C2E00F0CE804F2E54D0302E00F0188137
:101970004FF47A7002F042FBDDE7583E222EF7D892
:1019800001A353F826F000BF511C0008711900088C
:1019900071190008711900087119000871190008FF
:1019A000711900087119000871190008CD1B000891
:1019B000711900083B1C0008E31B0008711B00089C
:1019C00071190008711900087119000871190008CF
:1019D00071190008711900088B1A00086D1A0008A7
:1019E00071190008471A0008711900088B1B0008BC
:1019F000711900080F1C00087119000871190008FE
:101A000071190008B71B0008F91B000871190008BC
:101A1000251C00083E232B55FFF718FFFFF70CFE8F
:101A2000FA2002F0EBFAFFF79FFBFFF707FFFFF743
:101A300083FEFA2002F0E2FAFFF7F8FEFFF794FBCC
:101A40000134A4B294E73E232B55FFF7FFFEFFF7C6
:101A5000F3FD4FF4FA7002F0D1FAFFF785FBFFF7C0
:101A6000EDFEFFF769FE4FF4FA70E3E73E232B55D6
:101A7000FFF7ECFE4FF4FA7002F0C0FAFFF71CFE1D
:101A800042F2602002F0BAFAD8E73E232B55FFF766
:101A9000DDFE4FF4FA7002F0B1FAFFF70DFE4FF4DD
:101AA000487002F0ABFAFFF75FFBFFF7C7FE4FF499
:101AB000FA7002F0A3FAFFF77DFE4FF47A7002F09D
:101AC0009DFAFFF751FBFFF7C1FE4FF4FA7002F0E9
:101AD00095FAFFF7B1FD4FF4FA7002F08FFAFFF7B5
:101AE00043FBFFF7ABFE4FF4FA7002F087FAFFF703
:101AF00023FE642002F082FAFFF736FBFFF796FE22
:101B00009EE73E232B55FFF799FE4FF4FA7002F043
:101B100075FAFFF7D1FD4FF4487002F06FFAFFF746
:101B200023FBFFF793FE4FF4FA7002F067FAFFF71A
:101B300041FE4FF4487002F061FAFFF77FFEFFF7B5
:101B40007BFD4FF47A7002F059FAFFF70DFBFFF7B7
:101B50007DFEFFF7F1FD4FF47A7002F04FFAFFF7C8
:101B600003FBFFF763FEFFF767FD4FF4FA7089E7A9
:101B70003E2302AA02EB44022B5522F8083CFFF751
:101B800017FB6520FFF76AFE5AE73C2302AA02EB27
:101B900044022B5522F8083CFFF78AFC7120F1E73C
:101BA000262302AA02EB44022B5522F8083CFFF739
:101BB000DBFA3046E6E75E2302AA02EB44022B552D
:101BC00022F8083CFFF738FD7720DBE7402302AA24
:101BD00002EB44022B5522F8083CFFF72FFE612050
:101BE000D0E7242302AA02EB44022B5522F8083C3A
:101BF000FFF72CFE6420C5E72D2302AA02EB440266
:101C00002B5522F8083CFFF711FE7820BAE75F2336
:101C100002AA02EB44022B5522F8083CFFF78CFD88
:101C20007320AFE72B2302AA02EB44022B5522F8C4
:101C3000083CFFF7A9FC7A20A4E7292302AA02EBBB
:101C400044022B5522F8083CFFF74AFB632099E732
:101C5000BDF80030582B0DD105222946384602F038
:101C60001CF96B78ADF80230AB78ADF804302B7905
:101C7000582BEDD1BDF80230312B15D0322B7FF42B
:101C8000DFAEBDF80430661C312BB6B220D1FFF7B1
:101C900053FD3446D4E600BF4A270020FC2500202F
:101CA000B4250020FC260020BDF80430312B08D1DB
:101CB000FFF7C2FC3323013CADF800302B70A4B217
:101CC000BEE6322BDDD10134A4B2FFF735FDB7E615
:101CD000322B7FF4B5AEFFF7AFFCDAE7114B07B557
:101CE0009A690F2142F001029A619A696FF001002E
:101CF00002F001020092009ADA6942F08052DA6141
:101D0000DB69002203F080530193019B00F0D0FCBB
:101D1000054A536823F0E06343F08063536003B0E7
:101D20005DF804FB0010024000000140102210B5D5
:101D3000044688B00DEB0200002103F04FFF23683A
:101D40001B4A93421CD11B4B9A6942F400729A6160
:101D50009A6902F400720092009A9A6942F01002A5
:101D60009A619B6903F010030193019B0223049382
:101D70000323114804A9059300F0ACFD08B010BD81
:101D80000E4A9342FAD10B4B9A6942F480629A61EF
:101D90009A6902F480620292029A9A6942F01002F1
:101DA0009A619B6903F010030393039B0423DEE70E
:101DB00000240140001002400010014000280140B2
:101DC000102210B5044688B00DEB0200002103F08C
:101DD00005FF2368174A93420BD1174B9A6942F4C7
:101DE00000629A619B6903F400630193019B08B050
:101DF00010BD124A9342FAD10F4B11489A6904A9B7
:101E000042F400529A619A6902F400520292029AD4
:101E10009A6942F010029A619B69C02203F0100394
:101E20000393039B0223CDE90423079300F052FDA3
:101E3000DDE700BF002C01400010024000340140EB
:101E40000010014010B504468AB01022002106A8F7
:101E500003F0C4FE2368B3F1804F39D103F5043396
:101E6000DA69002442F00102DA61DA69284802F0F6
:101E700001020192019A9A6906A942F004029A614C
:101E80009A6902F004020292029A9A6942F00802E8
:101E90009A619B69089403F008030393039B4FF432
:101EA0000043CDE9063400F015FD0823194806A9C2
:101EB000CDE90634089400F00DFD174A536823F469
:101EC000407343F0E06343F4807353600AB010BD85
:101ED000124A9342FAD1124B0D48DA6906A942F030
:101EE0000202DA61DA6902F002020492049A9A6943
:101EF00042F004029A619B69C02203F00403059337
:101F0000059B0023CDE90623089300F0E3FCDDE701
:101F100000080140000C01400000014000040040A6
:101F20000010024010B5044686B01022002102A81D
:101F300003F054FE2268104B9A421BD103F5644310
:101F40009A690E4842F040029A619B694FF48042C0
:101F500003F040030193019B022302A9CDE9022370
:101F6000059300F0B7FC064A536843F0E06343F082
:101F7000C003536006B010BD002C014000180140A2
:101F80000000014010B5044686B01022002102A8CE
:101F900003F024FE22681F4B9A4239D103F5E43343
:101FA000DA691D4842F48022DA61DA6902A902F492
:101FB00080220092009A9A69002442F010029A61ED
:101FC0009B694FF4806203F010030193019B02238D
:101FD000CDE902230323059300F07CFC4FF400635A
:101FE0000D4802A9CDE90234049400F073FC0B4AB9
:101FF00027205368052123F0300343F0E06343F0CA
:1020000010035360224600F053FB272000F082FBB0
:1020100006B010BD00480040001001400000014023
:10202000FEE7FEE7FEE7FEE7FEE7704708B500F0D3
:102030008DF802F0A1FF012803D0BDE8084003F0AD
:1020400089BA08BD014801F00FBE00BFFC25002081
:102050000B4B0246196810B509B90A49196018688E
:1020600009490A4C0244091B8A4206D903F07EFD45
:102070000C2303604FF0FF3010BD1A60FCE700BF77
:1020800094000020002C002000000120000400002B
:10209000704700000C480D490D4A002302E0D45857
:1020A000C4500433C4188C42F9D30A4A0A4C0023A2
:1020B00001E013600432A242FBD3FFF7E9FF03F013
:1020C0005BFDFEF727FE7047000000207400002033
:1020D000D470000874000020002C0020FEE70000EF
:1020E00038B50E4B054618784FF47A73B3FBF0F30E
:1020F0000B4A1068B0FBF3F000F01AFB044658B925
:102100000F2D09D8024629464FF0FF3000F0D0FAD3
:102110002046044B1D6038BD0120FCE70400002070
:102120000000002008000020074A08B513680320BB
:1021300043F01003136000F0A9FA0F20FFF7D0FF5F
:10214000FFF7CCFD002008BD00200240034A044BED
:1021500011681B780B441360704700BFAC27002048
:1021600004000020014B1868704700BFAC27002016
:1021700038B50446FFF7F6FF0546631C1EBF044B47
:102180001B78E418FFF7EEFF431BA342FAD338BDD8
:1021900004000020F7B5002504460E460195FFF720
:1021A000E1FF236807469A68D20508D50120A36A93
:1021B00084F8245043F02003A36203B0F0BD5A68B2
:1021C000D50503D4DB6A13F4700F40D0414B0220D5
:1021D0001D6800F08DFF22683F4B1169B5FBF0F5DB
:1021E00019423E4B54D1D0683D49084250D1116943
:1021F00019425ED1D26803F16E431A4214BF2923FB
:1022000014235D43019BAB4225D2721C5CD0002E8F
:1022100055D1019BAB4257D2A36A43F00403A3629A
:1022200000230BE0701C13D066B923681B6813F001
:1022300002030CD1A26A42F00402A262032084F8D5
:102240002430BAE7FFF78EFFC01BB042EDD82268FA
:1022500013689907E6D56FF0120322681360A36A2A
:1022600043F40073A362936803F46023B3F5602F13
:102270002ED1207B00282BD1A36A23F48073A36284
:10228000A36ADB0424D4A36A43F00103A36294E7A6
:102290001169194203D1D168124B19420BD011694F
:1022A000114B194209D1D2681A4214BFFC2354239E
:1022B000A7E72923A5E75423A3E7FC23A1E7FFF71A
:1022C00051FFC01BB042A4D8019B0133019399E791
:1022D000002072E700000020244992249224491231
:1022E0002449920092244900499224000368D86C42
:1022F00070470000002373B5019390F82430044622
:10230000012B6CD0012380F824304D680268062D23
:10231000086805EB850322D81F26556B053B9E40B8
:1023200025EA060500FA03F32B43536309288B685B
:1023300000EB40054FF0070129D9D6681E3DA940A2
:1023400026EA0101AB400B43D360A0F11003012B3F
:1023500025D90020002384F8243002B070BD0C2D54
:102360004FF01F0509D8166B233B9D4026EA050553
:1023700000FA03F32B431363D8E7D66A413B9D4031
:1023800026EA050500FA03F32B43D362CEE7106972
:10239000A94020EA0101AB400B431361D9E7114B7F
:1023A0009A4216D193681B02D3D49368102843F441
:1023B00000039360CDD10C4B0C4A1B68B3FBF2F2C7
:1023C0000A2353430193019B002BC2D0019B013B85
:1023D000F8E7A36A012043F02003A362BAE70220D2
:1023E000BBE700BF002401400000002040420F0076
:1023F000002337B50193036804469A68D20702D5D3
:10240000002003B030BD9A6842F001029A60144B7C
:10241000144A1B68B3FBF2F30193019BE3B9FFF786
:10242000A1FE054623689B68DB07E9D4FFF79AFE07
:10243000401B0228F6D923689B6813F00103F1D1F1
:10244000A26A012042F01002A262E26A84F82430FB
:1024500042F00102E262D4E7019B013BDCE700BFEE
:102460000000002040420F0010B590F824300446D0
:10247000012B54D0012380F82430FFF7B9FF002846
:1024800049D1A36A274A23F4407323F0010343F49C
:102490008073A3622368934204D123494A6812F4EB
:1024A000702F2ED1A26A22F48012A2625A685205BD
:1024B00041BFA26A22F4405242F48052A262A26A50
:1024C00012F480521CBFE26A22F00602E26200228D
:1024D00084F824206FF002021A609A6802F46022E5
:1024E000B2F5602F13D10F4A934205D1A2F5806255
:1024F000526812F4702F0AD19A6842F4A0029A60CE
:1025000010BDA26A42F48012A2624A68CFE79A68BC
:1025100042F48012F3E7002384F82430F0E702202D
:10252000EEE700BF002801400024014038B50368F1
:1025300004469A68D10701D4002038BD9A6822F079
:1025400001029A60FFF70EFE054623689B68DB07D1
:10255000F2D5FFF707FE401B0228F6D923689B68D7
:10256000DA07F2D5A36A012043F01003A362E36AFD
:1025700043F00103E362E0E7F8B50446002877D0B2
:10258000836A23B9C36280F82430FFF7CFFB20466B
:10259000FFF7CCFFA36A13F010036BD1002869D1B9
:1025A000A26A374E22F4885222F0020242F002025E
:1025B000A262D4E90021B242E56904D1B5F5402F09
:1025C00008BF4FF40025267B41EA46012943A56850
:1025D000B5F5807F37D0012D0CBF4FF4807C4FF0D4
:1025E000000C277D012F06D17EBBA769013F4CEA75
:1025F000473646F4006C5668B5F5807F26F4694688
:1026000046EA0C06566097681E4E06EA070646EA3A
:102610000106966001D0012D02D12369013B1B0503
:10262000D56A25F470052B43D3629268164B13408C
:10263000994213D10023E362A36A23F0030343F01A
:102640000103A362F8BDAC46CBE7A66A46F02006BC
:10265000A662E66A46F00106E662CCE7A36A23F0CA
:10266000120343F01003A362E36A43F00103E36241
:102670000120E7E7A36A43F01003A362F8E700BF75
:10268000003C0140FDF7E1FFFE0E1FFF074903027A
:10269000CA6803F4E06322F4E0621204120C1343EC
:1026A00043F0BF6343F40033CB60704700ED00E0BC
:1026B000164B30B5DC68C4F30224C4F10703251DB2
:1026C000042B28BF0423062D4FF0FF3598BF0024AC
:1026D00005FA03F388BF033C21EA0303A34005FA8C
:1026E00004F422EA0402002843EA0203ACBF00F12A
:1026F0006040074A4FEA0313DBB2ABBF00F561400D
:1027000000F00F0080F80033135430BD00ED00E0FE
:1027100014ED00E0002808DB0123420900F01F004F
:1027200003FA00F0014B43F82200704700E100E09B
:102730000138B0F1807F0AD2F021064B064A58607A
:1027400082F823100020072298601A607047012049
:10275000704700BF10E000E000ED00E090F821308D
:10276000022B06D004238363002380F8203001204D
:10277000704703681A6822F00E021A601A6822F085
:1027800001021A600123D0E90F218B4053604FF4FE
:10279000807303840020704708B590F82130022B25
:1027A00003D004238363012008BD036843491A68EA
:1027B00022F00E021A601A6822F001021A60404AE2
:1027C000934241D98B4238D014318B4237D01431E7
:1027D0008B4236D014318B4223D014318B4223D01C
:1027E00014318B4223D0934224D002F5627293427B
:1027F00023D01432934222D01432934221D0143287
:10280000934214BF4FF480334FF480532D4A5360EA
:102810004FF480730384436B002B4DD09847002006
:10282000C2E74FF48053F1E74FF48033EEE74FF403
:102830008013EBE74FF08073E8E70123E6E710230E
:10284000E4E74FF48073E1E78B422ED01E498B42C0
:102850002DD014318B422CD014318B4219D014312D
:102860008B4219D014318B4219D093421AD0174A97
:1028700093421AD01432934219D01432934218D092
:102880001432934214BF4FF480334FF48053104AF4
:10289000BDE74FF48053FAE74FF48033F7E74FF486
:1028A0008013F4E74FF08073F1E70123EFE7102383
:1028B000EDE74FF48073EAE7184675E70800024039
:1028C00080000240000402401C0002400804024054
:1028D000000002402DE9F74F002216466B4F6C4B6B
:1028E000DFF8B4C1DFF8B4E10C6834FA06F502D1C0
:1028F00003B0BDE8F08F4FF0010808FA06F804EACB
:10290000080538EA040440F082804C68032C07D89C
:10291000013C022C00F28D80DFE804F09EA3A900A8
:10292000122C00F0A18074D8112C00F09780FF2D9C
:1029300098BF82464FF00F0988BF00F1040A4FEAA2
:102940008604DAF8008088BF203C09FA04FB28EAF4
:102950000B0802FA04F448EA0404CAF80040D1F86B
:1029600004A01AF0805F52D0BC6926F0030844F03E
:102970000104BC61BC6908F1804804F001040194C1
:1029800008F5803806F0030B019C4FEA8B0BD8F852
:10299000084009FA0BF924EA09093E4CA0426AD022
:1029A00004F58064A04268D004F58064A04266D03B
:1029B00004F58064A04264D004F58064A04262D033
:1029C00060450CBF0524062404FA0BF444EA09040C
:1029D000C8F808401C681AF4803F14BF2C43AC436D
:1029E0001C605C681AF4003F14BF2C43AC435C606D
:1029F0009C681AF4801F14BF2C43AC439C60DC68B5
:102A00001AF4001F14BF254324EA0505DD600136D2
:102A10006AE774450DD018D8DFF884904C4508D08B
:102A200009F570294C4504D0A9F580194C457FF46F
:102A30007EAF8A68EAB1012A08BFC0F810804FF063
:102A4000080218BFC0F8148071E7DFF858904C45B1
:102A5000EFD009F58039E9E7CA6868E7CA68043247
:102A600065E7CA68083262E7CA680C325FE700228D
:102A70005DE704225BE70024A6E70124A4E7022423
:102A8000A2E70324A0E704249EE700BF0010024051
:102A90000004014000080140001C01400000221019
:102AA00000001210000031100AB1016170470904E2
:102AB000FBE7C36801EA030221EA030141EA02419C
:102AC000016170470122014B1A60704720000E42DD
:102AD0000022014B1A60704720000E422DE9F3419D
:102AE000054638B30368DB0710D42B689F075ED414
:102AF0002B68190700F195802B685A0700F1BF80F9
:102B0000E869002840F02C81002029E08F4C6368A0
:102B100003F00C03042B07D0636803F00C03082BAD
:102B20000AD16368DE0307D523689C03DDD56B6893
:102B3000002BDAD1012013E06B68B3F5803F12D18E
:102B4000236843F480332360FFF70CFB06462368B9
:102B50009803CAD4FFF706FB801B6428F7D903202B
:102B600002B0BDE8F0819BB9236823F48033236071
:102B7000236823F480232360FFF7F4FA06462368D2
:102B80009903B2D5FFF7EEFA801B6428F7D9E6E780
:102B9000B3F5A02F236803D143F480232360CFE74C
:102BA00023F480332360236823F48023CBE7674C2E
:102BB000636813F00C0F07D0636803F00C03082B55
:102BC00010D16368DA030DD423689B0702D52B6903
:102BD000012BAFD123686A6923F0F80343EAC203EB
:102BE000236085E72A695A4B6AB101221A60FFF710
:102BF000B9FA064623689F07ECD4FFF7B3FA801BA7
:102C00000228F7D9ABE71A60FFF7ACFA064623684B
:102C100098077FF56DAFFFF7A5FA801B0228F6D95C
:102C20009DE7AA69494E4B4BDAB101221A60FFF7C2
:102C300099FA0446736A9B070DD54FF4FA52464B36
:102C40001B68B3FBF2F3019300BF019B5A1E019274
:102C5000002BF9D150E7FFF785FA001B0228E9D9CC
:102C60007DE71A60FFF77EFA0446736A9F077FF5D7
:102C700043AFFFF777FA001B0228F6D96FE7334C12
:102C8000E369D80024D40127E36943F08053E3616A
:102C9000E36903F080530093009B304E3368D905FD
:102CA00018D5EB68012B26D1236A43F00103236278
:102CB000FFF758FA41F288380646236A9B073FD54A
:102CC000002F3FF41DAFE36923F08053E36117E762
:102CD0000027E2E7336843F480733360FFF742FA7A
:102CE00080463368DA05DCD4FFF73CFAA0EB080035
:102CF0006428F6D933E7ABB9236A41F2883823F068
:102D000001032362236A23F004032362FFF72AFAF4
:102D10000646236A9807D3D5FFF724FA801B40455F
:102D2000F7D91CE7052B236A03D143F00403236280
:102D3000BAE723F001032362236A23F00403B6E712
:102D4000FFF710FA801B4045B7D908E70010024092
:102D50000000424280044242000000200070004017
:102D60002A4B5A681C4602F00C02082A3DD0002368
:102D7000274E022833602BD1FFF7F4F9074623686A
:102D800099011FD42B6AB3F5803F05D16268A96809
:102D900022F400320A436260696A62680B4322F4DB
:102DA00074121343636001233360FFF7DBF90546B8
:102DB00023689A013FF5A8AEFFF7D4F9401B02281B
:102DC000F6D9CCE6FFF7CEF9C01B0228D7D9C6E664
:102DD000FFF7C8F9054623689B017FF595AEFFF71D
:102DE000C1F9401B0228F6D9B9E601283FF4B8AE74
:102DF0005B682A6A03F4803191427FF49BAE6A6A71
:102E000003F4701393423FF47FAE93E60010024048
:102E10006000424230B5184B87B002AC03F1100598
:102E2000224618685968083303C2AB421446F7D1EA
:102E300040F201231149ADF804304B6803F00C0255
:102E4000082A17D1C3F3834206A80244DB0312F811
:102E5000102C0CD54B680A48C3F34043504306AAD4
:102E6000134413F8143CB0FBF3F007B030BD054831
:102E70005043FAE70248F8E71066000800100240E5
:102E800000127A0000093D002DE9F0410D4604468C
:102E900010B90120BDE8F081444A136803F007032C
:102EA0008B4228D321688E0730D4CA0743D43F4AC7
:102EB000136803F00703AB4265D822683C4D12F05B
:102EC000040F6CD1130706D56B68226923F4605395
:102ED00043EAC2036B60FFF79DFF6B68354AC3F39B
:102EE0000313D35CD840344B1860344B1868FFF799
:102EF000F7F80020CEE7136823F007030B431360B5
:102F0000136803F007038B42C3D1CBE7284B11F0C2
:102F1000040F1EBF5A6842F4E0625A60080742BFBD
:102F20005A6842F460525A605A68A06822F0F0026F
:102F300002435A60B9E762681D4E012A33681AD10C
:102F400013F4003FA5D0736841F2883823F00303DF
:102F500013437360FFF706F907467368626803F06E
:102F60000C03B3EB820FA2D0FFF7FCF8C01B404567
:102F7000F3D903208EE7022A02D113F0007FE1E7A4
:102F800013F0020FDEE7136823F007032B431360EF
:102F9000136803F00703AB427FF47BAF8DE76B68E8
:102FA000E16823F4E0630B436B608BE70020024091
:102FB00000100240F8650008000000200800002012
:102FC000044B054A5B68C3F30223D35C034A1068D1
:102FD000D84070470010024008660008000000203A
:102FE000044B054A5B68C3F3C223D35C034A1068F1
:102FF000D84070470010024008660008000000201A
:1030000003682DE9F341D907054620D5354CE3691E
:10301000DA0032D40127E36943F08053E361E369C6
:1030200003F080530193019B2F4E3368DB0526D5B7
:10303000236A13F4407336D1236A6A6823F4407319
:10304000134323621FB1E36923F08053E3612868CF
:10305000830706D52349AB684A6822F440421A43E5
:103060004A6010F010001BD01E4A696953680020A6
:1030700023F480030B43536012E00027D4E7336846
:1030800043F480733360FFF76DF880463368D805EA
:10309000CED4FFF767F8A0EB08006428F6D9032028
:1030A00002B0BDE8F0816A6802F440729A42C3D06F
:1030B00001200E4A236A1060002023F44071106042
:1030C0002162D907B8D5FFF74DF841F28838064696
:1030D000236A9A07B0D4FFF745F8801B4045F7D91B
:1030E000DDE700BF00100240007000404004424293
:1030F000034670B53C4A86B002AD02F110062C467C
:1031000010685168083203C4B2422546F7D140F234
:103110000122082BADF804200AD8002B2ED0013B49
:10312000072B5FD8DFE803F032505E2D5E5E5E2D28
:10313000102B57D12D4A5168136813F080731DD09E
:10314000C1F38343C90348BF516806A844BFC1F314
:1031500040410918034444BF11F8141C2448526824
:103160004CBFB0FBF1F0234813F8103C520200FBB7
:1031700003F303D403205B00B3FBF0F3184606B05F
:1031800070BD06B0BDE87040FFF744BE40F20231AA
:10319000164A136A1940B1F5817F20D003F44073B9
:1031A000B3F5007F07D1536A49F6404213F002039A
:1031B00018BF1346E2E7B3F5407F13D113684FF20F
:1031C000244213F40033F3E7FFF70AFF074B5B6871
:1031D000C3F3813301335B00B0FBF3F3CEE74FF46D
:1031E0000043CBE70023C9E7106600080010024047
:1031F00000127A0000093D00036A70B523F0010354
:103200000362036A446882690D6822F073022A43EC
:103210008D6823F002032B430E4DA84202D00E4EC0
:10322000B04210D1CE6823F008033343A84223F004
:10323000040302D0084DA84205D1D1E9055624F473
:10324000407435432C43446082614A6842630362A0
:1032500070BD00BF002C014000340140036A70B50E
:1032600023F480730362036A4468C2690D6822F024
:1032700073022A438D6823F4007343EA0523114D3A
:10328000A84203D005F50065A84214D1CD6823F407
:10329000006343EA05230B4D23F48063A84203D067
:1032A00005F50065A84206D1D1E9055624F440543D
:1032B000354344EA05144460C2614A68C26303624C
:1032C00070BD00BF002C0140036A30B523F4805369
:1032D0000362036A4468C2690D6822F4E64242EA66
:1032E00005228D6823F4005343EA0533084DA842B4
:1032F00003D005F50065A84204D14D6924F480444B
:1033000044EA85144460C2614A680264036230BDC5
:10331000002C01407047034630B590F83E2090F8ED
:103320003F0093F8425093F84340D2B2C0B2EDB29E
:10333000E4B2C1B9012A45D1012D45D1022283F859
:103340003E2083F842201A68116A21F001011162BF
:10335000116A41F00101002011621A68136843F0FC
:103360000103136030BD042911D101282AD1012C99
:10337000F8D1022283F83F2083F843201A68116AAB
:1033800021F010011162116A41F01001E3E7012AF6
:1033900018D1012818D1012DE4D1012CE2D102224B
:1033A00083F83E2083F83F2083F8422083F84320AF
:1033B0001A68116A21F001011162116A41F00101DC
:1033C0001162DCE70120CDE71046CBE7244A036811
:1033D000904212D002F5006290420ED0B0F1804FC0
:1033E0000BD0A2F59832904207D002F5806290424D
:1033F00003D002F5806290421DD14A6823F0700329
:103400001343174A904212D002F5006290420ED048
:10341000B0F1804F0BD0A2F59832904207D002F560
:103420008062904203D002F58062904203D1CA6864
:1034300023F4407313434A6923F08003134303606A
:103440008B68C3620B688362054B984203D003F517
:103450000063984201D10B69036301234361704704
:10346000002C014010B5044630B390F83D3003F015
:10347000FF021BB980F83C20FEF7A2FC0223206863
:1034800084F83D30211DFFF7A1FF0123002084F8BF
:10349000463084F83E3084F83F3084F8403084F879
:1034A000413084F8423084F8433084F8443084F862
:1034B000453084F83D3010BD0120FCE710B50446CE
:1034C00030B390F83D3003F0FF021BB980F83C2088
:1034D000FFF720FF0223206884F83D30211DFFF70D
:1034E00075FF0123002084F8463084F83E3084F8CC
:1034F0003F3084F8403084F8413084F8423084F81A
:10350000433084F8443084F8453084F83D3010BDB1
:103510000120FCE7F8B50D46044600284DD090F890
:103520003D3003F0FF021BB980F83C20FEF78AFC17
:103530000223214684F83D3051F8040B836823F4BC
:10354000804323F007038360FFF740FF20682B6868
:1035500086688269A9681E43AB6922F4407222F032
:10356000030241EA0323134323F47C422B69E969F4
:103570001B0143EA0123E968076A0B43296A22F029
:10358000FC0243EA01331343696927F022026F68A2
:10359000866047EA01178361174301230762002011
:1035A00084F8463084F83E3084F83F3084F8423066
:1035B00084F8433084F83D30F8BD0120FCE700007A
:1035C000036A70B523F010030362036A44688269DA
:1035D0000D6822F4E64242EA05228D6823F02003BA
:1035E00043EA0513104DA84203D005F50065A84233
:1035F00014D1CD6823F0800343EA05130A4D23F06C
:103600004003A84203D005F50065A84206D1D1E9E0
:10361000055624F44064354344EA850444608261DD
:103620004A688263036270BD002C014038B590F88F
:103630003C300446012B52D00123082A80F83C304C
:103640003CD006D8C2B1042A27D0002084F83C0020
:1036500038BD0C2AF9D10068FFF736FE23680969E6
:10366000DA6942F40062DA61DA6922F48062DA61CE
:10367000DA6942EA012230E00068FFF7BDFD236805
:1036800009699A6942F008029A619A6922F0040273
:103690009A619A690A439A61D7E70068FFF790FF39
:1036A000236809699A6942F400629A619A6922F46E
:1036B00080629A619A6942EA0122ECE70068FFF7AA
:1036C000CDFD23680969DA6942F00802DA61DA6936
:1036D00022F00402DA61DA690A43DA61B5E702200E
:1036E000B6E710B584680A4324F47F4442EA032213
:1036F0002243826010BD70B590F83C300446012B27
:103700004FF0020027D0012384F83D00206884F8A0
:103710003C30836823F47F4323F0770383600B6896
:10372000602B4DD032D8402B62D015D8202B03D03F
:1037300009D833F0100208D1826822F070021343D6
:1037400043F0070320E0302BF6D00123002084F85B
:103750003D3084F83C0070BD502BF6D14A68CE68ED
:10376000016A056A21F00A0125F0010505628369F5
:103770000A4323F0F00343EA06138361026283687D
:1037800023F0700343F057038360DEE7702B0CD007
:10379000B3F5005FD9D1CB68D1E90121FFF7A1FFD3
:1037A0002268936843F4804308E0CB68D1E90121A3
:1037B000FFF797FF2268936843F077039360C4E7AD
:1037C0004D68CE68016A21F0100101628269036AC6
:1037D00022F4704223F0A00343EA051342EA0632C2
:1037E00082610362836823F0700343F06703CBE7D1
:1037F0004A68CE68016A056A21F00A0125F00105D0
:10380000056283690A4323F0F00343EA06138361E8
:103810000262836823F0700343F04703B4E710B5F6
:103820000124036A01F01F018C4023EA04030362B0
:10383000036A8A401A43026210BD000010B50446B4
:1038400029B990F83E30012B1DD0012032E0042927
:1038500007D190F83F30012BF7D1022380F83F3099
:1038600014E0082907D190F84030012BEDD1022354
:1038700080F840300AE090F84130012BE5D1022376
:1038800080F8413002E0022380F83E3001222068B7
:10389000FFF7C5FF2368154A93420CD014498B42A9
:1038A00009D0B3F1804F10D19A6802F00702062ABE
:1038B00016D1002010BD596C934241F40041596467
:1038C000F2D00B4A9342EFD0EBE70A4A9342EBD097
:1038D00002F580629342E7D002F580629342E3D022
:1038E0001A6842F001021A60E3E700BF002C0140B1
:1038F0000034014000040040FFF7A0BF30B590F84D
:103900003C300246012B4FF002002AD0136882F8A7
:103910003D005C680D6824F070042C4398685C607E
:10392000104CA34212D004F50064A3420ED0B3F1B0
:10393000804F0BD0A4F59834A34207D004F58064DF
:10394000A34203D004F58064A34204D1496820F067
:103950008000014399600123002082F83D3082F805
:103960003C0030BD002C014090F83C30012B1FD0B2
:10397000CB688A6823F4407313434A6823F4806356
:1039800013430A6823F4006313430A6923F4805342
:1039900013434A6923F400531343CA6923F4804351
:1039A000134302685364002380F83C301846704784
:1039B000022070470368DA6822F49072DA605A696C
:1039C00022F001025A61026B012A02BFDA6822F07A
:1039D0001002DA60202380F83E3000230363704732
:1039E00010B504460368C1681A6922F440520A43BC
:1039F0001A6182680069D9680243606921F4B05194
:103A000021F00C0102430A43DA605A69A16922F4E9
:103A100040720A435A610E4A934215D1FFF7E0FA09
:103A200019234343626820689200B3FBF2F36422D7
:103A3000B3FBF2F102FB11331B013233B3FBF2F3A0
:103A400003EB0113836010BDFFF7BAFAE8E700BF8C
:103A500000380140F8B504460E4617461D46226858
:103A6000136836EA030301D1002014E06B1CF7D081
:103A700095B923680320DA6822F4D072DA605A69B3
:103A800022F001025A61202384F83D3084F83E3050
:103A9000002384F83C30F8BDFEF764FBC01B854270
:103AA000DDD2E6E710B5044640B390F83D3003F0B0
:103AB000FF021BB980F83C20FEF764FA2423226839
:103AC00084F83D30D368204623F40053D360FFF7D9
:103AD00087FF236800201A6922F490421A615A690C
:103AE00022F02A025A61DA6842F40052DA60202396
:103AF000206484F83D3084F83E3010BD0120FCE79E
:103B00002DE9F843994690F83D300446202B0E46A7
:103B1000174648D1002944D0002A42D090F83C30C2
:103B2000012B40D00123002580F83C30212305647F
:103B300080F83D30FEF716FBA3688046B3F5805F42
:103B4000A784E78403D123690BB935461E460023B9
:103B500084F83C30E38C9BB253B94B46424640213B
:103B60002046FFF777FF50B9202384F83D3007E067
:103B70004B46424680212046FFF76CFF10B10320E0
:103B8000BDE8F88322684EB935F8023BC3F3080359
:103B90005360E18C013989B2E184DBE716F8013B1F
:103BA000F6E70120ECE70220EAE77047704770472C
:103BB00008B50023406AC385C384FFF7F8FF08BD3A
:103BC000704713B590F83E30222B49D18168836A43
:103BD000B1F5805F026833D10169002933D15268A1
:103BE000C2F3080223F8022BC48D8362013CA4B205
:103BF000C4851CBB0368DA6822F02002DA60DA6848
:103C000022F48072DA605A6922F001025A6120229D
:103C100080F83E20026B012A1FD10463DA6822F08B
:103C20001002DA601A68D20605D501941A6801926A
:103C30005B680193019B818DFFF7C2FF002010E0BC
:103C400039B9016929B95268D2B21A70836A01334D
:103C5000CAE7526802F07F02F7E7FFF7A7FFEDE738
:103C6000022002B010BD0000036837B51A68044690
:103C700012F00F0FD9685D6908D195065FD58D06E2
:103C80005DD503B0BDE83040FFF79BBF05F00100F4
:103C900001F49075054352D0D50705D5CB0542BF39
:103CA000236C43F001032364550704D518B1236C3A
:103CB00043F002032364930704D518B1236C43F047
:103CC00004032364150707D501F0200303431EBF37
:103CD000236C43F008032364236C53B3920604D58A
:103CE0008B0602D52046FFF76CFF236820465B69F0
:103CF000256C03F0400305F008051D431BD0FFF7BA
:103D000059FE23685A69550610D55A69A06B22F0EE
:103D100040025A6150B1534B4363FEF73DFD40B141
:103D2000A06B436B03B0BDE8304018472046FFF757
:103D30003EFF03B030BDFFF73AFF2564F9E7206B83
:103D4000012855D1D00653D5CD0651D5002101917A
:103D50001A6801925A680192019A5A6912F0400257
:103D60002AD0A06B0268526892B2002AE1D0A58DD9
:103D70009542DED9E2858269202A15D0DA6822F4DC
:103D80008072DA605A6922F001025A615A6922F09F
:103D900040025A61202284F83E202163DA6822F032
:103DA0001002DA60FEF7DAFCE38DA18DC91A89B240
:103DB0002046FFF705FFBCE7E18D88B2E18D89B2AF
:103DC0000029B6D0A18D091A89B20029B1D0D868CE
:103DD00020F49070D860586920F0010058612020CC
:103DE00084F83E002263DA6822F01002DA60DFE72E
:103DF000100626D50D0624D594F83D20212A98D109
:103E0000A168226AB1F5805F16D12169A1B932F8A3
:103E1000021BC1F3080159602262E28C013A92B29E
:103E2000E284002A85D1DA6822F08002DA60DA685A
:103E300042F04002DA607CE7511C216212785A603D
:103E4000EBE750067FF575AF4A067FF572AFDA688B
:103E5000204622F04002DA60202384F83D30FFF74C
:103E6000A4FE66E7B13B0008C285828581620346F5
:103E700022220020186483F83C0083F83E201B684F
:103E8000DA6842F48072DA605A6942F001025A61DB
:103E9000DA6842F02002DA60704770B490F83E6051
:103EA000202E10D161B15AB190F83C40012C0AD0BB
:103EB000012480F83C400024046370BCFFF7D4BFA9
:103EC000012070BC70470220FBE70000EFF3058380
:103ED00013B16FF005007047EFF31083002BF8D19A
:103EE000074B1868022806D1EFF31183002BF0D19D
:103EF0004FF0FF3070470028FAD101221A60704756
:103F0000F402002010B5EFF3058313B16FF0050044
:103F100010BDEFF31084002CF8D1094B1A68022A67
:103F200006D1EFF31183002BF0D14FF0FF30EFE714
:103F3000012AFAD102221A6000F0A0FD2046E7E72C
:103F4000F4020020F0B51446002287B00B4605921B
:103F5000EFF3058252BBEFF310823ABB264A126898
:103F6000022A02D1EFF3118202BBF8B100228DF8D0
:103F70001320002C30D0216809B90DF11301A56977
:103F8000002D08BF18256A1E372AAC462AD8626859
:103F9000D20727D4666966B1B208D4E9027E57B168
:103FA000BEF15B0F02D9246904B1EEB9059807B0E0
:103FB000F0BD8022F1E7BEF1000FF7D12469002C9B
:103FC000F4D105ACCDE900C492B200F02AFD01287D
:103FD0001CBF00230593E9E74FF0180C80220DF178
:103FE0001301EEE70020E2E7CDE90147009500F07C
:103FF000E1FC0590DAE700BFF402002008B5EFF31A
:10400000058313B16FF0050008BDEFF31083002B9B
:10401000F8D1074B1B68022B03D1EFF31183002B60
:10402000F0D10028F0D000F07FFE0020ECE700BFC8
:10403000F4020020034B0360034B0B6080231360EA
:10404000704700BF9802002098000020034B0360D7
:10405000034B0B604FF4807313607047F806002029
:10406000F80200204FF0FF3200F10803C0E90223FC
:1040700043600361002303607047002303617047BE
:1040800043689A684B608A609A68516099600368D7
:10409000086101330360704730B50C68631C0AD1B6
:1040A00003695A684A6091608B60596003680861CF
:1040B0000133036030BD00F10802134652681568F1
:1040C000A542FAD9EDE70369D0E901128A6051608F
:1040D0005968814208BF5A60002202611A68013A99
:1040E0001A601868704710B5044601F0DBF9A46B3C
:1040F00001F0FAF9B4FA84F0400910BDF8B515469C
:10410000026C0446866B52B9076847BB406800F0F2
:1041100043FF0546676001362846A663F8BD65B9CA
:10412000806801F04DFDA368226C13446268A360AF
:104130009342F0D32368A360EDE7C06801F040FD2F
:10414000226CE36851429B1A2268E36093423EBFAF
:1041500063685B18E360022D01D116B1013E0025B2
:10416000D9E73546D7E703461A6C084610B462B162
:10417000DC68596814448C4228BF1968DC6028BF89
:10418000D960D96810BC01F01BBD10BC704770B578
:10419000044601F087F994F8455004F124066DB205
:1041A000002D14DCFF2384F8453001F09DF901F067
:1041B00079F994F8445004F110066DB2002D12DC28
:1041C000FF2384F84430BDE8704001F08DB9636A84
:1041D000002BE7D0304600F041FE08B100F0C6FEEB
:1041E000013D6DB2DCE72369002BE9D0304600F0D9
:1041F00035FE08B100F0BAFE013D6DB2DEE7000009
:1042000038B50D46044640B94FF0500383F311888A
:10421000BFF36F8FBFF34F8FFEE701F043F9D4E98F
:104220000F314B432268D0185B1A13446060E3607F
:104230000020FF23A063A26084F8443084F8453056
:1042400095B9236963B104F1100000F007FE38B19D
:104250004FF08052094B1A60BFF34F8FBFF36F8F3F
:1042600001F042F9012038BD04F11000FFF7FAFE19
:1042700004F12400FFF7F6FEF2E700BF04ED00E0D2
:1042800037B50D461C4640B94FF0500383F31188F3
:10429000BFF36F8FBFF34F8FFEE743B94FF050036B
:1042A00083F31188BFF36F8FBFF34F8FFEE74AB1DF
:1042B00091B94FF0500383F31188BFF36F8FBFF3B1
:1042C0004F8FFEE741B14FF0500383F31188BFF3E6
:1042D0006F8FBFF34F8FFEE750230193019B502B4D
:1042E00008D04FF0500383F31188BFF36F8FBFF3F3
:1042F0004F8FFEE70121002D08BF2246C4E90F05BC
:1043000084F8461020462260FFF77AFF20469DF889
:10431000183084F84C3003B030BD00002DE9FF4761
:1043200088461F460446019240B94FF0500383F37C
:104330001188BFF36F8FBFF34F8FFEE751B9036C46
:1043400043B14FF0500383F31188BFF36F8FBFF376
:104350004F8FFEE7022F0BD1E36B012B08D04FF0FC
:10436000500383F31188BFF36F8FBFF34F8FFEE7C6
:1043700000F002FE064650B9019B4BB14FF05003CE
:1043800083F31188BFF36F8FBFF34F8FFEE70026D3
:104390004FF00009DFF8E4A037E0019D1DB901F0FE
:1043A000A3F8002050E016B902A800F097FD01F034
:1043B0009BF800F0A7FB01F075F894F84430FF2B50
:1043C00008BF84F8449094F84530FF2B08BF84F868
:1043D000459001F089F801A902A800F08BFD0028A2
:1043E00046D101F05FF8A26BE36B9A422FD101F046
:1043F0007BF8019904F1100000F0F6FC2046FFF76D
:10440000C6FE00F01DFC50B3012601F04BF8A26B74
:10441000E36B9A4201D3022FBFD13A464146204670
:10442000FFF76CFE636A1BB104F1240000F016FD77
:1044300038B14FF08052114B1A60BFF34F8FBFF36A
:104440006F8F01F051F8012004B0BDE8F08701F052
:104450004BF82046FFF79BFE00F0F2FBD4E74FF04D
:104460008053CAF80030BFF34F8FBFF36F8FCBE795
:104470002046FFF78CFE00F0E3FB92E704ED00E03E
:104480002DE9F843894690461F46044640B94FF04F
:10449000500383F31188BFF36F8FBFF34F8FFEE795
:1044A00051B9036C43B14FF0500383F31188BFF34C
:1044B0006F8FBFF34F8FFEE7022F0BD1E36B012B02
:1044C00008D04FF0500383F31188BFF36F8FBFF311
:1044D0004F8FFEE701F0C6F8EFF311864FF050035F
:1044E00083F31188BFF36F8FBFF34F8FA26BE36B22
:1044F0009A4201D3022F22D194F845503A464946B8
:1045000020466DB2FFF7FAFD6B1C13D1636A0BB93D
:1045100001200BE004F1240000F0A0FC0028F7D0FB
:10452000B8F1000FF4D00120C8F8000086F311881C
:10453000BDE8F88301356DB284F84550E8E7002006
:10454000F4E700002DE9F04385B00F4604460192E0
:1045500040B94FF0500383F31188BFF36F8FBFF35F
:104560004F8FFEE751B9036C43B14FF0500383F313
:104570001188BFF36F8FBFF34F8FFEE700F0FCFC95
:10458000064650B9019B4BB14FF0500383F311889D
:10459000BFF36F8FBFF34F8FFEE700264FF0000889
:1045A000DFF8DC903BE0019D1DB900F09DFF00208D
:1045B00052E016B902A800F091FC00F095FF00F05F
:1045C000A1FA00F06FFF94F84430FF2B08BF84F885
:1045D000448094F84530FF2B08BF84F8458000F0F4
:1045E00083FF01A902A800F085FC00283DD12046E8
:1045F000FFF779FD98B3019904F1240000F0F4FB72
:104600002046FFF7C4FD00F01BFB38B94FF0805384
:10461000C9F80030BFF34F8FBFF36F8F012600F052
:1046200041FFA56B002DBED039462046013DFFF766
:104630009AFDA563236963B104F1100000F00EFC3C
:1046400038B14FF080520E4B1A60BFF34F8FBFF35B
:104650006F8F00F049FF012005B0BDE8F0832046D0
:10466000FFF795FD00F0ECFAD8E72046FFF78FFD45
:1046700000F0E6FA2046FFF736FD0028CED096E798
:1046800004ED00E0002330B5064A52F8335002EB47
:10469000C3041DB942F83310606030BD0133082BEC
:1046A000F3D1FAE7B027002070B504460D46164650
:1046B00000F0F8FE94F84430FF2B04BF002384F888
:1046C000443094F84530FF2B04BF002384F8453074
:1046D00000F00AFFA36B2BB93246294604F12400EF
:1046E00000F09CFB2046BDE87040FFF750BD000085
:1046F0002DE9F041044600F0D5FE2F4B2F4D1A68EE
:104700002F4F01321A602E68002E49D12C601B6891
:10471000012B1FD1B84640460136FFF7A3FC382EC7
:1047200008F11408F7D1DFF8C480264E4046FFF7A1
:1047300099FC3046FFF796FC2348FFF793FC23488B
:10474000FFF790FC2248FFF78DFC224BC3F8008056
:10475000214B1E601420214A136801331360204A44
:1047600063641168E36A8B4200FB037004F1040187
:1047700088BF1360FFF784FC00F0B6FE194B1B687E
:1047800063B12B68DA6AE36A9A4207D24FF080522B
:10479000154B1A60BFF34F8FBFF36F8FBDE8F081E9
:1047A000104B1B68002BD5D12B68DA6AE36A9A425A
:1047B00098BF2C60CEE700BFC00B0020540700203C
:1047C00060070020EC0B0020080C0020340C0020B7
:1047D000200C0020580700205C070020D00B002090
:1047E000D40B00201C0C002004ED00E0D80B0020AE
:1047F000064A13681968064B19B94FF0FF321A6060
:1048000070471268D268D2685268F8E758070020EB
:10481000000C00202DE9F0470D46DDE909844FEA40
:1048200082094A460646A521206B1F4601F0D6F9AB
:10483000226BA9F1040991446B1E29F0070904F1C8
:1048400034020F3513F8011F02F8011B197809B162
:10485000AB42F7D1089D4FF0000A372D28BF37250E
:10486000201DC4E9135AE56284F843A0FFF705FC54
:10487000C5F1380504F11800FFF7FFFBC4F854A098
:104880003A46314648462461A561646284F858A0DE
:1048900000F0DEFD2060B8F1000F01D0C8F8004044
:1048A000BDE8F08710B590F8593004463BB9006B6D
:1048B00000F0B4FF2046BDE8104000F0AFBF012B70
:1048C000F9D0022B08D04FF0500383F31188BFF3C7
:1048D0006F8FBFF34F8FFEE710BD000080B5DFF88C
:1048E0005C80124F124C134D236863B9124B1B6846
:1048F000012BF8D94FF08053C8F80030BFF34F8F29
:10490000BFF36F8FEEE700F0CDFDFB68DE68301D72
:10491000FFF7D9FB2B68013B2B602368013B236029
:1049200000F0E2FD3046FFF7BDFFDDE7340C00206C
:10493000C40B0020C00B00206007002004ED00E045
:10494000F8B50546154B164E1C6830680F46043006
:10495000FFF7B9FB6B1C334607D137B131681148FB
:104960000431BDE8F840FFF78BBB1A686419546046
:1049700007D30D4A10681968BDE8F8400431FFF705
:104980008BBB0A4A106819680431FFF785FB084B96
:104990001A68A24288BF1C60F8BD00BF480C002006
:1049A00054070020200C00205C070020580700203E
:1049B000000C002070B586B0DDE90B5445B94FF00E
:1049C000500383F31188BFF36F8FBFF34F8FFEE760
:1049D00044B94FF0500383F31188BFF36F8FBFF3D7
:1049E0004F8FFEE75C260496049E5C2E08D04FF0A5
:1049F000500383F31188BFF36F8FBFF34F8FFEE730
:104A00002563022584F8595005AD01950A9D02944D
:104A10000095FFF7FFFE2046FFF76AFE059806B0F7
:104A200070BD2DE9F043074685B0900088461646D4
:104A3000994600F069FE0546E8B15C2000F064FE8E
:104A40000446A8B1002380F859300D9B05630193FB
:104A50000C9B324641460290009338464B46FFF786
:104A6000D9FE2046FFF744FE012005B0BDE8F083E3
:104A7000284600F0D3FE4FF0FF30F6E710B50024D3
:104A800088B007AA06A905A8CDE90544FFF7D2FA20
:104A9000059B079A0293069B1549CDE900431548EB
:104AA0002346FFF787FFA8B100F00AFB012813D1C6
:104AB0004FF0500383F31188BFF36F8FBFF34F8F15
:104AC0004FF0FF320C4B1A600C4B18600C4B1C6003
:104AD00000F070FD08B010BD0130FBD14FF0500365
:104AE00083F31188BFF36F8FBFF34F8FFEE700BFD3
:104AF00021660008DD480008000C00201C0C002086
:104B0000480C0020024A136801331360704700BF4D
:104B1000CC0B0020014B1868704700BF480C0020E8
:104B20002DE9F84F3B4B1B68002B6DD13A4B1D68AC
:104B300001351D60BDB9394B1A68126842B14FF09A
:104B4000500383F31188BFF36F8FBFF34F8FFEE7DE
:104B5000334A1968106818601160324A13680133CB
:104B60001360FFF745FE304E002433682F4FAB42F1
:104B700010D92F4B1B68DA6A14235343FB58022BBE
:104B800028BF01242B4B1B68002B0CBF20460120A3
:104B9000BDE8F88FDFF88490DFF8A0A0D9F80030E6
:104BA0001B681BB94FF0FF333360E2E7D9F80030E0
:104BB000DB68D3F80CB0DBF80420954201D23260F8
:104BC000D7E70BF104084046FFF77DFADBF8282011
:104BD0001AB10BF11800FFF776FA1423DBF82C005A
:104BE000DAF800204146904288BFCAF8000003FB73
:104BF0000070FFF745FA0E4BDBF82C201968CB6AE2
:104C00009A4228BF0124C9E70B4A002413680133E4
:104C10001360B7E7CC0B0020480C00205807002099
:104C20005C070020040C0020000C0020600700201E
:104C3000540700204C0C0020C80B0020D40B00208F
:104C40002DE9F0412F4C236843B94FF0500383F313
:104C50001188BFF36F8FBFF34F8FFEE700F022FC88
:104C60002368013B236024682CB1002400F03CFC45
:104C70002046BDE8F081244B1B68002BF5D0234D66
:104C8000234EDFF8A0801DE0EB68DC68271D04F1EF
:104C90001800FFF718FA3846FFF715FA1420E36AF0
:104CA000326800FB03809342394688BF3360FFF7C8
:104CB000E7F9184BE26A1B68DB6A9A4202D30122C9
:104CC000154B1A602B68002BDED10CB1FFF790FD5D
:104CD000124D2C6844B101270F4EFFF721FF00B1A0
:104CE0003760013CF9D12C600B4B1B68002BBCD00A
:104CF0004FF080520A4B1A60BFF34F8FBFF36F8F94
:104D00000124B3E7CC0B0020C00B0020080C0020CE
:104D1000D40B0020540700204C0C0020C80B0020AE
:104D200004ED00E06007002008B540B94FF0805264
:104D30000D4B1A60BFF34F8FBFF36F8F08BD0B4B46
:104D4000196841B14FF0500383F31188BFF36F8F9F
:104D5000BFF34F8FFEE7FFF7D5FEFFF7F1FDFFF73B
:104D60006FFF0028E2D0E9E704ED00E0CC0B002063
:104D7000184BF0B51A68184B12B101221A60F0BD39
:104D80001A60164A14271646154D2B6807FB03F1C7
:104D90005458501894B14468083164680A449442E5
:104DA00008BF6268446008BF4260142202FB0362CD
:104DB0005268D1680B4A11602B60E0E743B94FF0AD
:104DC000500383F31188BFF36F8FBFF34F8FFEE75C
:104DD000013BDBE7CC0B00204C0C002060070020DF
:104DE000D40B00205407002010B50C4640B94FF0FA
:104DF000500383F31188BFF36F8FBFF34F8FFEE72C
:104E0000054B19681831FFF747F92046BDE81040F7
:104E10000121FFF795BD00BF5407002038B50D46AE
:104E2000144640B94FF0500383F31188BFF36F8FDE
:104E3000BFF34F8FFEE7084B19681831FFF720F9D1
:104E4000002C214608BF2846BDE8384018BF4FF067
:104E5000FF30FFF775BD00BF5407002038B5C368A9
:104E6000DC6844B94FF0500383F31188BFF36F8FB0
:104E7000BFF34F8FFEE704F118052846FFF723F92B
:104E8000104B1B68DBB9251D2846FFF71CF90E4A9D
:104E900014201168E36A8B42294688BF13600B4ACD
:104EA00000FB0320FFF7ECF8094BE26A1B68DB6AA2
:104EB0009A4285BF0120074B0020186038BD294663
:104EC0000548EFE7CC0B0020D40B00206007002042
:104ED000540700204C0C0020080C0020034B1B68DA
:104EE0000360034B1B684360704700BF040C002045
:104EF000480C002070B50C46054640B94FF05003F1
:104F000083F31188BFF36F8FBFF34F8FFEE741B973
:104F10004FF0500383F31188BFF36F8FBFF34F8FB0
:104F2000FEE700F0BFFA0F4B196823685A1C10D037
:104F30000D482E6800686A68864201D08A420FD9FF
:104F4000881A83420AD95B1A134428462360FFF764
:104F5000C5FF002400F0C8FA204670BD002323607E
:104F60000124F7E7480C0020040C00200122014B2B
:104F70001A6070474C0C0020054B1B6833B1054B81
:104F80001B68002B0CBF02200020704701207047D7
:104F90001C0C0020CC0B002038B508B9002038BD0F
:104FA0001B4B1C68844208D04FF0500383F31188D8
:104FB000BFF36F8FBFF34F8FFEE7236D43B94FF001
:104FC000500383F31188BFF36F8FBFF34F8FFEE75A
:104FD000E16AE26C013B91422365DFD0002BDDD119
:104FE000251D2846FFF76FF81420E36CC3F1380243
:104FF000A261084AE36211688B4288BF1360064AC7
:10500000294600FB0320FFF73BF80120C7E700BF5C
:1050100054070020D40B002060070020F7B5114C86
:1050200000F040FA2568BDB90F4F104E3846FFF723
:1050300019F83046FFF716F80D4B10211F600D4B85
:105040000A201E600C4A0D4B0095FFF719F92060ED
:1050500010B10B49FFF716FB03B0BDE8F04000F0BC
:1050600043BA00BF740D0020F80C00200C0D002086
:10507000500C0020540C0020580C0020240D00205F
:1050800026660008914208B5416000610AD8D21A2C
:1050900083699A420DD2084B011D1868FEF7FCFF88
:1050A000002008BD9A4201D2994202D2034B011D51
:1050B000F3E70120F5E700BF540C0020500C00205E
:1050C00010B588B0FFF7AAFF124B1B68B3B10024DC
:1050D00007AA06A905A8CDE90544FEF7B7FF059B79
:1050E000079A0293069B0C49019302230B480093F5
:1050F0002346FFF75FFC0A4B186040B94FF050039E
:1051000083F31188BFF36F8FBFF34F8FFEE701204A
:1051100008B010BD740D00202B660008F95100087E
:10512000780D00207FB5164604461A4640B94FF068
:10513000500383F31188BFF36F8FBFF34F8FFEE7E8
:105140000D4D286880B10529CDE9001602940DDCCB
:10515000FFF712FF0023022818BF1A46694608BF4E
:10516000089A2868FFF7DAF804B070BD0023694692
:10517000FFF786F9F8E700BF740D00202DE9F34131
:105180004FF000081A4D2B681A6832B9194A116895
:105190001360296002B0BDE8F081DB68DC681E683E
:1051A000271D3846FEF78FFF636A20469847E3695C
:1051B000012BE8D1A36933449E4206D239462868C0
:1051C00063602461FEF768FFDDE70023324619467D
:1051D0002046CDF80080FFF7A5FF0028D3D14FF07F
:1051E000500383F31188BFF36F8FBFF34F8FFEE738
:1051F000500C0020540C00202DE9F04F774EDFF8C2
:10520000EC91B04687B03368D3F800B0BBF1000F23
:1052100048D0DB68D3F800A0FFF774FCFFF77AFCF6
:105220006F4D04462B682F4698423DD2FFF7A6FFEC
:105230002C60FFF705FD4FF0000BDFF8ACA100225A
:10524000DAF8000002A9FFF77DF90028DBD0029B05
:105250000498002B72DB049C6369002B76D1FFF766
:1052600059FC3B680546984201D2FFF787FF029B35
:105270003D60092BE3D801A252F823F055530008F2
:1052800055530008555300083F520008A353000827
:10529000C953000855530008555300083F520008F1
:1052A000A3530008DA46B7E72860BBF1000F2AD005
:1052B000824541D8FFF7C4FCD8F80030DB68DD68D0
:1052C000281DFEF700FFEB69012B18D1A969534691
:1052D000224628465144FFF7D5FE80B100235246AE
:1052E000194628460093FFF71DFF40B94FF05003C1
:1052F00083F31188BFF36F8FBFF34F8FFEE728460C
:105300006B6A984797E7374B1B681A68B2FA82F2C4
:105310005209354BAAEB04011868FFF7C5F9FFF7EE
:105320008FFC002887D14FF08053C9F80030BFF3BD
:105330004F8FBFF36F8F7EE70022EAE7039B05994B
:105340009847029B002BFFF67AAF84E7201DFEF7FB
:10535000BAFE84E7A169039B2A4620461944FFF759
:1053600091FE00283FF46BAF636A20469847E369DB
:10537000012B7FF464AF0023A269039920460A44FD
:10538000CDF800B01946FFF7CDFE00287FF457AFE7
:105390004FF0500383F31188BFF36F8FBFF34F8F2C
:1053A000FEE70399A16141B94FF0500383F31188DF
:1053B000BFF36F8FBFF34F8FFEE72B462A46204681
:1053C0002944FFF75FFE3AE794F82C30002B7FF476
:1053D00036AF204600F022FA31E700BF500C002023
:1053E000200D0020540C0020740D002004ED00E07E
:1053F00006480068006880F3088862B661B6BFF3AB
:105400004F8FBFF36F8F00DF00BF000008ED00E09B
:10541000002382B001930D4B1B68013308D04FF07D
:10542000500383F31188BFF36F8FBFF34F8FFEE7F5
:105430004FF0500383F31188BFF36F8FBFF34F8F8B
:10544000019B002BFCD002B0704700BF0C00002075
:105450004FF0807340F8043C054B21F0010140F807
:10546000081C40F80C3C40F8202C4038704700BF26
:1054700011540008000000000000000000000000BF
:10548000074B19680868B0E8F00F80F30988BFF38C
:105490006F8F4FF0000080F311884EF00D0E7047B3
:1054A000540700204FF0500383F31188BFF36F8F30
:1054B000BFF34F8F0A4A13680133012B13600DD1DC
:1054C000084B1B6813F0FF0F08D04FF0500383F315
:1054D0001188BFF36F8FBFF34F8FFEE7704700BF98
:1054E0000C00002004ED00E0084A136843B94FF0B7
:1054F000500383F31188BFF36F8FBFF34F8FFEE725
:10550000013B13600BB983F3118870470C00002036
:10551000EFF30980BFF36F8F0D4B1A6820E9F00F8E
:1055200010602DE908404FF0500080F31188FFF71C
:105530001FFC4FF0000080F31188BDE80840196897
:105540000868B0E8F00F80F30988BFF36F8F7047E9
:105550005407002008B54FF0500383F31188BFF3C0
:105560006F8FBFF34F8FFFF7DBFA18B14FF0805208
:10557000024B1A60002383F3118808BD04ED00E09C
:105580000023084A084913600B604FF47A71074BF7
:105590001B68B3FBF1F30649013B0B600723136063
:1055A000704700BF10E000E018E000E000000020BD
:1055B00014E000E013B5264B00211A78D2B2019214
:1055C000FF221A701B78234ADBB28DF803309DF856
:1055D000033003F05003137007231F4A13609DF834
:1055E00003005C1E00060CD411B1032B136011D014
:1055F0004FF0500383F31188BFF36F8FBFF34F8FCA
:10560000FEE79DF8033001215B00DBB28DF803302B
:105610002346E4E74FF4407300241360019B0C4AD7
:10562000DBB213700D4B1A6842F470021A601A68EC
:1056300042F070421A60FFF7A3FF094B1C60FFF7AE
:10564000D7FEFFF795FBFFF7E3FE204602B010BD43
:1056500000E400E07C0D0020800D002020ED00E043
:105660000C000020EFF305830F2B0ED9104A9B5C32
:10567000104A12789A4208D94FF0500383F31188E8
:10568000BFF36F8FBFF34F8FFEE70B4B0B4A1B68C7
:10569000126803F4E063934208D94FF0500383F398
:1056A0001188BFF36F8FBFF34F8FFEE7704700BFC6
:1056B000F0E300E07C0D00200CED00E0800D002008
:1056C00010B50F4B1A461B688342FBD3546811195F
:1056D000884201BF416810460919516044680119A8
:1056E0008B4207D1074909688B421FBF59681B6865
:1056F000091941609042036018BF106010BD00BFDF
:1057000094250020840D00202DE9F0410446FFF788
:10571000F9F93B4B3B481A689C46D2B900213A4AFA
:105720003A4B55071CBF073222F007021A60596036
:10573000374B23F00703C3E90011991AC2E900317E
:10574000CCF80030334B1960334B19604FF00043F5
:105750000360076827424ED1002C3FD004F10803B4
:1057600061071CBF23F007030833002B43D02A4AEC
:10577000166890469E423ED3244A1568696899424D
:1057800001D22868A8B9DCF80000A84233D0286804
:10579000C91A10291468106012D9E81842070BD0F2
:1057A0004FF0500383F31188BFF36F8FBFF34F8F18
:1057B000FEE72A460546E1E741606B60FFF780FFA0
:1057C0006B681449F61A1F4300230868C8F8006084
:1057D000864238BF0E6008346F602B60FFF730FAE6
:1057E00063070AD04FF0500383F31188BFF36F8F24
:1057F000BFF34F8FFEE70024F0E72046BDE8F081BD
:10580000840D002088250020880D0020942500208C
:1058100080250020902500208C25002010B504460E
:1058200070B3184A50F8043C1268134208D14FF084
:10583000500383F31188BFF36F8FBFF34F8FFEE7E1
:1058400050F8081C41B14FF0500383F31188BFF3A7
:105850006F8FBFF34F8FFEE723EA020340F8043C4B
:10586000FFF750F9084A54F8043C1168A4F1080005
:105870000B441360FFF724FFBDE81040FFF7E0B9C9
:1058800010BD00BF882500208C25002070B50A4679
:10589000044601B101224FF480711248FDF704F96A
:1058A0000825104E002220213046FDF7FDF8230682
:1058B0004CBF0122002240213046FDF7F5F8013DA2
:1058C000012220213046FDF7EFF8640015F0FF05B6
:1058D000E4B2E7D1BDE8704001224FF48071014885
:1058E000FDF7E2B80018014070B5B0240E4E00215B
:1058F0002046FFF7CBFF00210846FFF7C7FF002136
:105900001020FFF7C3FF002516F8350001210135EF
:10591000FFF7BCFF802DF7D10134E4B2B82C06F1BB
:105920000106E4D170BD00BFF0270020082300204D
:105930000749002201F832000132802AFAD1013BE6
:1059400013F0FF0301F10101F3D1FFF7CDBF00BF59
:10595000F0270020030630B513D43F2911D80123C6
:1059600001F00705094CC908C1F10701C5F1070598
:10597000C9B204EBC00003FA05F5435C12B12B4336
:10598000435430BD23EA0503FAE700BFF0270020A7
:105990002DE9F74FA2F1200598461E4BEDB203EB1F
:1059A000051300930C23824689460C4600271A4AA9
:1059B0009DF830B003FB05230193B84502D103B035
:1059C000BDE8F08FB8F10C0F0CBF019B009BDE5DB2
:1059D00004F10803DDB2330658BFBBFA8BF221464F
:1059E00004F101044CBF5A4652095046E4B2FFF795
:1059F000B1FFA4EB090276004245F6B207D14D464D
:105A00000AF101005FFA80FA2C460137D5E7A5427A
:105A1000E1D1F9E7A76A000833660008F7B5044644
:105A20000D460127561E16F8013F0BB903B0F0BD15
:105A30007A2C82BF1035EDB200243A2D03D900250F
:105A4000FFF774FF2C46009720460C232946327836
:105A50000834FFF79DFFE4B2E5E7000010B5FDF75D
:105A600031F8404B404C1A6A22F001021A621A6A5D
:105A700022F004021A62FDF72BF800228021204652
:105A8000FDF712F86420FCF773FB01222046802109
:105A9000FDF70AF80021AE20FFF7F8FE0021D5201F
:105AA000FFF7F4FE00215020FFF7F0FE0021A820B0
:105AB000FFF7ECFE00213F20FFF7E8FE0021D32096
:105AC000FFF7E4FE00210846FFF7E0FE002140203A
:105AD000FFF7DCFE00218D20FFF7D8FE0021142007
