:020000040800F2
:10000000000001207D190008AD180008B318000891
:10001000B9180008BF180008C51800080000000043
:10002000000000000000000000000000D173000884
:10003000CB18000800000000B1750008D7180008B0
:10004000C5190008C5190008C5190008C519000818
:10005000C5190008C5190008C5190008C519000808
:10006000C5190008C5190008C5190008C5190008F8
:10007000C5190008C5190008C5190008C5190008E8
:10008000C5190008C5190008C5190008C5190008D8
:10009000C5190008C5190008C5190008C5190008C8
:1000A000C5190008C5190008C5190008C5190008B8
:1000B000C5190008C5190008C5190008C5190008A8
:1000C000C5190008C5190008C5190008C519000898
:1000D000C5190008C5190008C5190008F11800085D
:1000E000C5190008C5190008C5190008C519000878
:1000F000C5190008C5190008C5190008C519000868
:10010000C5190008C5190008C5190008C519000857
:10011000C5190008C5190008C5190008C519000847
:10012000C5190008C5190008C5190008C519000837
:1001300000000000000000000000000000000000BF
:1001400000000000000000000000000000000000AF
:10015000000000000000000000000000000000009F
:10016000000000000000000000000000000000008F
:10017000000000000000000000000000000000007F
:10018000000000000000000000000000000000006F
:10019000000000000000000000000000000000005F
:1001A000000000000000000000000000000000004F
:1001B000000000000000000000000000000000003F
:1001C000000000000000000000000000000000002F
:1001D000000000000000000000000000000000001F
:0401E0005FF8E0F1F3
:1001F00010B5054C237833B9044B13B10448AFF361
:1002000000800123237010BD740000200000000056
:10021000E487000808B5034B1BB103490348AFF35B
:10022000008008BD0000000078000020E48700087E
:1002300080B500AF01F0C8FB00F066F800F04CFBA1
:1002400000F076FA00F02EF900F0CAF900F01AFB7F
:1002500000F01AFA00F0AAF800F0E6F807F0CAFD7C
:1002600005221849184804F0E7FA04F047FF174A36
:100270000021174804F0A8FF0346164A1360164AE7
:100280000021164804F0A0FF0346154A1360154AE2
:100290000021154804F098FF0346144A1360144ADD
:1002A0000021144804F090FF0346134A1360134AD8
:1002B0000021134804F088FF0346124A136004F03B
:1002C0004FFFFEE75027002000260020AC880008E2
:1002D000B1090008B0250020D0880008C10D000831
:1002E00074260020F488000839110008B425002085
:1002F00018890008C91100087C2600203C890008E4
:100300007D130008FC26002080B596B000AF07F1F1
:10031000300328220021184607F030FE07F11C03A5
:1003200000221A605A609A60DA601A613B1D00224E
:100330001A605A609A60DA601A615A6102233B635C
:1003400001233B6410237B640023FB6407F130032B
:10035000184602F02BFC0346002B01D001F068F890
:100360000F23FB6100233B6200237B620023BB62FF
:100370000023FB6207F11C030021184602F096FEE1
:100380000346002B01D001F053F802237B600023C9
:10039000FB603B1D184603F023F80346002B01D0F9
:1003A00001F046F800BF5837BD4680BD80B584B027
:1003B00000AF3B1D00221A605A609A60184B194A20
:1003C0001A60174B00229A60154B00221A73144BC7
:1003D00000221A75124B4FF46022DA61104B002292
:1003E0005A600F4B01221A610D4801F073FB03465E
:1003F000002B01D001F01CF80B237B600123BB60B4
:100400000023FB603B1D1946054801F00DFE034625
:10041000002B01D001F00CF800BF1037BD4680BDA5
:10042000C82600200024014080B584B000AF3B1DE9
:1004300000221A605A609A60184B194A1A60174BCA
:1004400000229A60154B00221A73144B00221A7571
:10045000124B4FF46022DA61104B00225A600F4BAE
:1004600001221A610D4801F035FB0346002B01D033
:1004700000F0DEFF0C237B600123BB600023FB60E8
:100480003B1D1946054801F0CFFD0346002B01D066
:1004900000F0CEFF00BF1037BD4680BD44260020CF
:1004A0000028014080B596B000AF07F14803002254
:1004B0001A605A609A60DA6007F1400300221A60FD
:1004C0005A6007F1240300221A605A609A60DA60C9
:1004D0001A615A619A613B1D20220021184607F0DB
:1004E0004DFD3D4B3D4A1A603B4BA0225A603A4BB2
:1004F00000229A60384B4FF47A72DA60364B002251
:100500001A61354B00225A61334B80229A6132487E
:1005100003F002F90346002B01D000F089FF4FF4ED
:100520008053BB6407F1480319462B4803F044FC91
:100530000346002B01D000F07BFF274803F03BF976
:100540000346002B01D000F073FF00233B6400231F
:100550007B6407F1400319461F4803F0D1FF0346AF
:10056000002B01D000F064FF60237B620023BB629C
:100570000023FB6200237B630023BB630023FB6338
:1005800007F124030C221946134803F057FB0346D6
:10059000002B01D000F04CFF00237B600023BB60E8
:1005A0000023FB6000233B6100237B614FF4005379
:1005B000BB6100233B623B1D1946074804F00CF861
:1005C0000346002B01D000F033FF034801F0BEF8D2
:1005D00000BF5837BD4680BD04270020002C0140D5
:1005E00080B58CB000AF07F10C032422002118461F
:1005F00007F0C4FC3B1D00221A605A60214B4FF0EB
:1006000080421A601F4B00225A601E4B00229A60E3
:100610001C4B4FF6FF72DA601A4B00221A61194B1D
:1006200000229A610323FB6000233B6101237B616D
:100630000023BB610A23FB6100233B6201237B6231
:100640000023BB620023FB6207F10C0319460D482F
:1006500003F0C4F90346002B01D000F0E9FE0023AB
:100660007B600023BB603B1D1946064803F048FF32
:100670000346002B01D000F0DBFE00BF3037BD4643
:1006800080BD00BF6427002080B58CB000AF07F1AB
:100690000C0324220021184607F070FC3B1D0022A9
:1006A0001A605A60204B214A1A601F4B00225A6080
:1006B0001D4B00229A601C4B4FF6FF72DA601A4BFA
:1006C00000221A61184B00229A610323FB60002369
:1006D0003B6101237B610023BB610A23FB61002393
:1006E0003B6201237B620023BB620A23FB6207F1AA
:1006F0000C0319460C4803F071F90346002B01D096
:1007000000F096FE00237B600023BB603B1D194672
:10071000054803F0F5FE0346002B01D000F088FEEB
:1007200000BF3037BD4680BD802600200004004059
:1007300080B596B000AF07F1480300221A605A60F6
:100740009A60DA6007F1400300221A605A6007F1EC
:10075000240300221A605A609A60DA601A615A61B2
:100760009A613B1D20220021184607F007FC434BED
:10077000434A1A60414B00225A60404B00229A6063
:100780003E4B41F61F42DA603C4B00221A613B4B64
:1007900000225A61394B00229A61384802F0BCFFAE
:1007A0000346002B01D000F043FE4FF48053BB649E
:1007B00007F148031946314803F0FEFA0346002BBF
:1007C00001D000F035FE2D4802F0F5FF0346002B66
:1007D00001D000F02DFE00233B6400237B6407F171
:1007E00040031946254803F08BFE0346002B01D039
:1007F00000F01EFE60237B620023BB620023FB62CD
:1008000000233B6300237B630023BB630023FB6364
:1008100007F1240300221946184803F00FFA034693
:10082000002B01D000F004FE07F124030422194636
:10083000124803F003FA0346002B01D000F0F8FD44
:1008400000237B600023BB600023FB6000233B612F
:1008500000237B614FF40053BB6100233B623B1DCF
:100860001946064803F0B8FE0346002B01D000F0FD
:10087000DFFD00BF5837BD4680BD00BFB825002052
:100880000034014080B500AF114B124A1A60104B82
:100890004FF4E1325A600E4B00229A600C4B00225A
:1008A000DA600B4B00221A61094B0C225A61084B8B
:1008B00000229A61064B0022DA61054803F0DDFE52
:1008C0000346002B01D000F0B3FD00BF80BD00BF88
:1008D000002600200048004080B588B000AF07F136
:1008E000100300221A605A609A60DA602D4B9B69EF
:1008F0002C4A43F0400393612A4B9B6903F0400369
:10090000FB60FB68274B9B69264A43F01003936109
:10091000244B9B6903F01003BB60BB68214B9B69B0
:10092000204A43F0040393611E4B9B6903F00403C8
:100930007B607B681B4B9B691A4A43F008039361F9
:10094000184B9B6903F008033B603B6800224FF49F
:10095000BC61154802F0E0F800223C21134802F087
:10096000DBF84FF4BC633B6101237B610023BB6177
:100970000223FB6107F1100319460B4801F038FF11
:100980003C233B6101237B610023BB610323FB61AB
:1009900007F110031946054801F02AFF00BF203770
:1009A000BD4680BD00100240001801400008014013
:1009B00080B584B000AF78604123FB7307F10F016D
:1009C0004FF6FF7301220B4803F0A4FEFB7B592B6B
:1009D00004D8FB7B0133DBB2FB7301E04123FB73E3
:1009E0004FF48061044802F0AFF841F2883004F01F
:1009F00095FCE3E7002600200018014080B582B096
:100A000000AF0023FB800023BB800122042110489B
:100A100002F082F8012220210D4802F07DF8002228
:100A200008210B4802F078F800221021084802F053
:100A300073F8084B1B68FA885A63064B1B68BA8820
:100A40009A63012004F06AFC00BF0837BD4680BDF0
:100A500000080140B825002080B582B000AF284BC7
:100A60001B6859221A6440F6C413FB80C823BB805C
:100A700001220421234802F04FF8012220212148BD
:100A800002F04AF8002208211E4802F045F8002230
:100A900010211C4802F040F81B4B1B68FA885A636F
:100AA000194B1B68BA889A6340F6E44004F036FCA0
:100AB00000237B8000233B8001220421114802F0A7
:100AC0002BF8012220210F4802F026F800220821ED
:100AD0000C4802F021F8002210210A4802F01CF80C
:100AE000094B1B687A885A63074B1B683A889A63DC
:100AF000034B1B684A221A6400BF0837BD4680BDFD
:100B00000427002000080140B825002080B582B0ED
:100B100000AF4FF46173FB804FF46173BB8001221F
:100B20000421364801F0F8FF01222021334801F06A
:100B3000F3FF00220821314801F0EEFF00221021CE
:100B40002E4801F0E9FF2E4B1B68FA885A632C4BA4
:100B50001B68BA889A6340F2DC5004F0DFFBC823BC
:100B6000FB8040F6FC03BB80254B1B68FA885A6368
:100B7000234B1B68BA889A63224B1B6839221A647C
:100B800040F6980004F0CAFB1E4B1B684A221A6408
:100B90004FF46173FB804FF46173BB80184B1B688B
:100BA000FA885A63164B1B68BA889A634FF42F7001
:100BB00004F0B4FB00237B8000233B80012204214E
:100BC0000E4801F0A9FF012220210C4801F0A4FFEA
:100BD00000220821094801F09FFF00221021074848
:100BE00001F09AFF064B1B687A885A63044B1B6816
:100BF0003A889A6300BF0837BD4680BD00080140AF
:100C0000B82500200427002080B500AF264B4FF404
:100C100096621A80254B40F2B2221A80224B1A8823
:100C2000224B1B889A4206D1214B1B8801339AB272
:100C30001F4B1A8014E01F4B1B78002B08D01A4B57
:100C40001A881D4B1B88D31A9AB2174B1A8007E0DB
:100C5000164B1A88184B1B88D31A9AB2134B1A805A
:100C600001220421154801F057FF012220211348D9
:100C700001F052FF00220821104801F04DFF002230
:100C800010210E4801F048FF074B1A880C4B1B68D7
:100C90005A63064B1A880A4B1B689A63012004F0BA
:100CA0003DFB00BF80BD00BFAC2700200027002017
:100CB00092000020900000209400002000080140D5
:100CC000B825002080B500AF244B4FF448721A803D
:100CD000234B4FF416721A80204B1A88204B1B8826
:100CE0009A4206D11F4B1B8801339AB21D4B1A80C2
:100CF00014E01D4B1B78002B08D0184B1A881B4B97
:100D00001B88D31A9AB2154B1A8007E0144B1A8825
:100D1000164B1B88D31A9AB2114B1A800022042159
:100D2000134801F0F9FE01220821114801F0F4FEF8
:100D30000A4B1A880F4B1B685A63002220210C486B
:100D400001F0EAFE01221021094801F0E5FE044B02
:100D50001A88084B1B689A6300BF80BDAC2700202F
:100D60000027002092000020900000209400002026
:100D700000080140B825002080B400AF034B1B6879
:100D80004A221A6400BFBD4680BC70470427002079
:100D900080B400AF034B1B6839221A6400BFBD4604
:100DA00080BC70470427002080B400AF034B1B6851
:100DB0005C221A6400BFBD4680BC70470427002037
:100DC00080B586B000AF78600023FB820023BB8231
:100DD00000237B820522C649C64803F02DFD002171
:100DE000C54802F041FD0421C34802F03DFD0C213D
:100DF000C24802F039FD0522BD49BE4803F01CFD82
:100E0000FB8ABB4AD25CFB8A92B25B0007F11801F5
:100E10000B4423F8102CFB8A052B01D10023FB8205
:100E2000FB8A5B0007F11802134433F8103C303B97
:100E3000472B00F27C8101A252F823F0A50F000895
:100E40002F1100082F1100082F1100082F11000882
:100E50002F1100082F1100082F1100082F11000872
:100E6000351000082F1100082F1100082F1100085D
:100E70002F1100082F1100082F1100082F11000852
:100E80002F1100082F1100082F1100082F11000842
:100E90002F1100082F1100082F1100082F11000832
:100EA0002F1100082F1100082F1100082F11000822
:100EB0002F1100082F1100082F1100082F11000812
:100EC0002F1100082F1100082F1100082F11000802
:100ED0002F1100082F1100082F110008AD10000875
:100EE0002F1100082F1100082F1100082F110008E2
:100EF0002F1100082F1100082F1100082F110008D2
:100F0000ED0F00082F1100082F1100081110000824
:100F10005D0F00082F1100082F1100082F11000885
:100F20002F1100082F1100082F1100082F110008A1
:100F30002F1100082F1100082F1100082F11000891
:100F4000810F00082F110008591000082F11000808
:100F50002F1100082F110008C90F0008FB8A644AEE
:100F60003E21D154FB8A5B0007F1180213443E2254
:100F700023F8102CFFF770FDFB8A0133FB82D6E0CB
:100F8000FB8A5B4A3C21D154FB8A5B0007F11802C3
:100F900013443C2223F8102CFFF7B8FDFB8A0133E1
:100FA000FB82C4E0FB8A524A2621D154FB8A5B00B3
:100FB00007F118021344262223F8102CFFF71EFD18
:100FC000FB8A0133FB82B2E0FB8A494A5E21D1549D
:100FD000FB8A5B0007F1180213445E2223F8102CF1
:100FE000FFF712FEFB8A0133FB82A0E0FB8A404A36
:100FF0004021D154FB8A5B0007F1180213444022C0
:1010000023F8102CFFF7C4FEFB8A0133FB828EE02D
:10101000FB8A374A2421D154FB8A5B0007F118026E
:101020001344242223F8102CFFF7BEFEFB8A013361
:10103000FB827CE0FB8A2E4A2D21D154FB8A5B0087
:1010400007F1180213442D2223F8102CFFF794FE09
:10105000FB8A0133FB826AE0FB8A254A5F21D15477
:10106000FB8A5B0007F1180213445F2223F8102C5F
:10107000FFF728FEFB8A0133FB8258E005221C495A
:101080001C4803F0D9FB1A4B5B789BB27B81184B51
:101090009B789BB2BB81164BDB789BB2FB81144BD8
:1010A0001B799BB23B823B8A582B03D03B89582B40
:1010B000E4D000E000BF7B89312B02D0322B1FD05F
:1010C00031E0BB89312B0AD1FFF79EFD33233B81F1
:1010D000074B33221A70FB8A013BFB8223E0BB895A
:1010E000322B0DD1FFF7EEFDFB8A0133FB821AE0B4
:1010F0005027002000260020B825002004270020CB
:10110000BB89312B05D1FFF7DDFDFB8A0133FB8263
:1011100009E0BB89322B05D1FFF776FDFB8A01334D
:10112000FB8200E000BFFB8A0133FB8200BF4FF46B
:101130007A7004F0F3F85EE690B58DB000AF786099
:101140001D4B07F11C040FCB07C4237007F12903C3
:1011500000221A60C3F80320174B07F108040FCBD5
:1011600007C4237007F1150300221A60C3F8032097
:1011700007F11C03114A1249184606F007FF07F150
:101180001C031A4628210A2006F002FE07F1080374
:101190000C4A0B49184606F0F9FE07F108031A46F7
:1011A0000A210A2006F0F4FD06F080FC4FF47A7064
:1011B00004F0B4F8DCE700BF4488000850270020A2
:1011C000348800083888000880B592B000AF786095
:1011D0003C21634802F0A4FC3C21624802F0A0FCE0
:1011E0005F4B1B685B6A7B645E4B1B685B6A3B649E
:1011F00000F042FCF86300F03FFC0246FB6BD31AA0
:10120000642B40F2A880564B1B685B6ABB63554B4E
:101210001B685B6A7B63524B1B681B6803F01003FF
:10122000102B17D1BA6B7B6C9A4208DA7B6C9AB29E
:10123000BB6B9BB2D31A9AB24B4B1A8021E07B6CEA
:101240009AB2BB6B9BB2D31A9BB2013B9AB2464B8C
:101250001A8016E0BA6B7B6C9A4208DDBB6B9AB2BF
:101260007B6C9BB2D31A9AB23F4B1A8009E0BB6BDE
:101270009AB27B6C9BB2D31A9BB2013B9AB23A4BA7
:101280001A80384B1B681B6803F01003102B17D112
:101290007A6B3B6C9A4208DA3B6C9AB27B6B9BB2DE
:1012A000D31A9AB2314B1A801BE03B6C9AB27B6B1B
:1012B0009BB2D31A9BB2013B9AB22C4B1A8010E01E
:1012C0007A6B3B6C9A4208DD7B6B9AB23B6C9BB2AB
:1012D000D31A9AB2254B1A8003E0244B4FF6FF72C3
:1012E0001A80214B1B881A4607F120032049184613
:1012F00006F04CFE1D4B1B881A4607F10C031C49D7
:10130000184606F043FE184B1A88184B1B889A4261
:101310000BD9154B1A88154B1B88D31A9AB2154B4B
:101320001A80154B01221A700AE0104B1A880E4BD6
:101330001B88D31A9AB20F4B1A800F4B00221A70D7
:10134000074B1B685B6A7B64064B1B685B6A3B64EC
:1013500000F092FBF863012003F0E0FF4BE700BFD1
:101360006427002080260020AE270020F8260020D9
:1013700058880008940000209000002080B58EB0AE
:1013800000AF7860274800F08FFC274800F08CFC05
:101390004FF0FF31234800F035FD4FF0FF31224878
:1013A00000F030FD1F4800F033FE0346FB861E4868
:1013B00000F02EFE0346BB86FB8E193344F2B902C1
:1013C00092FBF3F3DBB20B3B87F83330BB8E193360
:1013D00044F2B90292FBF3F3DBB20B3B87F83230F5
:1013E00097F8332007F11C031049184606F0CEFD8C
:1013F00007F11C031A4614210A2006F0C9FC97F8CD
:10140000322007F108030949184606F0BFFD07F12D
:1014100008031A461E210A2006F0BAFC012003F038
:101420007DFFAFE7C826002044260020648800081E
:1014300080B400AF72B600BFFEE7000080B584B094
:1014400000AF184B9B69174A43F001039361154B9A
:101450009B6903F00103BB60BB68124BDB69114A57
:1014600043F08053D3610F4BDB6903F080537B6003
:101470007B6800220F216FF0010001F040F80A4B59
:101480005B68FB60FB6823F0E063FB60FB6843F094
:101490008063FB60044AFB68536000BF1037BD46A1
:1014A00080BD00BF001002400000014080B58AB03E
:1014B00000AF786007F1180300221A605A609A6042
:1014C000DA607B681B68284A934222D1274B9B69CC
:1014D000264A43F400739361244B9B6903F4007321
:1014E0007B617B69214B9B69204A43F01003936128
:1014F0001E4B9B6903F010033B613B690223BB61F8
:101500000323FB6107F118031946194801F070F92C
:1015100026E07B681B68174A934221D1134B9B69D5
:10152000124A43F480639361104B9B6903F4806318
:10153000FB60FB680D4B9B690C4A43F01003936101
:101540000A4B9B6903F01003BB60BB680423BB61BB
:101550000323FB6107F118031946054801F048F918
:1015600000BF2837BD4680BD002401400010024066
:10157000001001400028014080B58AB000AF7860BB
:1015800007F1180300221A605A609A60DA607B68DB
:101590001B681E4A93420CD11D4B9B691C4A43F4A5
:1015A000006393611A4B9B6903F400637B617B6961
:1015B00028E07B681B68174A934223D1144B9B6930
:1015C000134A43F400539361114B9B6903F4005396
:1015D0003B613B690E4B9B690D4A43F010039361DD
:1015E0000B4B9B6903F01003FB60FB68C023BB61DE
:1015F0000223FB6102237B6207F1180319460648A8
:1016000001F0F6F800BF2837BD4680BD002C014030
:1016100000100240003401400010014080B58CB041
:1016200000AF786007F11C0300221A605A609A60CC
:10163000DA607B681B68B3F1804F4FD13E4BDB69AA
:101640003D4A43F00103D3613B4BDB6903F00103E7
:10165000BB61BB69384B9B69374A43F00403936114
:10166000354B9B6903F004037B617B69324B9B69BB
:10167000314A43F0080393612F4B9B6903F0080341
:101680003B613B694FF40043FB6100233B62002355
:101690007B6207F11C031946284801F0A9F80823CA
:1016A000FB6100233B6200237B6207F11C031946A8
:1016B000234801F09DF8234B5B68FB62FB6A23F42F
:1016C0004073FB62FB6A43F0E063FB62FB6A43F436
:1016D0008073FB621B4AFB6A536028E07B681B68CF
:1016E000194A934223D1144BDB69134A43F0020396
:1016F000D361114BDB6903F00203FB60FB680E4B07
:101700009B690D4A43F0040393610B4B9B6903F003
:101710000403BB60BB68C023FB6100233B62002362
:101720007B6207F11C031946044801F061F800BF11
:101730003037BD4680BD00BF0010024000080140A8
:10174000000C0140000001400004004080B588B05A
:1017500000AF786007F10C0300221A605A609A60AB
:10176000DA607B681B68194A93422AD1184B9B693F
:10177000174A43F040039361154B9B6903F0400304
:10178000BB60BB684FF48043FB6002233B610223D4
:10179000BB6107F10C0319460E4801F029F80E4B06
:1017A0005B68FB61FB6923F0C003FB61FB6943F0ED
:1017B000E063FB61FB6943F0C003FB61064AFB6920
:1017C000536000BF2037BD4680BD00BF002C0140E4
:1017D00000100240001801400000014080B58AB0AE
:1017E00000AF786007F1140300221A605A609A6013
:1017F000DA607B681B68294A93424BD1284BDB692E
:10180000274A43F48023D361254BDB6903F480230B
:101810003B613B69224B9B69214A43F01003936172
:101820001F4B9B6903F01003FB60FB684FF4806360
:101830007B610223BB6103233B6207F1140319465A
:10184000184800F0D5FF4FF400637B610023BB61B3
:101850000023FB6107F114031946124800F0C8FF8A
:10186000114B5B687B627B6A23F030037B627B6A8F
:1018700043F0E0637B627B6A43F010037B620A4AB9
:101880007B6A536000220521272000F038FE2720C4
:1018900000F051FE00BF2837BD4680BD0048004023
:1018A00000100240001001400000014080B400AF71
:1018B000FEE780B400AFFEE780B400AFFEE780B47F
:1018C00000AFFEE780B400AFFEE780B400AF00BF1A
:1018D000BD4680BC704780B500AF00F0BBF805F096
:1018E00029F90346012B01D005F086FE00BF80BD1B
:1018F00080B500AF024802F0CFFF00BF80BD00BF3F
:101900000026002080B586B000AF7860144A154BE1
:10191000D31A7B617B693B61134B1B68002B02D19F
:10192000114B124A1A60104B1A687B6813443A69CB
:101930009A4207D206F0EAFA03460C221A604FF0E8
:10194000FF3309E0084B1B68FB60074B1A687B6894
:101950001344054A1360FB6818461837BD4680BD1E
:10196000000001200004000098000020082C002046
:1019700080B400AF00BFBD4680BC70470C480D4925
:101980000D4A002302E0D458C4500433C4188C42DA
:10199000F9D30A4A0A4C002301E013600432A24240
:1019A000FBD3FFF7E5FF06F0B7FAFEF741FC7047FF
:1019B000000000207400002018940008740000202B
:1019C000042C0020FEE7000080B500AF084B1B6828
:1019D000074A43F010031360032000F085FD0F2039
:1019E00000F008F8FFF72AFD0023184680BD00BF6D
:1019F0000020024080B582B000AF7860124B1A68B8
:101A0000124B1B7819464FF47A73B3FBF1F3B2FB18
:101A1000F3F3184600F09DFD0346002B01D001238F
:101A20000EE07B680F2B0AD8002279684FF0FF3058
:101A300000F065FD064A7B681360002300E0012387
:101A400018460837BD4680BD000000200800002071
:101A50000400002080B400AF054B1B781A46054BEC
:101A60001B681344034A136000BFBD4680BC704727
:101A700008000020B027002080B400AF024B1B6894
:101A80001846BD4680BC7047B027002080B584B0A2
:101A900000AF7860FFF7F0FFB8607B68FB60FB6821
:101AA000B3F1FF3F05D00A4B1B781A46FB6813447D
:101AB000FB6000BFFFF7E0FF0246BB68D31AFA687D
:101AC0009A42F7D800BF00BF1037BD4680BD00BFA7
:101AD0000800002080B586B000AF78600023FB7559
:101AE00000233B610023BB600023FB607B68002B6D
:101AF00001D10123CEE07B689B68002B7B689B6A49
:101B0000002B09D17B680022DA627B68002283F80F
:101B100024207868FFF7CAFC786800F0D7FB0346FA
:101B2000FB757B689B6A03F01003002B40F0A980D3
:101B3000FB7D002B40F0A5807B689B6A23F48853D3
:101B400023F0020343F002027B689A627B685A68C2
:101B50007B681B6851498B420AD17B68DB69B3F50E
:101B6000402F02D07B68DB6904E04FF4002301E0E2
:101B70007B68DB691A437B681B7B5B001343BA6895
:101B80001343BB607B689B68B3F5807F03D07B68A1
:101B90009B68012B02D14FF4807300E000233A6967
:101BA00013433B617B681B7D012B19D17B681B7B39
:101BB000002B09D17B689B69013B5A033B691343A6
:101BC00043F400633B610BE07B689B6A43F02002B7
:101BD0007B689A627B68DB6A43F001027B68DA62A9
:101BE0007B681B685B6823F469417B681B683A6902
:101BF0000A435A607B681B689A68294B13407A68CD
:101C00001268B9680B4393607B689B68B3F5807F6B
:101C100003D07B689B68012B04D17B681B69013B67
:101C20001B05FB607B681B68DB6A23F470017B6823
:101C30001B68FA680A43DA627B681B689A68194B6A
:101C40001340BA689A420BD17B680022DA627B6843
:101C50009B6A23F0030343F001027B689A6218E059
:101C60007B689B6A23F0120343F010027B689A6240
:101C70007B68DB6A43F001027B68DA620123FB7553
:101C800007E07B689B6A43F010027B689A6201233D
:101C9000FB75FB7D18461837BD4680BD003C0140F2
:101CA000FDF7E1FFFE0E1FFF80B584B000AF786046
:101CB0000023FB737B6893F82430012B01D10223AE
:101CC00098E07B68012283F82420786800F0A4FA69
:101CD0000346FB73FB7B002B40F087807B689B6A8D
:101CE00023F4407323F0010343F480727B689A620B
:101CF0007B681B68414A934205D1414B5B6803F402
:101D00007023002B15D17B689B6A23F480127B68BB
:101D10009A627B681B685B6803F48063002B26D0A3
:101D20007B689B6A23F4405343F480527B689A6239
:101D30001DE07B689B6A43F480127B689A627B6833
:101D40001B682F4A934204D07B681B682B4A93423E
:101D50000DD12B4B5B6803F48063002B07D07B68AD
:101D60009B6A23F4405343F480527B689A627B68F9
:101D70009B6A03F48053002B06D07B68DB6A23F058
:101D800006027B68DA6202E07B680022DA627B6826
:101D9000002283F824207B681B686FF002021A601F
:101DA0007B681B689B6803F46023B3F5602F13D135
:101DB0007B681B68114A934205D1114B5B6803F4A1
:101DC0007023002B08D17B681B689A687B681B68AE
:101DD00042F4A0029A600CE07B681B689A687B68FA
:101DE0001B6842F480129A6003E07B68002283F84B
:101DF0002420FB7B18461037BD4680BD00280140DB
:101E00000024014090B587B000AF786039600023AE
:101E10007B610023FB6000233B61FFF72DFE7861AF
:101E20007B681B689B6803F48073002B0BD07B6876
:101E30009B6A43F020027B689A627B68002283F8E9
:101E400024200123D3E07B681B685B6803F4807364
:101E5000002B31D17B681B68DB6A03F47003002B15
:101E60002AD121E03B68B3F1FF3F1DD03B68002B36
:101E700007D0FFF701FE02467B69D31A3A689A42FF
:101E800012D27B681B681B6803F00203002B0BD186
:101E90007B689B6A43F004027B689A627B6800223D
:101EA00083F824200323A2E07B681B681B6803F0EF
:101EB0000203002BD6D070E04F4B1C68022001F0CB
:101EC00045FB0346B4FBF3F27B681B6819694B4B77
:101ED0000B40002B18D17B681B68D968484B0B401E
:101EE000002B11D17B681B681969464B0B40002BF6
:101EF00008D17B681B68D968434B0B40002B01D18C
:101F0000142320E029231EE07B681B6819693D4BE0
:101F10000B40002B06D17B681B68D9683A4B0B40FD
:101F2000002B0DD07B681B681969384B0B40002BC8
:101F300008D17B681B68D968344B0B40002B01D15A
:101F4000542300E0FC2302FB03F33B6121E03B68E8
:101F5000B3F1FF3F1AD03B68002B07D0FFF78CFD91
:101F600002467B69D31A3A689A420FD2FB683A69F3
:101F70009A420BD97B689B6A43F004027B689A62A1
:101F80007B68002283F82420032330E0FB680133C0
:101F9000FB60FB683A699A42D9D87B681B686FF08E
:101FA00012021A607B689B6A43F400727B689A6233
:101FB0007B681B689B6803F46023B3F5602F15D121
:101FC0007B681B7B002B11D17B689B6A23F480729A
:101FD0007B689A627B689B6A03F48053002B05D16F
:101FE0007B689B6A43F001027B689A620023184673
:101FF0001C37BD4690BD00BF00000020244992243C
:1020000024499200922449129224490049922400C2
:1020100080B483B000AF78607B681B68DB6C1846C7
:102020000C37BD4680BC704780B485B000AF786087
:1020300039600023FB730023BB607B6893F8243076
:10204000012B01D10223DCE07B68012283F82420EC
:102050003B685B68062B1CD87B681B68596B3B6828
:102060005A6813469B001344053B1F2202FA03F3F0
:10207000DB4319403B6818683B685A6813469B006D
:102080001344053B00FA03F27B681B680A435A635A
:102090003CE03B685B680C2B1CD87B681B68196BA9
:1020A0003B685A6813469B001344233B1F2202FAE5
:1020B00003F3DB4319403B6818683B685A681346D2
:1020C0009B001344233B00FA03F27B681B680A431E
:1020D0001A631BE07B681B68D96A3B685A68134621
:1020E0009B001344413B1F2202FA03F3DB431940D8
:1020F0003B6818683B685A6813469B001344413B91
:1021000000FA03F27B681B680A43DA623B681B68CB
:10211000092B1CD97B681B68D9683B681A68134671
:102120005B0013441E3B072202FA03F3DB43194012
:102130003B6898683B681A6813465B0013441E3B73
:1021400000FA03F27B681B680A43DA6019E07B68D7
:102150001B6819693B681A6813465B001344072221
:1021600002FA03F3DB4319403B6898683B681A683E
:1021700013465B00134400FA03F27B681B680A43B2
:102180001A613B681B68102B03D03B681B68112B3E
:1021900032D17B681B681D4A934225D17B681B683E
:1021A0009B6803F40003002B26D17B681B689A68A8
:1021B0007B681B6842F400029A603B681B68102B26
:1021C0001AD1134B1B68134AA2FB03239A0C134624
:1021D0009B0013445B00BB6002E0BB68013BBB603B
:1021E000BB68002BF9D107E07B689B6A43F02002B3
:1021F0007B689A620123FB737B68002283F82420AA
:10220000FB7B18461437BD4680BC70470024014054
:102210000000002083DE1B4380B584B000AF7860EF
:102220000023FB600023BB607B681B689B6803F096
:102230000103012B40D07B681B689A687B681B6890
:1022400042F001029A601F4B1B681F4AA2FB032346
:102250009B0CBB6002E0BB68013BBB60BB68002B12
:10226000F9D1FFF709FCF8601FE0FFF705FC024613
:10227000FB68D31A022B18D97B681B689B6803F094
:102280000103012B11D07B689B6A43F010027B682D
:102290009A627B68DB6A43F001027B68DA627B68E2
:1022A000002283F82420012307E07B681B689B68D9
:1022B00003F00103012BD8D1002318461037BD4687
:1022C00080BD00BF0000002083DE1B4380B584B0CA
:1022D00000AF78600023FB607B681B689B6803F09D
:1022E0000103012B2ED17B681B689A687B681B68F1
:1022F00022F001029A60FFF7BFFBF8601BE0FFF7D6
:10230000BBFB0246FB68D31A022B14D97B681B68FF
:102310009B6803F00103012B0DD17B689B6A43F09E
:1023200010027B689A627B68DB6A43F001027B687B
:10233000DA62012307E07B681B689B6803F00103F6
:10234000012BDCD0002318461037BD4680BD0000AD
:1023500080B485B000AF78607B6803F00703FB6052
:102360000C4BDB68BB60BA684FF6FF031340BB60E1
:10237000FB681A02BB68134343F0BF6343F40033A6
:10238000BB60044ABB68D36000BF1437BD4680BC45
:10239000704700BF00ED00E080B400AF044BDB6885
:1023A0001B0A03F007031846BD4680BC704700BFF8
:1023B00000ED00E080B483B000AF0346FB7197F9F5
:1023C0000730002B0BDBFB7903F01F02064997F95E
:1023D00007305B09012000FA02F241F8232000BF18
:1023E0000C37BD4680BC704700E100E080B483B08C
:1023F00000AF03463960FB7197F90730002B0ADB09
:102400003B68DAB20C4997F907301201D2B20B449B
:1024100083F800230AE03B68DAB20849FB7903F04D
:102420000F03043B1201D2B20B441A7600BF0C37E3
:10243000BD4680BC704700BF00E100E000ED00E059
:1024400080B489B000AFF860B9607A60FB6803F0CF
:102450000703FB61FB69C3F10703042B28BF0423B7
:10246000BB61FB690433062B02D9FB69033B00E027
:1024700000237B614FF0FF32BB6902FA03F3DA43BA
:10248000BB681A407B699A404FF0FF317B6901FAC3
:1024900003F3D9437B680B40134318462437BD46EA
:1024A00080BC704780B582B000AF78607B68013B2C
:1024B000B3F1807F01D301230FE00A4A7B68013B1F
:1024C00053600F214FF0FF30FFF790FF054B0022C4
:1024D0009A60044B07221A60002318460837BD464D
:1024E00080BD00BF10E000E080B582B000AF786032
:1024F0007868FFF72DFF00BF0837BD4680BD80B567
:1025000086B000AF0346B9607A60FB7300237B613D
:10251000FFF742FF78617A68B9687869FFF790FF42
:10252000024697F90F3011461846FFF75FFF00BFCC
:102530001837BD4680BD80B582B000AF0346FB7141
:1025400097F907301846FFF735FF00BF0837BD463B
:1025500080BD80B582B000AF78607868FFF7A2FFD9
:10256000034618460837BD4680BD80B485B000AF2D
:1025700078600023FB737B6893F82130022B08D02E
:102580007B6804229A637B68002283F82020012361
:1025900020E07B681B681A687B681B6822F00E02CB
:1025A0001A607B681B681A687B681B6822F001024E
:1025B0001A607B681A6C7B68DB6B012101FA02F2FE
:1025C0005A607B68012283F821207B68002283F80F
:1025D0002020FB7B18461437BD4680BC70470000A6
:1025E00080B584B000AF78600023FB737B6893F8FC
:1025F0002130022B05D07B6804229A630123FB73F0
:10260000D6E07B681B681A687B681B6822F00E02A4
:102610001A607B681B681A687B681B6822F00102DD
:102620001A607B681B681A46644B9A4258D97B68CB
:102630001B68634A93424FD07B681B68614A934290
:1026400048D07B681B68604A934240D07B681B6817
:102650005E4A934238D07B681B685D4A934230D013
:102660007B681B685B4A934228D07B681B68534A8F
:10267000934220D07B681B68574A934219D07B68ED
:102680001B68564A934212D07B681B68544A934297
:102690000AD07B681B68534A934202D14FF480539F
:1026A0001BE04FF4803318E04FF4807315E01023E3
:1026B00013E0012311E04FF080730EE04FF480131C
:1026C0000BE04FF4803308E04FF4805305E04FF403
:1026D000807302E0102300E00123434A536057E077
:1026E0007B681B68364A93424FD07B681B68354A2B
:1026F000934248D07B681B68334A934240D07B6842
:102700001B68324A934238D07B681B68304A934238
:1027100030D07B681B682F4A934228D07B681B68A7
:10272000264A934220D07B681B682B4A934219D0DB
:102730007B681B68294A934212D07B681B68284A31
:1027400093420AD07B681B68264A934202D14FF419
:1027500080531BE04FF4803318E04FF4807315E092
:10276000102313E0012311E04FF080730EE04FF4CB
:1027700080130BE04FF4803308E04FF4805305E002
:102780004FF4807302E0102300E00123174A5360E6
:102790007B68012283F821207B68002283F82020B7
:1027A0007B685B6B002B03D07B685B6B786898471A
:1027B000FB7B18461037BD4680BD00BF800002403D
:1027C000080002401C000240300002404400024069
:1027D000580002406C000240080402401C04024001
:1027E0003004024044040240000402400000024061
:1027F00080B48BB000AF7860396000237B62002327
:102800003B6279E101227B6A02FA03F3FB613B68D8
:102810001B68FA691340BB61BA69FB699A4240F0D0
:1028200068813B685B68A04A93425ED09E4A9342AF
:1028300075D89E4A934258D09C4A93426FD89C4A7E
:10284000934252D09A4A934269D89A4A93424CD0C2
:10285000984A934263D8984A934246D0964A934204
:102860005DD8122B2AD8122B59D801A252F823F086
:10287000EB280008C5280008D728000819290008F7
:102880001F2900081F2900081F2900081F29000808
:102890001F2900081F2900081F2900081F290008F8
:1028A0001F2900081F2900081F2900081F290008E8
:1028B0001F290008CD280008E12800087F4A93421C
:1028C00013D02CE03B68DB683B6229E03B68DB68A7
:1028D00004333B6224E03B68DB6808333B621FE063
:1028E0003B68DB680C333B621AE03B689B68002B5B
:1028F00002D104233B6213E03B689B68012B05D1A6
:1029000008233B627B68FA691A6109E008233B628D
:102910007B68FA695A6103E000233B6200E000BF74
:10292000BB69FF2B01D87B6801E07B6804337B61C6
:10293000BB69FF2B02D87B6A9B0002E07B6A083BE5
:102940009B003B617B691A680F213B6901FA03F325
:10295000DB431A40396A3B6901FA03F31A437B6986
:102960001A603B685B6803F08053002B00F0C18065
:10297000534B9B69524A43F001039361504B9B694F
:1029800003F00103BB60BB684E4A7B6A9B080233BD
:1029900052F82330FB607B6A03F003039B000F2295
:1029A00002FA03F3DB43FA681340FB607B68464A94
:1029B00093421FD07B68454A934219D07B68444AB2
:1029C000934213D07B68434A93420DD07B68424ABE
:1029D000934207D07B68414A934201D105230AE024
:1029E000062308E0042306E0032304E0022302E0B8
:1029F000012300E000237A6A02F003029200934070
:102A0000FA681343FB602F497B6A9B080233FA681C
:102A100041F823203B685B6803F48033002B06D029
:102A20002F4B1A682E49BB6913430B6006E02C4BF1
:102A30001A68BB69DB432A4913400B603B685B683B
:102A400003F40033002B06D0254B5A682449BB6998
:102A500013434B6006E0224B5A68BB69DB432049B5
:102A600013404B603B685B6803F48013002B06D077
:102A70001B4B9A681A49BB6913438B6006E0184BDD
:102A80009A68BB69DB43164913408B603B685B68FF
:102A900003F40013002B25D0114BDA681049BB69F1
:102AA0001343CB6025E000BF00003210000031105E
:102AB0000000221000002110000012100000111070
:102AC000001002400000014000080140000C0140DD
:102AD000001001400014014000180140001C01409A
:102AE000000401400B4BDA68BB69DB430949134022
:102AF000CB607B6A01337B623B681A687B6A22FA8F
:102B000003F3002B7FF47EAE00BF00BF2C37BD4621
:102B100080BC70470004014080B483B000AF78608F
:102B20000B467B8013467B707B78002B03D07A8822
:102B30007B681A6103E07B881A047B681A6100BF16
:102B40000C37BD4680BC704780B485B000AF78605C
:102B50000B467B807B68DB68FB607A88FB681340F0
:102B60001A04FB68D9437B880B401A437B681A61BF
:102B700000BF1437BD4680BC7047000080B400AF72
:102B8000034B01221A6000BFBD4680BC704700BFE6
:102B900020000E4280B400AF034B00221A6000BF39
:102BA000BD4680BC704700BF20000E4280B586B095
:102BB00000AF78607B68002B01D101236CE27B6859
:102BC0001B6803F00103002B00F08780924B5B68C9
:102BD00003F00C03042B0CD08F4B5B6803F00C0349
:102BE000082B12D18C4B5B6803F48033B3F5803F24
:102BF0000BD1894B1B6803F40033002B6CD07B682E
:102C00005B68002B68D1012346E27B685B68B3F503
:102C1000803F06D1804B1B687F4A43F480331360AA
:102C20002EE07B685B68002B0CD17B4B1B687A4ADB
:102C300023F480331360784B1B68774A23F4802396
:102C400013601DE07B685B68B3F5A02F0CD1724B5D
:102C50001B68714A43F4802313606F4B1B686E4AF4
:102C600043F4803313600BE06B4B1B686A4A23F418
:102C700080331360684B1B68674A23F4802313601A
:102C80007B685B68002B13D0FEF7F6FE386108E026
:102C9000FEF7F2FE02463B69D31A642B01D90323E7
:102CA000FAE15D4B1B6803F40033002BF0D014E015
:102CB000FEF7E2FE386108E0FEF7DEFE02463B6901
:102CC000D31A642B01D90323E6E1534B1B6803F4A9
:102CD0000033002BF0D100E000BF7B681B6803F0DD
:102CE0000203002B63D04C4B5B6803F00C03002BFA
:102CF0000BD0494B5B6803F00C03082B1CD1464BEF
:102D00005B6803F48033002B16D1434B1B6803F040
:102D10000203002B05D07B681B69012B01D0012326
:102D2000BAE13D4B1B6823F0F8027B685B69DB006E
:102D3000394913430B603AE07B681B69002B20D0B4
:102D4000364B01221A60FEF797FE386108E0FEF765
:102D500093FE02463B69D31A022B01D903239BE160
:102D60002D4B1B6803F00203002BF0D02A4B1B688D
:102D700023F0F8027B685B69DB00274913430B6093
:102D800015E0264B00221A60FEF776FE386108E057
:102D9000FEF772FE02463B69D31A022B01D90323C8
:102DA0007AE11D4B1B6803F00203002BF0D17B6816
:102DB0001B6803F00803002B3AD07B689B69002B4B
:102DC00019D0174B01221A60FEF756FE386108E051
:102DD000FEF752FE02463B69D31A022B01D90323A8
:102DE0005AE10D4B5B6A03F00203002BF0D0012087
:102DF00000F0D8FA1CE00A4B00221A60FEF73CFEF5
:102E000038610FE0FEF738FE02463B69D31A022B09
:102E100008D9032340E100BF0010024000004242F5
:102E2000800442429E4B5B6A03F00203002BE9D10F
:102E30007B681B6803F00403002B00F0A6800023CE
:102E4000FB75974BDB6903F08053002B0DD1944B3E
:102E5000DB69934A43F08053D361914BDB6903F004
:102E60008053BB60BB680123FB758E4B1B6803F46A
:102E70008073002B18D18B4B1B688A4A43F48073F4
:102E80001360FEF7F9FD386108E0FEF7F5FD024634
:102E90003B69D31A642B01D90323FDE0814B1B68E6
:102EA00003F48073002BF0D07B68DB68012B06D124
:102EB0007B4B1B6A7A4A43F0010313622DE07B6867
:102EC000DB68002B0CD1764B1B6A754A23F001039B
:102ED0001362734B1B6A724A23F0040313621CE0F3
:102EE0007B68DB68052B0CD16D4B1B6A6C4A43F089
:102EF000040313626A4B1B6A694A43F001031362BD
:102F00000BE0674B1B6A664A23F001031362644BB4
:102F10001B6A634A23F0040313627B68DB68002B9F
:102F200015D0FEF7A9FD38610AE0FEF7A5FD0246BF
:102F30003B69D31A41F28832934201D90323ABE0B3
:102F4000574B1B6A03F00203002BEED014E0FEF790
:102F500093FD38610AE0FEF78FFD02463B69D31A04
:102F600041F28832934201D9032395E04C4B1B6A0E
:102F700003F00203002BEED1FB7D012B05D1484B62
:102F8000DB69474A23F08053D3617B68DB69002B00
:102F900000F08180424B5B6803F00C03082B61D08A
:102FA0007B68DB69022B46D13F4B00221A60FEF79B
:102FB00063FD386108E0FEF75FFD02463B69D31A06
:102FC000022B01D9032367E0354B1B6803F0007324
:102FD000002BF0D17B681B6AB3F5803F08D1304BE2
:102FE0005B6823F400327B689B682D4913434B6078
:102FF0002B4B5B6823F474127B68196A7B685B6AED
:103000000B43274913434B60274B01221A60FEF7FD
:1030100033FD386108E0FEF72FFD02463B69D31A05
:10302000022B01D9032337E01D4B1B6803F000730B
:10303000002BF0D02FE01C4B00221A60FEF71CFD85
:10304000386108E0FEF718FD02463B69D31A022BEF
:1030500001D9032320E0124B1B6803F00073002BFF
:10306000F0D118E07B68DB69012B01D1012313E06B
:103070000B4B5B68FB60FB6803F480327B681B6A68
:103080009A4206D1FB6803F470127B685B6A9A422D
:1030900001D0012300E0002318461837BD4680BD4B
:1030A00000100240007000406000424280B584B0D1
:1030B00000AF786039607B68002B01D10123D0E03C
:1030C0006A4B1B6803F007033A689A4210D9674BB2
:1030D0001B6823F0070265493B6813430B60634B91
:1030E0001B6803F007033A689A4201D00123B8E055
:1030F0007B681B6803F00203002B20D07B681B68F1
:1031000003F00403002B05D0594B5B68584A43F485
:10311000E06353607B681B6803F00803002B05D055
:10312000534B5B68524A43F460535360504B5B68A7
:1031300023F0F0027B689B684D4913434B607B682A
:103140001B6803F00103002B40D07B685B68012BF8
:1031500007D1474B1B6803F40033002B15D1012323
:103160007FE07B685B68022B07D1414B1B6803F053
:103170000073002B09D1012373E03D4B1B6803F062
:103180000203002B01D101236BE0394B5B6823F074
:1031900003027B685B68364913434B60FEF76CFCA7
:1031A000F8600AE0FEF768FC0246FB68D31A41F2B9
:1031B0008832934201D9032353E02D4B5B6803F01F
:1031C0000C027B685B689B009A42EBD1274B1B6823
:1031D00003F007033A689A4210D2244B1B6823F08D
:1031E000070222493B6813430B60204B1B6803F026
:1031F00007033A689A4201D0012332E07B681B68DA
:1032000003F00403002B08D0194B5B6823F4E06241
:103210007B68DB68164913434B607B681B6803F0CF
:103220000803002B09D0124B5B6823F460527B68C3
:103230001B69DB000E4913434B6000F021F8024686
:103240000B4B5B681B0903F00F030A49CB5C22FAA6
:1032500003F3094A1360094B1B681846FEF7CAFBC3
:10326000002318461037BD4680BD00BF0020024035
:1032700000100240608900080000002004000020C7
:1032800090B48AB000AF2A4B3C1D0FCB84E80F00EE
:1032900040F201233B800023FB610023BB6100233C
:1032A0007B6200237B6100233B62224B5B68FB61F6
:1032B000FB6903F00C03042B02D0082B03D02DE094
:1032C0001D4B3B622DE0FB699B0C03F00F0307F1E4
:1032D0002802134413F8243C7B61FB6903F4803318
:1032E000002B13D0134B5B685B0C03F0010307F159
:1032F0002802134413F8283CBB617B690E4A02FB89
:1033000003F2BB69B2FBF3F37B6204E07B690B4A17
:1033100002FB03F37B627B6A3B6202E0064B3B628B
:1033200000BF3B6A18462837BD4690BC704700BFB7
:10333000748800080010024000127A0000093D0065
:1033400080B400AF024B1B681846BD4680BC704776
:103350000000002080B500AFFFF7F2FF0246054BEA
:103360005B681B0A03F007030349CB5C22FA03F3F3
:10337000184680BD001002407089000880B500AF7B
:10338000FFF7DEFF0246054B5B68DB0A03F007032D
:103390000349CB5C22FA03F3184680BD00100240BB
:1033A0007089000880B485B000AF78600A4B1B6854
:1033B0000A4AA2FB03235B0A7A6802FB03F3FB6061
:1033C00000BFFB685A1EFA60002BF9D100BF00BF96
:1033D0001437BD4680BC704700000020D34D6210FA
:1033E00080B586B000AF786000233B610023FB60AE
:1033F0007B681B6803F00103002B7DD00023FB7565
:103400004F4BDB6903F08053002B0DD14C4BDB6934
:103410004B4A43F08053D361494BDB6903F080533F
:10342000BB60BB680123FB75464B1B6803F48073CC
:10343000002B18D1434B1B68424A43F4807313603E
:10344000FEF71AFB386108E0FEF716FB02463B69FF
:10345000D31A642B01D903236DE03A4B1B6803F4A4
:103460008073002BF0D0364B1B6A03F44073FB6073
:10347000FB68002B2ED07B685B6803F44073FA680E
:103480009A4227D02E4B1B6A23F44073FB602E4BCD
:1034900001221A602C4B00221A60294AFB68136231
:1034A000FB6803F00103002B14D0FEF7E5FA386146
:1034B0000AE0FEF7E1FA02463B69D31A41F288328C
:1034C000934201D9032336E01D4B1B6A03F002032C
:1034D000002BEED01A4B1B6A23F440727B685B68AA
:1034E000174913430B62FB7D012B05D1144BDB699C
:1034F000134A23F08053D3617B681B6803F00203F7
:10350000002B08D00E4B5B6823F440427B689B681D
:103510000B4913434B607B681B6803F01003002BBF
:1035200008D0074B5B6823F480027B685B69044921
:1035300013434B60002318461837BD4680BD00BFBB
:1035400000100240007000404004424290B58DB02F
:1035500000AF78606B4B07F10C040FCB84E80F00D1
:1035600040F201233B8100237B620023FB620023A6
:103570003B620023FB610023BB627B68013B0F2B96
:1035800000F2B68001A252F823F000BF6F360008A7
:10359000D5360008F13600085F360008F13600081D
:1035A000F1360008F136000867360008F1360008E9
:1035B000F1360008F1360008F1360008F13600084F
:1035C000F1360008F1360008CD3500084E4B5B6837
:1035D000FB614D4B1B6803F08073002B00F08A8069
:1035E000FB699B0C03F00F0307F13002134413F83F
:1035F000243C3B62FB6903F48033002B18D0424B20
:103600005B685B0C03F0010307F13002134413F80D
:10361000283C7B62FB6903F48033002B0DD03B4ACE
:103620007B6AB2FBF3F23B6A02FB03F3FB6204E04A
:103630003B6A374A02FB03F3FB62334B5B6803F4DC
:103640008003B3F5800F02D1FB6ABB6252E0FB6AD4
:103650005B00304AA2FB03235B08BB624AE0FFF732
:103660000FFEB86249E0FFF70BFEB86245E0264B5B
:103670001B6AFB61FB6903F44073B3F5807F08D1DB
:10368000FB6903F00203002B03D04FF40043BB623D
:103690001FE0FB6903F44073B3F5007F09D11A4BB7
:1036A0005B6A03F00203002B03D049F64043BB6280
:1036B0000FE0FB6903F44073B3F5407F1CD1124B5C
:1036C0001B6803F40033002B16D04FF22443BB6277
:1036D00012E011E0FFF752FE02460B4B5B689B0BBA
:1036E00003F0030301335B00B2FBF3F3BB6204E0BE
:1036F00000BF02E000BF00E000BFBB6A18463437DD
:10370000BD4690BD848800080010024000127A0077
:1037100000093D00ABAAAAAA80B582B000AF7860CC
:103720007B68002B01D1012341E07B6893F83D3099
:10373000DBB2002B06D17B68002283F83C2078683E
:10374000FDF71AFF7B68022283F83D207B681A6828
:103750007B6804331946104600F0F2FB7B680122B7
:1037600083F846207B68012283F83E207B68012293
:1037700083F83F207B68012283F840207B68012288
:1037800083F841207B68012283F842207B68012274
:1037900083F843207B68012283F844207B68012260
:1037A00083F845207B68012283F83D2000231846DA
:1037B0000837BD4680BD80B582B000AF78607B68B9
:1037C000002B01D1012341E07B6893F83D30DBB24F
:1037D000002B06D17B68002283F83C20786800F03B
:1037E00039F87B68022283F83D207B681A687B6881
:1037F00004331946104600F0A3FB7B68012283F8CE
:1038000046207B68012283F83E207B68012283F8F2
:103810003F207B68012283F840207B68012283F8E7
:1038200041207B68012283F842207B68012283F8D3
:1038300043207B68012283F844207B68012283F8BF
:1038400045207B68012283F83D2000231846083775
:10385000BD4680BD80B483B000AF786000BF0C3738
:10386000BD4680BC7047000080B584B000AF786072
:1038700039603B68002B09D17B6893F83E30DBB29E
:10388000012B14BF01230023DBB222E03B68042B91
:1038900009D17B6893F83F30DBB2012B14BF0123C1
:1038A0000023DBB215E03B68082B09D17B6893F855
:1038B0004030DBB2012B14BF01230023DBB208E050
:1038C0007B6893F84130DBB2012B14BF0123002346
:1038D000DBB2002B01D0012372E03B68002B04D146
:1038E0007B68022283F83E2013E03B68042B04D15E
:1038F0007B68022283F83F200BE03B68082B04D151
:103900007B68022283F8402003E07B68022283F870
:1039100041207B681B6801223968184600F0CCFD05
:103920007B681B68284A934204D07B681B68274A3F
:10393000934201D1012300E00023002B07D07B68D4
:103940001B685A6C7B681B6842F400425A647B68AF
:103950001B681D4A934218D07B681B681B4A934220
:1039600013D07B681B68B3F1804F0ED07B681B6857
:10397000174A934209D07B681B68164A934204D0C9
:103980007B681B68144A934211D17B681B689B6853
:1039900003F00703FB60FB68062B10D07B681B68F5
:1039A0001A687B681B6842F001021A6007E07B68B6
:1039B0001B681A687B681B6842F001021A600023CA
:1039C00018461037BD4680BD002C01400034014030
:1039D0000004004000080040000C004080B586B0A4
:1039E00000AF786039607B68002B01D1012393E040
:1039F0007B6893F83D30DBB2002B06D17B68002258
:103A000083F83C207868FDF709FE7B68022283F882
:103A10003D207B681B689B687A68126823F48043AA
:103A200023F0070393607B681A687B6804331946A8
:103A3000104600F085FA7B681B689B687B617B6899
:103A40001B689B693B617B681B681B6AFB603B686A
:103A50001B687A6913437B613B6923F4407323F04D
:103A600003033B613B689A683B689B691B021343F5
:103A70003A6913433B613B6923F4406323F00C0331
:103A80003B613B6923F4704323F0F0033B613B68E7
:103A9000DA683B68DB691B0213433A6913433B61F5
:103AA0003B681B691A013B681B6A1B0313433A6995
:103AB00013433B61FB6823F02203FB603B685A68B9
:103AC0003B685B691B011343FA681343FB607B6827
:103AD0001B687A699A607B681B683A699A617B689F
:103AE0001B68FA681A627B68012283F846207B68AB
:103AF000012283F83E207B68012283F83F207B6807
:103B0000012283F842207B68012283F843207B68EE
:103B1000012283F83D20002318461837BD4680BD9A
:103B200080B584B000AF786039607B6893F83E3030
:103B3000FB737B6893F83F30BB737B6893F842302C
:103B40007B737B6893F843303B733B68002B10D149
:103B5000FB7B012B02D17B7B012B01D0012369E090
:103B60007B68022283F83E207B68022283F8422091
:103B700031E03B68042B10D1BB7B012B02D13B7B96
:103B8000012B01D0012355E07B68022283F83F20FE
:103B90007B68022283F843201DE0FB7B012B08D1C8
:103BA000BB7B012B05D17B7B012B02D13B7B012B06
:103BB00001D001233EE07B68022283F83E207B682F
:103BC000022283F83F207B68022283F842207B6830
:103BD000022283F843203B68002B03D03B68042B70
:103BE00008D00FE07B681B6801220021184600F016
:103BF00063FC16E07B681B6801220421184600F074
:103C00005BFC0EE07B681B6801220021184600F077
:103C100053FC7B681B6801220421184600F04CFC11
:103C200000BF7B681B681A687B681B6842F0010252
:103C30001A60002318461037BD4680BD80B584B099
:103C400000AFF860B9607A60FB6893F83C30012BF4
:103C500001D10223ACE0FB68012283F83C207B68A1
:103C60000C2B00F29F8001A252F823F0A13C000827
:103C7000A53D0008A53D0008A53D0008E13C000861
:103C8000A53D0008A53D0008A53D0008233D00080E
:103C9000A53D0008A53D0008A53D0008633D0008BE
:103CA000FB681B68B968184600F0C4F9FB681B681C
:103CB0009A69FB681B6842F008029A61FB681B68FE
:103CC0009A69FB681B6822F004029A61FB681B6812
:103CD0009969BB681A69FB681B680A439A6162E0CC
:103CE000FB681B68B968184600F014FAFB681B688B
:103CF0009A69FB681B6842F400629A61FB681B6862
:103D00009A69FB681B6822F480629A61FB681B68F1
:103D10009969BB681B691A02FB681B680A439A61B0
:103D200041E0FB681B68B968184600F067FAFB6859
:103D30001B68DA69FB681B6842F00802DA61FB68FD
:103D40001B68DA69FB681B6822F00402DA61FB6811
:103D50001B68D969BB681A69FB681B680A43DA618A
:103D600021E0FB681B68B968184600F0BBFAFB68E5
:103D70001B68DA69FB681B6842F40062DA61FB6861
:103D80001B68DA69FB681B6822F48062DA61FB68F1
:103D90001B68D969BB681B691A02FB681B680A4368
:103DA000DA6100E000BFFB68002283F83C200023BA
:103DB00018461037BD4680BD80B584B000AF78602E
:103DC00039607B6893F83C30012B01D10223B3E0CA
:103DD0007B68012283F83C207B68022283F83D2027
:103DE0007B681B689B68FB60FB6823F07703FB60C4
:103DF000FB6823F47F43FB607B681B68FA689A606A
:103E00003B681B68B3F5005F3ED0B3F5005F00F27E
:103E10008780B3F5805F00F08580B3F5805F7FD841
:103E2000702B1AD0702B7BD8602B50D0602B77D89A
:103E3000502B3CD0502B73D8402B58D0402B6FD8F0
:103E4000302B64D0302B6BD8202B60D0202B67D840
:103E5000002B5CD0102B5AD062E07B6818683B685E
:103E600099683B685A683B68DB6800F006FB7B6832
:103E70001B689B68FB60FB6843F07703FB607B6813
:103E80001B68FA689A604EE07B6818683B6899681E
:103E90003B685A683B68DB6800F0EFFA7B681B6898
:103EA0009A687B681B6842F480429A603BE07B68BA
:103EB00018683B6859683B68DB681A4600F066FA88
:103EC0007B681B685021184600F0BDFA2BE07B6828
:103ED00018683B6859683B68DB681A4600F084FA4A
:103EE0007B681B686021184600F0ADFA1BE07B6818
:103EF00018683B6859683B68DB681A4600F046FA68
:103F00007B681B684021184600F09DFA0BE07B6837
:103F10001A683B681B681946104600F094FA02E0E4
:103F200000BF00E000BF7B68012283F83D207B6872
:103F3000002283F83C20002318461037BD4680BD80
:103F400080B485B000AF786039607B681B68FB6027
:103F50007B68334A934213D07B68324A93420FD036
:103F60007B68B3F1804F0BD07B682F4A934207D018
:103F70007B682E4A934203D07B682D4A934208D136
:103F8000FB6823F07003FB603B685B68FA681343CF
:103F9000FB607B68224A934213D07B68214A93429C
:103FA0000FD07B68B3F1804F0BD07B681E4A9342E1
:103FB00007D07B681D4A934203D07B681C4A93421A
:103FC00008D1FB6823F44073FB603B68DB68FA6848
:103FD0001343FB60FB6823F080023B685B6913437B
:103FE000FB607B68FA681A603B689A687B68DA62F3
:103FF0003B681A687B689A627B68094A934203D0DF
:104000007B68084A934203D13B681A697B681A634C
:104010007B6801225A6100BF1437BD4680BC7047DF
:10402000002C014000340140000400400008004022
:10403000000C004080B487B000AF786039607B68C6
:104040001B6A23F001027B681A627B681B6A7B6132
:104050007B685B683B617B689B69FB60FB6823F066
:104060007003FB60FB6823F00303FB603B681B6885
:10407000FA681343FB607B6923F002037B613B68B2
:104080009B687A6913437B617B68204A934203D023
:104090007B681F4A93420CD17B6923F008037B6144
:1040A0003B68DB687A6913437B617B6923F0040317
:1040B0007B617B68154A934203D07B68144A934224
:1040C00011D13B6923F480733B613B6923F4007396
:1040D0003B613B685B693A6913433B613B689B69A1
:1040E0003A6913433B617B683A695A607B68FA68B6
:1040F0009A613B685A687B685A637B687A691A627E
:1041000000BF1C37BD4680BC704700BF002C01407B
:104110000034014080B487B000AF786039607B68BC
:104120001B6A23F010027B681A627B681B6A7B6142
:104130007B685B683B617B689B69FB60FB6823F481
:10414000E043FB60FB6823F44073FB603B681B6843
:104150001B02FA681343FB607B6923F020037B6139
:104160003B689B681B017A6913437B617B68214A2A
:10417000934203D07B68204A93420DD17B6923F0A0
:1041800080037B613B68DB681B017A6913437B61B9
:104190007B6923F040037B617B68164A934203D01E
:1041A0007B68154A934213D13B6923F480633B61DA
:1041B0003B6923F400633B613B685B699B003A69A0
:1041C00013433B613B689B699B003A6913433B6126
:1041D0007B683A695A607B68FA689A613B685A68FA
:1041E0007B689A637B687A691A6200BF1C37BD4698
:1041F00080BC7047002C01400034014080B487B07F
:1042000000AF786039607B681B6A23F480727B683A
:104210001A627B681B6A7B617B685B683B617B68B9
:10422000DB69FB60FB6823F07003FB60FB6823F035
:104230000303FB603B681B68FA681343FB607B6900
:1042400023F400737B613B689B681B027A6913430C
:104250007B617B68214A934203D07B68204A93426A
:104260000DD17B6923F400637B613B68DB681B0233
:104270007A6913437B617B6923F480637B617B688C
:10428000164A934203D07B68154A934213D13B6987
:1042900023F480533B613B6923F400533B613B684B
:1042A0005B691B013A6913433B613B689B691B01D6
:1042B0003A6913433B617B683A695A607B68FA68E4
:1042C000DA613B685A687B68DA637B687A691A62EC
:1042D00000BF1C37BD4680BC704700BF002C0140AA
:1042E0000034014080B487B000AF786039607B68EB
:1042F0001B6A23F480527B681A627B681B6A3B61ED
:104300007B685B687B617B68DB69FB60FB6823F42F
:10431000E043FB60FB6823F44073FB603B681B6871
:104320001B02FA681343FB603B6923F400533B61B3
:104330003B689B681B033A6913433B617B68114AE6
:10434000934203D07B68104A934209D17B6923F4DE
:1043500080437B613B685B699B017A6913437B61A6
:104360007B687A695A607B68FA68DA613B685A68E8
:104370007B681A647B683A691A6200BF1C37BD46C5
:1043800080BC7047002C01400034014080B487B0ED
:1043900000AFF860B9607A60FB681B6A7B61FB68FC
:1043A0001B6A23F00102FB681A62FB689B693B6190
:1043B0003B6923F0F0033B617B681B013A691343BF
:1043C0003B617B6923F00A037B617A69BB68134315
:1043D0007B61FB683A699A61FB687A691A6200BF7F
:1043E0001C37BD4680BC704780B487B000AFF86012
:1043F000B9607A60FB681B6A23F01002FB681A62DE
:10440000FB689B697B61FB681B6A3B617B6923F4EA
:1044100070437B617B681B037A6913437B613B6953
:1044200023F0A0033B61BB681B013A6913433B6166
:10443000FB687A699A61FB683A691A6200BF1C37A7
:10444000BD4680BC704780B485B000AF78603960ED
:104450007B689B68FB60FB6823F07003FB603A6835
:10446000FB68134343F00703FB607B68FA689A60BC
:1044700000BF1437BD4680BC704780B487B000AF22
:10448000F860B9607A603B60FB689B687B617B6920
:1044900023F47F437B613B681A027B681A43BB6845
:1044A00013437A6913437B61FB687A699A6000BFA2
:1044B0001C37BD4680BC704780B487B000AFF86041
:1044C000B9607A60BB6803F01F03012202FA03F3AC
:1044D0007B61FB681A6A7B69DB431A40FB681A62DE
:1044E000FB681A6ABB6803F01F03796801FA03F3DB
:1044F0001A43FB681A6200BF1C37BD4680BC704778
:1045000080B485B000AF786039607B6893F83C3048
:10451000012B01D1022350E07B68012283F83C206B
:104520007B68022283F83D207B681B685B68FB6028
:104530007B681B689B68BB60FB6823F07003FB60B3
:104540003B681B68FA681343FB607B681B68FA686A
:104550005A607B681B681B4A934218D07B681B68B3
:10456000194A934213D07B681B68B3F1804F0ED079
:104570007B681B68154A934209D07B681B68144A04
:10458000934204D07B681B68124A93420CD1BB68EB
:1045900023F08003BB603B685B68BA681343BB6071
:1045A0007B681B68BA689A607B68012283F83D20AB
:1045B0007B68002283F83C20002318461437BD4650
:1045C00080BC7047002C01400034014000040040D2
:1045D00000080040000C004080B485B000AF786057
:1045E00039600023FB607B6893F83C30012B01D1DC
:1045F00002233DE07B68012283F83C20FB6823F026
:10460000FF023B68DB681343FB60FB6823F44072E6
:104610003B689B681343FB60FB6823F480623B6844
:104620005B681343FB60FB6823F400623B681B6814
:104630001343FB60FB6823F480523B681B69134300
:10464000FB60FB6823F400523B685B691343FB602B
:10465000FB6823F480423B68DB691343FB607B68A3
:104660001B68FA685A647B68002283F83C200023A8
:1046700018461437BD4680BC704780B582B000AF85
:1046800078607B68002B01D101233FE07B6893F8C1
:104690003D30DBB2002B06D17B68002283F83C2042
:1046A0007868FDF79BF87B68242283F83D207B68BF
:1046B0001B68DA687B681B6822F40052DA6078684D
:1046C00000F08EFC7B681B681A697B681B6822F40B
:1046D00090421A617B681B685A697B681B6822F0EC
:1046E0002A025A617B681B68DA687B681B6842F49F
:1046F0000052DA607B6800221A647B68202283F80B
:104700003D207B68202283F83E200023184608378E
:10471000BD4680BD80B58AB002AFF860B9603B602D
:104720001346FB8000237B61FB6893F83D30DBB2CE
:10473000202B7CD1BB68002B02D0FB88002B01D141
:10474000012375E0FB6893F83C30012B01D1022373
:104750006EE0FB68012283F83C20FB6800221A64AB
:10476000FB68212283F83D20FDF786F97861FB681C
:10477000FA889A84FB68FA88DA84FB689B68B3F548
:10478000805F08D1FB681B69002B04D10023FB610B
:10479000BB68BB6103E0BB68FB610023BB61FB68D6
:1047A000002283F83C202AE03B6800937B690022CA
:1047B0008021F86800F040FA0346002B01D0032363
:1047C00036E0FB69002B0BD1BB691B881A46FB68DE
:1047D0001B68C2F308025A60BB690233BB6107E081
:1047E000FB691A78FB681B685A60FB690133FB613F
:1047F000FB68DB8C9BB2013B9AB2FB68DA84FB68F6
:10480000DB8C9BB2002BCFD13B6800937B690022ED
:104810004021F86800F010FA0346002B01D0032372
:1048200006E0FB68202283F83D20002300E00223FD
:1048300018462037BD4680BD80B584B000AFF86013
:10484000B9601346FB80FB6893F83E30DBB2202B47
:104850001DD1BB68002B02D0FB88002B01D10123A6
:1048600016E0FB6893F83C30012B01D102230FE0E6
:10487000FB68012283F83C20FB6800221A63FB8856
:104880001A46B968F86800F021FA034600E00223EE
:1048900018461037BD4680BD80B58AB000AF78603D
:1048A0007B681B681B687B627B681B68DB683B62FC
:1048B0007B681B685B69FB610023BB6100237B6134
:1048C0007B6A03F00F03BB61BB69002B0DD17B6AD0
:1048D00003F02003002B08D03B6A03F02003002BD9
:1048E00003D0786800F0D2FA7BE1BB69002B00F0BE
:1048F000B180FB6903F00103002B05D13B6A03F48F
:104900009073002B00F0A6807B6A03F00103002B5C
:104910000AD03B6A03F48073002B05D07B681B6CC4
:1049200043F001027B681A647B6A03F00403002BE6
:104930000AD0FB6903F00103002B05D07B681B6CD8
:1049400043F002027B681A647B6A03F00203002BC7
:104950000AD0FB6903F00103002B05D07B681B6CB8
:1049600043F004027B681A647B6A03F00803002B9F
:104970000FD03B6A03F02003002B04D1FB6903F046
:104980000103002B05D07B681B6C43F008027B6899
:104990001A647B681B6C002B00F01E817B6A03F09D
:1049A0002003002B07D03B6A03F02003002B02D02A
:1049B000786800F06BFA7B681B685B6903F0400362
:1049C000002B14BF01230023DBB27B617B681B6CCF
:1049D00003F00803002B02D17B69002B31D07868EB
:1049E00000F0ADF97B681B685B6903F04003002BA6
:1049F00023D07B681B685A697B681B6822F04002E1
:104A00005A617B689B6B002B13D07B689B6B764A4B
:104A10005A637B689B6B1846FDF7E2FD0346002B4B
:104A200016D07B689B6B5B6B7A68926B10469847DD
:104A30000EE0786800F0ECF80AE0786800F0E8F83A
:104A400006E0786800F0E4F87B6800221A64C3E0AE
:104A500000BFC1E07B681B6B012B40F0A1807B6A2B
:104A600003F01003002B00F09B803B6A03F010035F
:104A7000002B00F095800023FB607B681B681B689F
:104A8000FB607B681B685B68FB60FB687B681B687E
:104A90005B6903F04003002B4ED07B689B6B1B6867
:104AA0005B683B823B8A002B00F098807B689B8D83
:104AB0003A8A9A4280F092807B683A8ADA857B68EB
:104AC0009B6B9B69202B2BD07B681B68DA687B680B
:104AD0001B6822F48072DA607B681B685A697B6805
:104AE0001B6822F001025A617B681B685A697B6867
:104AF0001B6822F040025A617B68202283F83E2026
:104B00007B6800221A637B681B68DA687B681B6815
:104B100022F01002DA607B689B6B1846FDF725FDDA
:104B20007B689A8D7B68DB8D9BB2D31A9BB219464A
:104B3000786800F076F851E07B689A8D7B68DB8DB1
:104B40009BB2D31A7B827B68DB8D9BB2002B47D054
:104B50007B8A002B44D07B681B68DA687B681B6803
:104B600022F49072DA607B681B685A697B681B6864
:104B700022F001025A617B68202283F83E207B6884
:104B800000221A637B681B68DA687B681B6822F066
:104B90001002DA607B8A1946786800F042F81FE05C
:104BA0007B6A03F08003002B08D03B6A03F080038C
:104BB000002B03D0786800F002F912E07B6A03F062
:104BC0004003002B0DD03B6A03F04003002B08D0BC
:104BD000786800F043F904E000BF02E000BF00E0A5
:104BE00000BF2837BD4680BD974D000880B483B014
:104BF00000AF786000BF0C37BD4680BC704780B402
:104C000083B000AF786000BF0C37BD4680BC7047F2
:104C100080B483B000AF786000BF0C37BD4680BC65
:104C2000704780B483B000AF78600B467B8000BFD4
:104C30000C37BD4680BC704780B584B000AFF860CB
:104C4000B9603B601346FB712CE0BB69B3F1FF3FD9
:104C500028D0BB69002B07D0FCF70EFF02463B684B
:104C6000D31ABA699A421DD2FB681B68DA68FB68DE
:104C70001B6822F4D072DA60FB681B685A69FB6813
:104C80001B6822F001025A61FB68202283F83D2054
:104C9000FB68202283F83E20FB68002283F83C203A
:104CA00003230FE0FB681B681A68BB681340BA68EF
:104CB0009A420CBF01230023DBB21A46FB799A42C9
:104CC000C3D0002318461037BD4680BD80B485B0E0
:104CD00000AFF860B9601346FB80FB68BA689A625F
:104CE000FB68FA889A85FB68FA88DA85FB680022F7
:104CF0001A64FB68222283F83E20FB68002283F8B6
:104D00003C20FB681B68DA68FB681B6842F4807211
:104D1000DA60FB681B685A69FB681B6842F0010295
:104D20005A61FB681B68DA68FB681B6842F0200266
:104D3000DA60002318461437BD4680BC704780B443
:104D400083B000AF78607B681B68DA687B681B689B
:104D500022F49072DA607B681B685A697B681B6872
:104D600022F001025A617B681B6B012B07D17B6823
:104D70001B68DA687B681B6822F01002DA607B68C7
:104D8000202283F83E207B6800221A6300BF0C3784
:104D9000BD4680BC704780B584B000AF78607B684A
:104DA0005B6AFB60FB680022DA85FB680022DA841C
:104DB000F868FFF72DFF00BF1037BD4680BD80B4F7
:104DC00085B000AF78607B6893F83D30DBB2212B73
:104DD0003ED17B689B68B3F5805F14D17B681B690B
:104DE000002B10D17B681B6AFB60FB681B881A468E
:104DF0007B681B68C2F308025A607B681B6A9A1CB6
:104E00007B681A6208E07B681B6A591C7A68116229
:104E10001A787B681B685A607B68DB8C9BB2013B0D
:104E20009BB27A681946D184002B0FD17B681B682E
:104E3000DA687B681B6822F08002DA607B681B6896
:104E4000DA687B681B6842F04002DA60002300E009
:104E5000022318461437BD4680BC704780B582B027
:104E600000AF78607B681B68DA687B681B6822F09B
:104E70004002DA607B68202283F83D207868FFF7E3
:104E8000B5FE002318460837BD4680BD80B586B004
:104E900000AF78607B6893F83E30DBB2222B40F0A5
:104EA00099807B689B68B3F5805F17D17B681B692D
:104EB000002B13D100237B617B689B6A3B617B687D
:104EC0001B685B689BB2C3F308039AB23B691A8004
:104ED0007B689B6A9A1C7B689A6226E07B689B6A67
:104EE0007B6100233B617B689B68B3F5805F07D0E3
:104EF0007B689B68002B0AD17B681B69002B06D15D
:104F00007B681B685B68DAB27B691A7008E07B68B3
:104F10001B685B68DBB203F07F03DAB27B691A704F
:104F20007B689B6A5A1C7B689A627B68DB8D9BB2AC
:104F3000013B9BB27A681946D185002B48D17B682A
:104F40001B68DA687B681B6822F02002DA607B68E5
:104F50001B68DA687B681B6822F48072DA607B6801
:104F60001B685A697B681B6822F001025A617B68E2
:104F7000202283F83E207B681B6B012B23D17B68AA
:104F800000221A637B681B68DA687B681B6822F062
:104F90001002DA607B681B681B6803F01003102B9B
:104FA0000AD10023FB607B681B681B68FB607B6881
:104FB0001B685B68FB60FB687B689B8D19467868A3
:104FC000FFF72FFE02E07868FFF719FE002302E0EA
:104FD000002300E0022318461837BD4680BD0000BC
:104FE00080B584B000AF78607B681B681B6923F4D0
:104FF00040517B68DA687B681B680A431A617B68EA
:105000009A687B681B691A437B685B691343BB60C2
:105010007B681B68DB6823F4B05323F00C037A68C9
:105020001268B9680B43D3607B681B685B6923F423
:1050300040717B689A697B681B680A435A617B6888
:105040001B682C4A934203D1FEF798F9F86002E0FE
:10505000FEF780F9F860FA6813469B0013449A0043
:105060001A447B685B689B00B2FBF3F3224AA2FB05
:1050700003235B091901FA6813469B0013449A0045
:105080001A447B685B689B00B2FBF3F21A4BA3FBEC
:1050900002035B09642000FB03F3D31A1B013233C4
:1050A000154AA2FB03235B0903F0F0031944FA68D5
:1050B00013469B0013449A001A447B685B689B006C
:1050C000B2FBF3F20C4BA3FB02035B09642000FB71
:1050D00003F3D31A1B013233074AA2FB03235B09F4
:1050E00003F00F027B681B680A449A6000BF103708
:1050F000BD4680BD003801401F85EB5180B485B0AE
:1051000000AFEFF30583BB60BB68002B0FD1EFF35B
:1051100010837B607B68002B09D1104B1B68022B2E
:1051200009D1EFF311833B603B68002B03D06FF094
:105130000503FB600CE0094B1B68002B05D1074BF6
:1051400001221A600023FB6002E04FF0FF33FB6096
:10515000FB6818461437BD4680BC70479C00002091
:1051600080B584B000AFEFF30583BB60BB68002B54
:105170000FD1EFF310837B607B68002B09D1114BBB
:105180001B68022B09D1EFF311833B603B68002BB6
:1051900003D06FF00503FB600EE00A4B1B68012B88
:1051A00007D1084B02221A6001F078F80023FB6057
:1051B00002E04FF0FF33FB60FB6818461037BD4636
:1051C00080BD00BF9C00002080B592B004AFF860A5
:1051D000B9607A6000237B61EFF305837B627B6AB1
:1051E000002B40F09480EFF310833B623B6A002B6E
:1051F00040F08D80484B1B68022B06D1EFF31183E2
:10520000FB61FB69002B40F08280FB68002B7ED0A5
:1052100080233B631823FB620023FB7607F11B030B
:105220007B634FF0FF33BB627B68002B45D07B680C
:105230001B68002B02D07B681B687B637B689B69C3
:10524000002B02D07B689B69FB62FB6A002B08D0B5
:10525000FB6A382B05D87B685B6803F00103002BE1
:1052600001D0002354E07B685B69002B03D07B688E
:105270005B699B083B637B689B68002B0ED07B6857
:10528000DB685B2B0AD97B681B69002B06D07B6827
:105290005B69002B02D00123BB6210E07B689B6836
:1052A000002B0CD17B68DB68002B08D17B681B6965
:1052B000002B04D10023BB6201E00023BB62BB6A68
:1052C000012B10D17B681B697A6892680292019366
:1052D000FB6A0093BB683A6B796BF86800F012FECA
:1052E00003467B6113E0BB6A002B10D13B6B9AB283
:1052F00007F114030193FB6A0093BB68796BF868AC
:1053000000F05CFE0346012B01D000237B617B692A
:1053100018463837BD4680BD9C00002080B586B059
:1053200000AF7860EFF305833B613B69002B0FD141
:10533000EFF31083FB60FB68002B09D10D4B1B685A
:10534000022B09D1EFF31183BB60BB68002B03D0A4
:105350006FF005037B6107E000237B617B68002B16
:1053600002D0786800F066FF7B6918461837BD46A2
:1053700080BD00BF9C00002080B485B000AFF86005
:10538000B9607A60FB68064A1A60BB68054A1A6011
:105390007B6880221A6000BF1437BD4680BC70470E
:1053A000A0000020FC00002080B485B000AFF860B1
:1053B000B9607A60FB68074A1A60BB68064A1A60DF
:1053C0007B684FF480721A6000BF1437BD4680BC02
:1053D000704700BFFC0200205803002080B483B057
:1053E00000AF78607B6803F108027B685A607B68D5
:1053F0004FF0FF329A607B6803F108027B68DA6045
:105400007B6803F108027B681A617B6800221A60DE
:1054100000BF0C37BD4680BC704780B483B000AF7E
:1054200078607B6800221A6100BF0C37BD4680BCE3
:10543000704780B485B000AF786039607B685B6886
:10544000FB603B68FA685A60FB689A683B689A6040
:10545000FB689B683A685A60FB683A689A603B68E8
:105460007A681A617B681B685A1C7B681A6000BFE7
:105470001437BD4680BC704780B485B000AF7860FB
:1054800039603B681B68BB60BB68B3F1FF3F03D169
:105490007B681B69FB600CE07B680833FB6002E003
:1054A000FB685B68FB60FB685B681B68BA689A42D4
:1054B000F6D2FB685A683B685A603B685B683A689A
:1054C0009A603B68FA689A60FB683A685A603B6881
:1054D0007A681A617B681B685A1C7B681A6000BF77
:1054E0001437BD4680BC704780B485B000AF78608B
:1054F0007B681B69FB607B685B687A6892689A606E
:105500007B689B687A6852685A60FB685B687A6857
:105510009A4203D17B689A68FB685A607B680022D4
:105520001A61FB681B685A1EFB681A60FB681B68DF
:1055300018461437BD4680BC7047000080B584B063
:1055400000AF786039607B68FB60FB68002B0AD194
:105550004FF0500383F31188BFF36F8FBFF34F8F6A
:10556000BB6000BFFEE701F0C9FFFB681A68FB687B
:10557000DB6BF968096C01FB03F31A44FB685A60A2
:10558000FB6800229A63FB681A68FB689A60FB68F4
:105590001A68FB68DB6B013BF968096C01FB03F3DC
:1055A0001A44FB68DA60FB68FF2283F84420FB683A
:1055B000FF2283F845203B68002B14D1FB681B6950
:1055C000002B1AD0FB681033184601F0F1F803469F
:1055D000002B12D00C4B4FF080521A60BFF34F8F4C
:1055E000BFF36F8F09E0FB6810331846FFF7F6FE34
:1055F000FB6824331846FFF7F1FE01F0AFFF0123EB
:1056000018461037BD4680BD04ED00E080B58EB071
:1056100002AFF860B9607A603B60FB68002B0AD18A
:105620004FF0500383F31188BFF36F8FBFF34F8F99
:10563000BB6200BFFEE73B68002B0AD14FF050036E
:1056400083F31188BFF36F8FBFF34F8F7B6200BF6F
:10565000FEE77B68002B02D0BB68002B01D0012342
:1056600000E00023002B0AD14FF0500383F3118890
:10567000BFF36F8FBFF34F8F3B6200BFFEE77B68C6
:10568000002B02D1BB68002B01D1012300E00023D5
:10569000002B0AD14FF0500383F31188BFF36F8FB3
:1056A000BFF34F8FFB6100BFFEE750237B617B6937
:1056B000502B0AD04FF0500383F31188BFF36F8F44
:1056C000BFF34F8FBB6100BFFEE73B68FB62FB6A25
:1056D000002B0DD0FB6A012283F8462097F8382072
:1056E000FB6A009313467A68B968F86800F005F819
:1056F000FB6A18463037BD4680BD80B584B000AF28
:10570000F860B9607A60FB70BB68002B03D1BB699D
:10571000BA691A6002E0BB697A681A60BB69FA6804
:10572000DA63BB69BA681A640121B869FFF706FF3A
:10573000BB69FA7883F84C2000BF1037BD4680BDA6
:1057400080B58EB000AFF860B9607A603B6000232E
:105750007B63FB683B633B6B002B0AD14FF050032C
:1057600083F31188BFF36F8FBFF34F8FBB6200BF0E
:10577000FEE7BB68002B03D13B6B1B6C002B01D1F8
:10578000012300E00023002B0AD14FF0500383F3E4
:105790001188BFF36F8FBFF34F8F7B6200BFFEE7AF
:1057A0003B68022B03D13B6BDB6B012B01D1012347
:1057B00000E00023002B0AD14FF0500383F311883F
:1057C000BFF36F8FBFF34F8F3B6200BFFEE701F067
:1057D000B1F90346002B02D17B68002B01D10123D4
:1057E00000E00023002B0AD14FF0500383F311880F
:1057F000BFF36F8FBFF34F8FFB6100BFFEE701F078
:105800007DFE3B6B9A6B3B6BDB6B9A4202D33B6832
:10581000022B29D13A68B968386B00F007FAF862B0
:105820003B6B5B6A002B10D03B6B2433184600F0B7
:10583000BFFF0346002B13D03F4B4FF080521A603E
:10584000BFF34F8FBFF36F8F0AE0FB6A002B07D0C7
:10585000394B4FF080521A60BFF34F8FBFF36F8FF9
:1058600001F07CFE012363E07B68002B03D101F093
:1058700075FE00235CE07B6B002B06D107F114035F
:10588000184600F0F9FF01237B6301F067FE00F08A
:105890006BFD01F033FE3B6B93F844305BB2B3F128
:1058A000FF3F03D13B6B002283F844203B6B93F80E
:1058B00045305BB2B3F1FF3F03D13B6B002283F86D
:1058C000452001F04BFE3A1D07F11403114618461E
:1058D00000F0E8FF0346002B24D1386B00F09EFA5D
:1058E0000346002B18D03B6B10337A6811461846DC
:1058F00000F00EFF386B00F029FA00F043FD03467C
:10590000002B7FF47CAF0C4B4FF080521A60BFF33A
:105910004F8FBFF36F8F72E7386B00F017FA00F00C
:1059200031FD6CE7386B00F011FA00F02BFD00231D
:1059300018463837BD4680BD04ED00E080B58EB016
:1059400000AFF860B9607A603B60FB683B633B6B1B
:10595000002B0AD14FF0500383F31188BFF36F8FF0
:10596000BFF34F8F7B6200BFFEE7BB68002B03D104
:105970003B6B1B6C002B01D1012300E00023002BAB
:105980000AD14FF0500383F31188BFF36F8FBFF339
:105990004F8F3B6200BFFEE73B68022B03D13B6B9E
:1059A000DB6B012B01D1012300E00023002B0AD186
:1059B0004FF0500383F31188BFF36F8FBFF34F8F06
:1059C000FB6100BFFEE701F05BFEEFF311824FF0D9
:1059D000500383F31188BFF36F8FBFF34F8FBA610A
:1059E0007B61BB69FB623B6B9A6B3B6BDB6B9A42E7
:1059F00002D33B68022B2CD13B6B93F8453087F8E0
:105A00002B303A68B968386B00F010F997F92B30F1
:105A1000B3F1FF3F12D13B6B5B6A002B16D03B6B9F
:105A20002433184600F0C4FE0346002B0ED07B68DA
:105A3000002B0BD07B6801221A6007E097F82B300F
:105A40000133DBB25AB23B6B83F8452001237B6301
:105A500001E000237B63FB6A3B613B6983F31188B0
:105A600000BF7B6B18463837BD4680BD80B58CB013
:105A700000AFF860B9607A600023FB62FB68BB622C
:105A8000BB6A002B0AD14FF0500383F31188BFF398
:105A90006F8FBFF34F8F3B6200BFFEE7BB68002BE9
:105AA00003D1BB6A1B6C002B01D1012300E0002352
:105AB000002B0AD14FF0500383F31188BFF36F8F8F
:105AC000BFF34F8FFB6100BFFEE701F033F80346E1
:105AD000002B02D17B68002B01D1012300E00023C1
