:020000040800F2
:1000000000000120410C0008850B00088B0B000844
:10001000910B0008970B00089D0B000800000000E2
:10002000000000000000000000000000F14C00088B
:10003000A30B000800000000D14E0008AF0B000821
:10004000890C0008890C0008890C0008890C00083C
:10005000890C0008890C0008890C0008890C00082C
:10006000890C0008890C0008890C0008890C00081C
:10007000890C0008890C0008890C0008890C00080C
:10008000890C0008890C0008890C0008890C0008FC
:10009000890C0008890C0008890C0008890C0008EC
:1000A000890C0008890C0008890C0008890C0008DC
:1000B000890C0008890C0008890C0008890C0008CC
:1000C000890C0008890C0008890C0008890C0008BC
:1000D000890C0008890C0008890C0008890C0008AC
:1000E000890C0008890C0008890C0008890C00089C
:1000F000890C0008890C0008890C0008890C00088C
:10010000890C0008890C0008890C0008890C00087B
:10011000890C0008890C0008890C0008890C00086B
:10012000890C0008890C0008890C0008890C00085B
:1001300000000000000000000000000000000000BF
:1001400000000000000000000000000000000000AF
:10015000000000000000000000000000000000009F
:10016000000000000000000000000000000000008F
:10017000000000000000000000000000000000007F
:10018000000000000000000000000000000000006F
:10019000000000000000000000000000000000005F
:1001A000000000000000000000000000000000004F
:1001B000000000000000000000000000000000003F
:1001C000000000000000000000000000000000002F
:1001D000000000000000000000000000000000001F
:0401E0005FF8E0F1F3
:1001F00010B5054C237833B9044B13B10448AFF361
:1002000000800123237010BD740000200000000056
:100210000461000808B5034B1BB103490348AFF361
:10022000008008BD00000000780000200461000884
:1002300080B500AF00F02AFD00F056F800F0E2F9BA
:1002400000F036F900F08CF800F0DEF805F062FA04
:1002500002F0E4FB154A0021154802F045FC034674
:10026000144A1360144A0021144802F03DFC03466E
:10027000134A1360134A0021134802F035FC034669
:10028000124A1360124A0021124802F02DFC034664
:10029000114A1360114A0021114802F025FC03465F
:1002A000104A136002F0ECFBFEE700BFB8610008E3
:1002B0002507000818250020DC6100083507000824
:1002C000142500200062000871070008AC250020FA
:1002D00024620008E1070008B025002048620008F9
:1002E0009D080008B425002080B590B000AF07F14C
:1002F000180328220021184605F0D0FA3B1D0022E1
:100300001A605A609A60DA601A610223BB610123A5
:10031000BB621023FB6200237B6307F118031846BE
:1003200000F0E2FF0346002B01D000F015FB0F2385
:100330007B600023BB600023FB6000233B61002344
:100340007B613B1D0021184601F04EFA0346002B4D
:1003500001D000F001FB00BF4037BD4680BD00006A
:1003600080B58CB000AF07F10C03242200211846A1
:1003700005F094FA3B1D00221A605A60214B4FF0A1
:1003800080421A601F4B00225A601E4B00229A6066
:100390001C4B4FF6FF72DA601A4B00221A61194BA0
:1003A00000229A610323FB6000233B6101237B61F0
:1003B0000023BB610A23FB6100233B6201237B62B4
:1003C0000023BB620A23FB6207F10C0319460D48A8
:1003D00001F0D4FC0346002B01D000F0BDFA00234D
:1003E0007B600023BB603B1D1946064802F058FAAB
:1003F0000346002B01D000F0AFFA00BF3037BD46F6
:1004000080BD00BFB825002080B58CB000AF07F1DB
:100410000C0324220021184605F040FA3B1D00225F
:100420001A605A60204B214A1A601F4B00225A6002
:100430001D4B00229A601C4B4FF6FF72DA601A4B7C
:1004400000221A61184B00229A610323FB600023EB
:100450003B6101237B610023BB610A23FB61002315
:100460003B6201237B620023BB620A23FB6207F12C
:100470000C0319460C4801F081FC0346002B01D007
:1004800000F06AFA00237B600023BB603B1D194625
:10049000054802F005FA0346002B01D000F05CFA93
:1004A00000BF3037BD4680BD6425002000080040F5
:1004B00080B596B000AF07F1480300221A605A6079
:1004C0009A60DA6007F1400300221A605A6007F16F
:1004D000240300221A605A609A60DA601A615A6135
:1004E0009A613B1D20220021184605F0D7F9434BA5
:1004F000434A1A60414B00225A60404B00229A60E6
:100500003E4B41F61F42DA603C4B00221A613B4BE6
:1005100000225A61394B00229A61384801F0CCFA26
:100520000346002B01D000F017FA4FF48053BB6450
:1005300007F148031946314801F00EFE0346002B2F
:1005400001D000F009FA2D4801F005FB0346002B0D
:1005500001D000F001FA00233B6400237B6407F123
:1005600040031946254802F09BF90346002B01D0B1
:1005700000F0F2F960237B620023BB620023FB6280
:1005800000233B6300237B630023BB630023FB63E7
:1005900007F1240300221946184801F01FFD034605
:1005A000002B01D000F0D8F907F1240308221946E6
:1005B000124801F013FD0346002B01D000F0CCF9E6
:1005C00000237B600023BB600023FB6000233B61B2
:1005D00000237B614FF40053BB6100233B623B1D52
:1005E0001946064802F0C8F90346002B01D000F076
:1005F000B3F900BF5837BD4680BD00BF1C250020A1
:100600000034014080B588B000AF07F1100300222C
:100610001A605A609A60DA603E4B9B693D4A43F02B
:10062000400393613B4B9B6903F04003FB60FB6815
:10063000384B9B69374A43F004039361354B9B6900
:1006400003F00403BB60BB68324B9B69314A43F043
:10065000100393612F4B9B6903F010037B607B6851
:100660002C4B9B692B4A43F008039361294B9B69F0
:1006700003F008033B603B6800224FF48F5126488B
:1006800000F002FE00220C21244800F0FDFD0022B3
:100690002021234800F0F8FD4FF4F0733B61012363
:1006A0007B610023BB610223FB6107F11003194644
:1006B000194800F055FC0C233B6101237B610023AA
:1006C000BB610323FB6107F110031946134800F0D7
:1006D00047FC20233B6101237B610023BB61032393
:1006E000FB6107F1100319460D4800F039FC4FF487
:1006F00080533B6101237B610023BB610323FB61CA
:1007000007F110031946044800F02AFC00BF203707
:10071000BD4680BD001002400018014000080140A5
:100720000010014080B582B000AF7860012002F077
:1007300085FAFBE780B588B000AF78600B4A07F117
:100740000C0307CA03C31A8007F1160300221A60BC
:100750005A601A8107F10C031A460A210A2004F094
:10076000A7FF012002F06AFAF4E700BF5C6100080D
:1007700080B584B000AF78604FF47A73FB810021BC
:10078000134801F041FA0821114801F03DFA012215
:100790000421104800F078FD012220210E4800F0CD
:1007A00073FD002208210B4800F06EFD00224FF47B
:1007B00080510A4800F068FD054B1B68FA895A63AE
:1007C000034B1B68FA89DA63012002F037FADEE78F
:1007D0001C250020000801400010014000180140C5
:1007E00080B58EB000AF78603C212A4801F068FBEC
:1007F000284B1B685B6A7B6300F0A0FAF86200F08C
:100800009DFA0246FB6AD31AB3F57A7FF7D9214BDA
:100810001B685B6ABB621F4B1B681B6803F01003FD
:10082000102B10D1BA6A7B6B9A4204DA7A6BBB6ADE
:10083000D31A3B6317E0BB6AC3F57F43FF337A6B80
:1008400013443B630FE07A6BBB6A9A4204DABA6ADC
:100850007B6BD31A3B6306E07B6BC3F57F43FF33AF
:10086000BA6A13443B6307F108033A6B0A49184616
:1008700005F01CF807F108031A4614210A2004F0B9
:1008800017FF044B1B685B6A7B6300F057FAF86242
:10089000B5E700BFB82500207061000880B58EB0B4
:1008A00000AF78603C212A4801F00AFB284B1B6806
:1008B0005B6A7B6300F042FAF86200F03FFA02469E
:1008C000FB6AD31AB3F57A7FF7D9214B1B685B6AB1
:1008D000BB621F4B1B681B6803F01003102B10D169
:1008E000BA6A7B6B9A4204DA7A6BBB6AD31A3B63AF
:1008F00017E0BB6AC3F57F43FF337A6B13443B6356
:100900000FE07A6BBB6A9A4204DABA6A7B6BD31A3D
:100910003B6306E07B6BC3F57F43FF33BA6A134446
:100920003B6307F108033A6B0A49184604F0BEFF1F
:1009300007F108031A461E210A2004F0B9FE044BF1
:100940001B685B6A7B6300F0F9F9F862B5E700BFEA
:10095000642500208061000880B400AF72B600BF3B
:10096000FEE7000080B584B000AF184B9B69174AC2
:1009700043F001039361154B9B6903F00103BB60D6
:10098000BB68124BDB69114A43F08053D3610F4BB4
:10099000DB6903F080537B607B6800220F216FF0DE
:1009A000010000F0B4FA0A4B5B68FB60FB6823F0BF
:1009B000E063FB60FB6843F08063FB60044AFB6814
:1009C000536000BF1037BD4680BD00BF001002401D
:1009D0000000014080B58CB000AF786007F11C03C7
:1009E00000221A605A609A60DA607B681B68B3F173
:1009F000804F4FD13E4BDB693D4A43F00103D36149
:100A00003B4BDB6903F00103BB61BB69384B9B695E
:100A1000374A43F004039361354B9B6903F00403A9
:100A20007B617B69324B9B69314A43F008039361D8
:100A30002F4B9B6903F008033B613B694FF4004374
:100A4000FB6100233B6200237B6207F11C03194614
:100A5000284800F085FA0823FB6100233B6200234D
:100A60007B6207F11C031946234800F079FA234BF7
:100A70005B68FB62FB6A23F44073FB62FB6A43F032
:100A8000E063FB62FB6A43F48073FB621B4AFB6A10
:100A9000536028E07B681B68194A934223D1144BAA
:100AA000DB69134A43F00403D361114BDB6903F0A4
:100AB0000403FB60FB680E4B9B690D4A43F008037F
:100AC00093610B4B9B6903F00803BB60BB68C023B9
:100AD000FB6100233B6200237B6207F11C03194684
:100AE000054800F03DFA00BF3037BD4680BD00BF6D
:100AF0000010024000080140000C014000000140CD
:100B00000008004080B588B000AF786007F110039E
:100B100000221A605A609A60DA607B681B68164A85
:100B2000934224D1154B9B69144A43F400539361BB
:100B3000124B9B6903F40053FB60FB680F4B9B69EE
:100B40000E4A43F0100393610C4B9B6903F01003B2
:100B5000BB60BB684FF4A0733B6102237B6102233F
:100B6000FB6107F110031946054800F0F9F900BFD1
:100B70002037BD4680BD00BF003401400010024058
:100B80000010014080B400AFFEE780B400AFFEE784
:100B900080B400AFFEE780B400AFFEE780B400AFE2
:100BA000FEE780B400AF00BFBD4680BC704780B593
:100BB00000AF00F0B1F803F04DFC0346012B01D06B
:100BC00004F0AAF900BF80BD80B586B000AF7860A0
:100BD000144A154BD31A7B617B693B61134B1B682D
:100BE000002B02D1114B124A1A60104B1A687B6815
:100BF00013443A699A4207D204F018FE03460C22C5
:100C00001A604FF0FF3309E0084B1B68FB60074B8D
:100C10001A687B681344054A1360FB681846183746
:100C2000BD4680BD000001200004000090000020AF
:100C3000582A002080B400AF00BFBD4680BC70477A
:100C40000C480D490D4A002302E0D458C450043327
:100C5000C4188C42F9D30A4A0A4C002301E01360FD
:100C60000432A242FBD3FFF7E5FF04F0E5FDFFF7F6
:100C7000DFFA704700000020740000201C6D00089F
:100C800074000020542A0020FEE7000080B500AF69
:100C9000084B1B68074A43F010031360032000F061
:100CA0002BF90F2000F008F8FFF75CFE0023184630
:100CB00080BD00BF0020024080B582B000AF7860E8
:100CC000124B1A68124B1B7819464FF47A73B3FB18
:100CD000F1F3B2FBF3F3184600F035F90346002BAD
:100CE00001D001230EE07B680F2B0AD8002279681F
:100CF0004FF0FF3000F00BF9064A7B6813600023C9
:100D000000E0012318460837BD4680BD00000020E2
:100D1000080000200400002080B400AF054B1B78C1
:100D20001A46054B1B681344034A136000BFBD46B7
:100D300080BC7047080000200026002080B400AF6F
:100D4000024B1B681846BD4680BC70470026002039
:100D500080B584B000AF7860FFF7F0FFB8607B68C3
:100D6000FB60FB68B3F1FF3F05D00A4B1B781A46C6
:100D7000FB681344FB6000BFFFF7E0FF0246BB685F
:100D8000D31AFA689A42F7D800BF00BF1037BD46A1
:100D900080BD00BF0800002080B485B000AF78603F
:100DA0007B6803F00703FB600C4BDB68BB60BA6831
:100DB0004FF6FF031340BB60FB681A02BB68134386
:100DC00043F0BF6343F40033BB60044ABB68D360A5
:100DD00000BF1437BD4680BC704700BF00ED00E087
:100DE00080B400AF044BDB681B0A03F0070318460E
:100DF000BD4680BC704700BF00ED00E080B483B00A
:100E000000AF03463960FB7197F90730002B0ADB0E
:100E10003B68DAB20C4997F907301201D2B20B44A1
:100E200083F800230AE03B68DAB20849FB7903F053
:100E30000F03043B1201D2B20B441A7600BF0C37E9
:100E4000BD4680BC704700BF00E100E000ED00E05F
:100E500080B489B000AFF860B9607A60FB6803F0D5
:100E60000703FB61FB69C3F10703042B28BF0423BD
:100E7000BB61FB690433062B02D9FB69033B00E02D
:100E800000237B614FF0FF32BB6902FA03F3DA43C0
:100E9000BB681A407B699A404FF0FF317B6901FAC9
:100EA00003F3D9437B680B40134318462437BD46F0
:100EB00080BC704780B582B000AF78607B68013B32
:100EC000B3F1807F01D301230FE00A4A7B68013B25
:100ED00053600F214FF0FF30FFF790FF054B0022CA
:100EE0009A60044B07221A60002318460837BD4653
:100EF00080BD00BF10E000E080B582B000AF786038
:100F00007868FFF749FF00BF0837BD4680BD80B550
:100F100086B000AF0346B9607A60FB7300237B6143
:100F2000FFF75EFF78617A68B9687869FFF790FF2C
:100F3000024697F90F3011461846FFF75FFF00BFD2
:100F40001837BD4680BD80B582B000AF7860786844
:100F5000FFF7B0FF034618460837BD4680BD0000C6
:100F600080B48BB000AF7860396000237B620023CF
:100F70003B6279E101227B6A02FA03F3FB613B6881
:100F80001B68FA691340BB61BA69FB699A4240F079
:100F900068813B685B68A04A93425ED09E4A934258
:100FA00075D89E4A934258D09C4A93426FD89C4A27
:100FB000934252D09A4A934269D89A4A93424CD06B
:100FC000984A934263D8984A934246D0964A9342AD
:100FD0005DD8122B2AD8122B59D801A252F823F02F
:100FE0005B10000835100008471000088910000841
:100FF0008F1000088F1000088F1000088F10000855
:101000008F1000088F1000088F1000088F10000844
:101010008F1000088F1000088F1000088F10000834
:101020008F1000083D100008511000087F4A9342BD
:1010300013D02CE03B68DB683B6229E03B68DB684F
:1010400004333B6224E03B68DB6808333B621FE00B
:101050003B68DB680C333B621AE03B689B68002B03
:1010600002D104233B6213E03B689B68012B05D14E
:1010700008233B627B68FA691A6109E008233B6236
:101080007B68FA695A6103E000233B6200E000BF1D
:10109000BB69FF2B01D87B6801E07B6804337B616F
:1010A000BB69FF2B02D87B6A9B0002E07B6A083B8E
:1010B0009B003B617B691A680F213B6901FA03F3CE
:1010C000DB431A40396A3B6901FA03F31A437B692F
:1010D0001A603B685B6803F08053002B00F0C1800E
:1010E000534B9B69524A43F001039361504B9B69F8
:1010F00003F00103BB60BB684E4A7B6A9B08023366
:1011000052F82330FB607B6A03F003039B000F223D
:1011100002FA03F3DB43FA681340FB607B68464A3C
:1011200093421FD07B68454A934219D07B68444A5A
:10113000934213D07B68434A93420DD07B68424A66
:10114000934207D07B68414A934201D105230AE0CC
:10115000062308E0042306E0032304E0022302E060
:10116000012300E000237A6A02F003029200934018
:10117000FA681343FB602F497B6A9B080233FA68C5
:1011800041F823203B685B6803F48033002B06D0D2
:101190002F4B1A682E49BB6913430B6006E02C4B9A
:1011A0001A68BB69DB432A4913400B603B685B68E4
:1011B00003F40033002B06D0254B5A682449BB6941
:1011C00013434B6006E0224B5A68BB69DB4320495E
:1011D00013404B603B685B6803F48013002B06D020
:1011E0001B4B9A681A49BB6913438B6006E0184B86
:1011F0009A68BB69DB43164913408B603B685B68A8
:1012000003F40013002B25D0114BDA681049BB6999
:101210001343CB6025E000BF000032100000311006
:101220000000221000002110000012100000111018
:10123000001002400000014000080140000C014085
:10124000001001400014014000180140001C014042
:10125000000401400B4BDA68BB69DB4309491340CA
:10126000CB607B6A01337B623B681A687B6A22FA37
:1012700003F3002B7FF47EAE00BF00BF2C37BD46CA
:1012800080BC70470004014080B483B000AF786038
:101290000B467B8013467B707B78002B03D07A88CB
:1012A0007B681A6103E07B881A047B681A6100BFBF
:1012B0000C37BD4680BC704780B400AF034B0122A1
:1012C0001A6000BFBD4680BC704700BF20000E42C0
:1012D00080B400AF034B00221A6000BFBD4680BC43
:1012E000704700BF20000E4280B586B000AF786026
:1012F0007B68002B01D101236CE27B681B6803F043
:101300000103002B00F08780924B5B6803F00C0315
:10131000042B0CD08F4B5B6803F00C03082B12D10D
:101320008C4B5B6803F48033B3F5803F0BD1894B62
:101330001B6803F40033002B6CD07B685B68002BC8
:1013400068D1012346E27B685B68B3F5803F06D134
:10135000804B1B687F4A43F4803313602EE07B6828
:101360005B68002B0CD17B4B1B687A4A23F48033DB
:101370001360784B1B68774A23F4802313601DE0C9
:101380007B685B68B3F5A02F0CD1724B1B68714A68
:1013900043F4802313606F4B1B686E4A43F4803321
:1013A00013600BE06B4B1B686A4A23F480331360B5
:1013B000684B1B68674A23F4802313607B685B6873
:1013C000002B13D0FFF7BAFC386108E0FFF7B6FC3A
:1013D00002463B69D31A642B01D90323FAE15D4B22
:1013E0001B6803F40033002BF0D014E0FFF7A6FCD9
:1013F000386108E0FFF7A2FC02463B69D31A642B70
:1014000001D90323E6E1534B1B6803F40033002B9F
:10141000F0D100E000BF7B681B6803F00203002BE3
:1014200063D04C4B5B6803F00C03002B0BD0494B93
:101430005B6803F00C03082B1CD1464B5B6803F47C
:101440008033002B16D1434B1B6803F00203002BA3
:1014500005D07B681B69012B01D00123BAE13D4B0C
:101460001B6823F0F8027B685B69DB003949134392
:101470000B603AE07B681B69002B20D0364B0122C1
:101480001A60FFF75BFC386108E0FFF757FC024683
:101490003B69D31A022B01D903239BE12D4B1B6817
:1014A00003F00203002BF0D02A4B1B6823F0F80254
:1014B0007B685B69DB00274913430B6015E0264B13
:1014C00000221A60FFF73AFC386108E0FFF736FCAB
:1014D00002463B69D31A022B01D903237AE11D4B43
:1014E0001B6803F00203002BF0D17B681B6803F03C
:1014F0000803002B3AD07B689B69002B19D0174B4F
:1015000001221A60FFF71AFC386108E0FFF716FCA9
:1015100002463B69D31A022B01D903235AE10D4B32
:101520005B6A03F00203002BF0D0012000F0A6FA62
:101530001CE00A4B00221A60FFF700FC38610FE044
:10154000FFF7FCFB02463B69D31A022B08D90323A1
:1015500040E100BF001002400000424280044242CD
:101560009E4B5B6A03F00203002BE9D17B681B688A
:1015700003F00403002B00F0A6800023FB75974BBB
:10158000DB6903F08053002B0DD1944BDB69934A48
:1015900043F08053D361914BDB6903F08053BB6010
:1015A000BB680123FB758E4B1B6803F48073002B13
:1015B00018D18B4B1B688A4A43F480731360FFF782
:1015C000BDFB386108E0FFF7B9FB02463B69D31A5F
:1015D000642B01D90323FDE0814B1B6803F4807366
:1015E000002BF0D07B68DB68012B06D17B4B1B6A9C
:1015F0007A4A43F0010313622DE07B68DB68002B1D
:101600000CD1764B1B6A754A23F001031362734BAE
:101610001B6A724A23F0040313621CE07B68DB68D8
:10162000052B0CD16D4B1B6A6C4A43F0040313620B
:101630006A4B1B6A694A43F0010313620BE0674B74
:101640001B6A664A23F001031362644B1B6A634AF8
:1016500023F0040313627B68DB68002B15D0FFF7CF
:101660006DFB38610AE0FFF769FB02463B69D31A5C
:1016700041F28832934201D90323ABE0574B1B6AF6
:1016800003F00203002BEED014E0FFF757FB3861A4
:101690000AE0FFF753FB02463B69D31A41F2883256
:1016A000934201D9032395E04C4B1B6A03F00203DC
:1016B000002BEED1FB7D012B05D1484BDB69474A5E
:1016C00023F08053D3617B68DB69002B00F08180BD
:1016D000424B5B6803F00C03082B61D07B68DB692D
:1016E000022B46D13F4B00221A60FFF727FB3861DF
:1016F00008E0FFF723FB02463B69D31A022B01D90E
:10170000032367E0354B1B6803F00073002BF0D117
:101710007B681B6AB3F5803F08D1304B5B6823F4CC
:1017200000327B689B682D4913434B602B4B5B68F1
:1017300023F474127B68196A7B685B6A0B43274940
:1017400013434B60274B01221A60FFF7F7FA386109
:1017500008E0FFF7F3FA02463B69D31A022B01D9DE
:10176000032337E01D4B1B6803F00073002BF0D000
:101770002FE01C4B00221A60FFF7E0FA386108E006
:10178000FFF7DCFA02463B69D31A022B01D9032387
:1017900020E0124B1B6803F00073002BF0D118E01F
:1017A0007B68DB69012B01D1012313E00B4B5B68E4
:1017B000FB60FB6803F480327B681B6A9A4206D1A7
:1017C000FB6803F470127B685B6A9A4201D00123C4
:1017D00000E0002318461837BD4680BD00100240C7
:1017E000007000406000424280B584B000AF786075
:1017F00039607B68002B01D10123D0E06A4B1B6864
:1018000003F007033A689A4210D9674B1B6823F02C
:10181000070265493B6813430B60634B1B6803F089
:1018200007033A689A4201D00123B8E07B681B683D
:1018300003F00203002B20D07B681B6803F0040335
:10184000002B05D0594B5B68584A43F4E063536062
:101850007B681B6803F00803002B05D0534B5B68C3
:10186000524A43F460535360504B5B6823F0F002DC
:101870007B689B684D4913434B607B681B6803F092
:101880000103002B40D07B685B68012B07D1474BDD
:101890001B6803F40033002B15D101237FE07B6824
:1018A0005B68022B07D1414B1B6803F00073002BD0
:1018B00009D1012373E03D4B1B6803F00203002BA9
:1018C00001D101236BE0394B5B6823F003027B6895
:1018D0005B68364913434B60FFF730FAF8600AE063
:1018E000FFF72CFA0246FB68D31A41F28832934282
:1018F00001D9032353E02D4B5B6803F00C027B6896
:101900005B689B009A42EBD1274B1B6803F00703EF
:101910003A689A4210D2244B1B6823F007022249EE
:101920003B6813430B60204B1B6803F007033A68C6
:101930009A4201D0012332E07B681B6803F0040364
:10194000002B08D0194B5B6823F4E0627B68DB68EE
:10195000164913434B607B681B6803F00803002B98
:1019600009D0124B5B6823F460527B681B69DB0073
:101970000E4913434B6000F021F802460B4B5B68A5
:101980001B0903F00F030A49CB5C22FA03F3094A4F
:101990001360094B1B681846FFF78EF900231846A1
:1019A0001037BD4680BD00BF00200240001002403D
:1019B0006C620008000000200400002090B48AB08F
:1019C00000AF2A4B3C1D0FCB84E80F0040F20123EF
:1019D0003B800023FB610023BB6100237B6200236B
:1019E0007B6100233B62224B5B68FB61FB6903F078
:1019F0000C03042B02D0082B03D02DE01D4B3B62BF
:101A00002DE0FB699B0C03F00F0307F12802134440
:101A100013F8243C7B61FB6903F48033002B13D063
:101A2000134B5B685B0C03F0010307F128021344BE
:101A300013F8283CBB617B690E4A02FB03F2BB69C9
:101A4000B2FBF3F37B6204E07B690B4A02FB03F316
:101A50007B627B6A3B6202E0064B3B6200BF3B6AF3
:101A600018462837BD4690BC704700BF90610008FB
:101A70000010024000127A0000093D0080B485B0D9
:101A800000AF78600A4B1B680A4AA2FB03235B0A7B
:101A90007A6802FB03F3FB6000BFFB685A1EFA6022
:101AA000002BF9D100BF00BF1437BD4680BC704782
:101AB00000000020D34D621080B582B000AF786086
:101AC0007B68002B01D1012341E07B6893F83D3016
:101AD000DBB2002B06D17B68002283F83C207868BB
:101AE000FFF710F87B68022283F83D207B681A68B4
:101AF0007B6804331946104600F0F2FB7B68012234
:101B000083F846207B68012283F83E207B6801220F
:101B100083F83F207B68012283F840207B68012204
:101B200083F841207B68012283F842207B680122F0
:101B300083F843207B68012283F844207B680122DC
:101B400083F845207B68012283F83D200023184656
:101B50000837BD4680BD80B582B000AF78607B6835
:101B6000002B01D1012341E07B6893F83D30DBB2CB
:101B7000002B06D17B68002283F83C20786800F0B7
:101B800039F87B68022283F83D207B681A687B68FD
:101B900004331946104600F0A3FB7B68012283F84A
:101BA00046207B68012283F83E207B68012283F86F
:101BB0003F207B68012283F840207B68012283F864
:101BC00041207B68012283F842207B68012283F850
:101BD00043207B68012283F844207B68012283F83C
:101BE00045207B68012283F83D20002318460837F2
:101BF000BD4680BD80B483B000AF786000BF0C37B5
:101C0000BD4680BC7047000080B584B000AF7860EE
:101C100039603B68002B09D17B6893F83E30DBB21A
:101C2000012B14BF01230023DBB222E03B68042B0D
:101C300009D17B6893F83F30DBB2012B14BF01233D
:101C40000023DBB215E03B68082B09D17B6893F8D1
:101C50004030DBB2012B14BF01230023DBB208E0CC
:101C60007B6893F84130DBB2012B14BF01230023C2
:101C7000DBB2002B01D0012372E03B68002B04D1C2
:101C80007B68022283F83E2013E03B68042B04D1DA
:101C90007B68022283F83F200BE03B68082B04D1CD
:101CA0007B68022283F8402003E07B68022283F8ED
:101CB00041207B681B6801223968184600F0CCFD82
:101CC0007B681B68284A934204D07B681B68274ABC
:101CD000934201D1012300E00023002B07D07B6851
:101CE0001B685A6C7B681B6842F400425A647B682C
:101CF0001B681D4A934218D07B681B681B4A93429D
:101D000013D07B681B68B3F1804F0ED07B681B68D3
:101D1000174A934209D07B681B68164A934204D045
:101D20007B681B68144A934211D17B681B689B68CF
:101D300003F00703FB60FB68062B10D07B681B6871
:101D40001A687B681B6842F001021A6007E07B6832
:101D50001B681A687B681B6842F001021A60002346
:101D600018461037BD4680BD002C014000340140AC
:101D70000004004000080040000C004080B586B020
:101D800000AF786039607B68002B01D1012393E0BC
:101D90007B6893F83D30DBB2002B06D17B680022D4
:101DA00083F83C207868FEF715FE7B68022283F8F2
:101DB0003D207B681B689B687A68126823F4804327
:101DC00023F0070393607B681A687B680433194625
:101DD000104600F085FA7B681B689B687B617B6816
:101DE0001B689B693B617B681B681B6AFB603B68E7
:101DF0001B687A6913437B613B6923F4407323F0CA
:101E000003033B613B689A683B689B691B02134371
:101E10003A6913433B613B6923F4406323F00C03AD
:101E20003B613B6923F4704323F0F0033B613B6863
:101E3000DA683B68DB691B0213433A6913433B6171
:101E40003B681B691A013B681B6A1B0313433A6911
:101E500013433B61FB6823F02203FB603B685A6835
:101E60003B685B691B011343FA681343FB607B68A3
:101E70001B687A699A607B681B683A699A617B681B
:101E80001B68FA681A627B68012283F846207B6827
:101E9000012283F83E207B68012283F83F207B6883
:101EA000012283F842207B68012283F843207B686B
:101EB000012283F83D20002318461837BD4680BD17
:101EC00080B584B000AF786039607B6893F83E30AD
:101ED000FB737B6893F83F30BB737B6893F84230A9
:101EE0007B737B6893F843303B733B68002B10D1C6
:101EF000FB7B012B02D17B7B012B01D0012369E00D
:101F00007B68022283F83E207B68022283F842200D
:101F100031E03B68042B10D1BB7B012B02D13B7B12
:101F2000012B01D0012355E07B68022283F83F207A
:101F30007B68022283F843201DE0FB7B012B08D144
:101F4000BB7B012B05D17B7B012B02D13B7B012B82
:101F500001D001233EE07B68022283F83E207B68AB
:101F6000022283F83F207B68022283F842207B68AC
:101F7000022283F843203B68002B03D03B68042BEC
:101F800008D00FE07B681B6801220021184600F092
:101F900063FC16E07B681B6801220421184600F0F0
:101FA0005BFC0EE07B681B6801220021184600F0F4
:101FB00053FC7B681B6801220421184600F04CFC8E
:101FC00000BF7B681B681A687B681B6842F00102CF
:101FD0001A60002318461037BD4680BD80B584B016
:101FE00000AFF860B9607A60FB6893F83C30012B71
:101FF00001D10223ACE0FB68012283F83C207B681E
:102000000C2B00F29F8001A252F823F0412000081F
:1020100045210008452100084521000881200008CD
:10202000452100084521000845210008C32000087B
:10203000452100084521000845210008032100082A
:10204000FB681B68B968184600F0C4F9FB681B6898
:102050009A69FB681B6842F008029A61FB681B687A
:102060009A69FB681B6822F004029A61FB681B688E
:102070009969BB681A69FB681B680A439A6162E048
:10208000FB681B68B968184600F014FAFB681B6807
:102090009A69FB681B6842F400629A61FB681B68DE
:1020A0009A69FB681B6822F480629A61FB681B686E
:1020B0009969BB681B691A02FB681B680A439A612D
:1020C00041E0FB681B68B968184600F067FAFB68D6
:1020D0001B68DA69FB681B6842F00802DA61FB687A
:1020E0001B68DA69FB681B6822F00402DA61FB688E
:1020F0001B68D969BB681A69FB681B680A43DA6107
:1021000021E0FB681B68B968184600F0BBFAFB6861
:102110001B68DA69FB681B6842F40062DA61FB68DD
:102120001B68DA69FB681B6822F48062DA61FB686D
:102130001B68D969BB681B691A02FB681B680A43E4
:10214000DA6100E000BFFB68002283F83C20002336
:1021500018461037BD4680BD80B584B000AF7860AA
:1021600039607B6893F83C30012B01D10223B3E046
:102170007B68012283F83C207B68022283F83D20A3
:102180007B681B689B68FB60FB6823F07703FB6040
:10219000FB6823F47F43FB607B681B68FA689A60E6
:1021A0003B681B68B3F5005F3ED0B3F5005F00F2FB
:1021B0008780B3F5805F00F08580B3F5805F7FD8BE
:1021C000702B1AD0702B7BD8602B50D0602B77D817
:1021D000502B3CD0502B73D8402B58D0402B6FD86D
:1021E000302B64D0302B6BD8202B60D0202B67D8BD
:1021F000002B5CD0102B5AD062E07B6818683B68DB
:1022000099683B685A683B68DB6800F006FB7B68AE
:102210001B689B68FB60FB6843F07703FB607B688F
:102220001B68FA689A604EE07B6818683B6899689A
:102230003B685A683B68DB6800F0EFFA7B681B6814
:102240009A687B681B6842F480429A603BE07B6836
:1022500018683B6859683B68DB681A4600F066FA04
:102260007B681B685021184600F0BDFA2BE07B68A4
:1022700018683B6859683B68DB681A4600F084FAC6
:102280007B681B686021184600F0ADFA1BE07B6894
:1022900018683B6859683B68DB681A4600F046FAE4
:1022A0007B681B684021184600F09DFA0BE07B68B4
:1022B0001A683B681B681946104600F094FA02E061
:1022C00000BF00E000BF7B68012283F83D207B68EF
:1022D000002283F83C20002318461037BD4680BDFD
:1022E00080B485B000AF786039607B681B68FB60A4
:1022F0007B68334A934213D07B68324A93420FD0B3
:102300007B68B3F1804F0BD07B682F4A934207D094
:102310007B682E4A934203D07B682D4A934208D1B2
:10232000FB6823F07003FB603B685B68FA6813434B
:10233000FB607B68224A934213D07B68214A934218
:102340000FD07B68B3F1804F0BD07B681E4A93425D
:1023500007D07B681D4A934203D07B681C4A934296
:1023600008D1FB6823F44073FB603B68DB68FA68C4
:102370001343FB60FB6823F080023B685B691343F7
:10238000FB607B68FA681A603B689A687B68DA626F
:102390003B681A687B689A627B68094A934203D05B
:1023A0007B68084A934203D13B681A697B681A63C9
:1023B0007B6801225A6100BF1437BD4680BC70475C
:1023C000002C01400034014000040040000800409F
:1023D000000C004080B487B000AF786039607B6843
:1023E0001B6A23F001027B681A627B681B6A7B61AF
:1023F0007B685B683B617B689B69FB60FB6823F0E3
:102400007003FB60FB6823F00303FB603B681B6801
:10241000FA681343FB607B6923F002037B613B682E
:102420009B687A6913437B617B68204A934203D09F
:102430007B681F4A93420CD17B6923F008037B61C0
:102440003B68DB687A6913437B617B6923F0040393
:102450007B617B68154A934203D07B68144A9342A0
:1024600011D13B6923F480733B613B6923F4007312
:102470003B613B685B693A6913433B613B689B691D
:102480003A6913433B617B683A695A607B68FA6832
:102490009A613B685A687B685A637B687A691A62FA
:1024A00000BF1C37BD4680BC704700BF002C0140F8
:1024B0000034014080B487B000AF786039607B6839
:1024C0001B6A23F010027B681A627B681B6A7B61BF
:1024D0007B685B683B617B689B69FB60FB6823F4FE
:1024E000E043FB60FB6823F44073FB603B681B68C0
:1024F0001B02FA681343FB607B6923F020037B61B6
:102500003B689B681B017A6913437B617B68214AA6
:10251000934203D07B68204A93420DD17B6923F01C
:1025200080037B613B68DB681B017A6913437B6135
:102530007B6923F040037B617B68164A934203D09A
:102540007B68154A934213D13B6923F480633B6156
:102550003B6923F400633B613B685B699B003A691C
:1025600013433B613B689B699B003A6913433B61A2
:102570007B683A695A607B68FA689A613B685A6876
:102580007B689A637B687A691A6200BF1C37BD4614
:1025900080BC7047002C01400034014080B487B0FB
:1025A00000AF786039607B681B6A23F480727B68B7
:1025B0001A627B681B6A7B617B685B683B617B6836
:1025C000DB69FB60FB6823F07003FB60FB6823F0B2
:1025D0000303FB603B681B68FA681343FB607B697D
:1025E00023F400737B613B689B681B027A69134389
:1025F0007B617B68214A934203D07B68204A9342E7
:102600000DD17B6923F400637B613B68DB681B02AF
:102610007A6913437B617B6923F480637B617B6808
:10262000164A934203D07B68154A934213D13B6903
:1026300023F480533B613B6923F400533B613B68C7
:102640005B691B013A6913433B613B689B691B0152
:102650003A6913433B617B683A695A607B68FA6860
:10266000DA613B685A687B68DA637B687A691A6268
:1026700000BF1C37BD4680BC704700BF002C014026
:102680000034014080B487B000AF786039607B6867
:102690001B6A23F480527B681A627B681B6A3B6169
:1026A0007B685B687B617B68DB69FB60FB6823F4AC
:1026B000E043FB60FB6823F44073FB603B681B68EE
:1026C0001B02FA681343FB603B6923F400533B6130
:1026D0003B689B681B033A6913433B617B68114A63
:1026E000934203D07B68104A934209D17B6923F45B
:1026F00080437B613B685B699B017A6913437B6123
:102700007B687A695A607B68FA68DA613B685A6864
:102710007B681A647B683A691A6200BF1C37BD4641
:1027200080BC7047002C01400034014080B487B069
:1027300000AFF860B9607A60FB681B6A7B61FB6878
:102740001B6A23F00102FB681A62FB689B693B610C
:102750003B6923F0F0033B617B681B013A6913433B
:102760003B617B6923F00A037B617A69BB68134391
:102770007B61FB683A699A61FB687A691A6200BFFB
:102780001C37BD4680BC704780B487B000AFF8608E
:10279000B9607A60FB681B6A23F01002FB681A625A
:1027A000FB689B697B61FB681B6A3B617B6923F467
:1027B00070437B617B681B037A6913437B613B69D0
:1027C00023F0A0033B61BB681B013A6913433B61E3
:1027D000FB687A699A61FB683A691A6200BF1C3724
:1027E000BD4680BC704780B485B000AF786039606A
:1027F0007B689B68FB60FB6823F07003FB603A68B2
:10280000FB68134343F00703FB607B68FA689A6038
:1028100000BF1437BD4680BC704780B487B000AF9E
:10282000F860B9607A603B60FB689B687B617B699C
:1028300023F47F437B613B681A027B681A43BB68C1
:1028400013437A6913437B61FB687A699A6000BF1E
:102850001C37BD4680BC704780B487B000AFF860BD
:10286000B9607A60BB6803F01F03012202FA03F328
:102870007B61FB681A6A7B69DB431A40FB681A625A
:10288000FB681A6ABB6803F01F03796801FA03F357
:102890001A43FB681A6200BF1C37BD4680BC7047F4
:1028A00080B485B000AF786039607B6893F83C30C5
:1028B000012B01D1022350E07B68012283F83C20E8
:1028C0007B68022283F83D207B681B685B68FB60A5
:1028D0007B681B689B68BB60FB6823F07003FB6030
:1028E0003B681B68FA681343FB607B681B68FA68E7
:1028F0005A607B681B681B4A934218D07B681B6830
:10290000194A934213D07B681B68B3F1804F0ED0F5
:102910007B681B68154A934209D07B681B68144A80
:10292000934204D07B681B68124A93420CD1BB6867
:1029300023F08003BB603B685B68BA681343BB60ED
:102940007B681B68BA689A607B68012283F83D2027
:102950007B68002283F83C20002318461437BD46CC
:1029600080BC7047002C014000340140000400404E
:1029700000080040000C004080B485B000AF7860D3
:1029800039600023FB607B6893F83C30012B01D158
:1029900002233DE07B68012283F83C20FB6823F0A2
:1029A000FF023B68DB681343FB60FB6823F4407263
:1029B0003B689B681343FB60FB6823F480623B68C1
:1029C0005B681343FB60FB6823F400623B681B6891
:1029D0001343FB60FB6823F480523B681B6913437D
:1029E000FB60FB6823F400523B685B691343FB60A8
:1029F000FB6823F480423B68DB691343FB607B6820
:102A00001B68FA685A647B68002283F83C20002324
:102A100018461437BD4680BC7047000080B485B0AE
:102A200000AFEFF30583BB60BB68002B0FD1EFF362
:102A300010837B607B68002B09D1104B1B68022B35
:102A400009D1EFF311833B603B68002B03D06FF09B
:102A50000503FB600CE0094B1B68002B05D1074BFD
:102A600001221A600023FB6002E04FF0FF33FB609D
:102A7000FB6818461437BD4680BC704794000020A0
:102A800080B584B000AFEFF30583BB60BB68002B5B
:102A90000FD1EFF310837B607B68002B09D1114BC2
:102AA0001B68022B09D1EFF311833B603B68002BBD
:102AB00003D06FF00503FB600EE00A4B1B68012B8F
:102AC00007D1084B02221A6001F078F80023FB605E
:102AD00002E04FF0FF33FB60FB6818461037BD463D
:102AE00080BD00BF9400002080B592B004AFF860B4
:102AF000B9607A6000237B61EFF305837B627B6AB8
:102B0000002B40F09480EFF310833B623B6A002B74
:102B100040F08D80484B1B68022B06D1EFF31183E8
:102B2000FB61FB69002B40F08280FB68002B7ED0AC
:102B300080233B631823FB620023FB7607F11B0312
:102B40007B634FF0FF33BB627B68002B45D07B6813
:102B50001B68002B02D07B681B687B637B689B69CA
:102B6000002B02D07B689B69FB62FB6A002B08D0BC
:102B7000FB6A382B05D87B685B6803F00103002BE8
:102B800001D0002354E07B685B69002B03D07B6895
:102B90005B699B083B637B689B68002B0ED07B685E
:102BA000DB685B2B0AD97B681B69002B06D07B682E
:102BB0005B69002B02D00123BB6210E07B689B683D
:102BC000002B0CD17B68DB68002B08D17B681B696C
:102BD000002B04D10023BB6201E00023BB62BB6A6F
:102BE000012B10D17B681B697A689268029201936D
:102BF000FB6A0093BB683A6B796BF86800F012FED1
:102C000003467B6113E0BB6A002B10D13B6B9AB289
:102C100007F114030193FB6A0093BB68796BF868B2
:102C200000F05CFE0346012B01D000237B617B6931
:102C300018463837BD4680BD9400002080B586B068
:102C400000AF7860EFF305833B613B69002B0FD148
:102C5000EFF31083FB60FB68002B09D10D4B1B6861
:102C6000022B09D1EFF31183BB60BB68002B03D0AB
:102C70006FF005037B6107E000237B617B68002B1D
:102C800002D0786800F066FF7B6918461837BD46A9
:102C900080BD00BF9400002080B485B000AFF86014
:102CA000B9607A60FB68064A1A60BB68054A1A6018
:102CB0007B6880221A6000BF1437BD4680BC704715
:102CC00098000020F400002080B485B000AFF860C8
:102CD000B9607A60FB68074A1A60BB68064A1A60E6
:102CE0007B684FF480721A6000BF1437BD4680BC09
:102CF000704700BFF40200205003002080B483B06E
:102D000000AF78607B6803F108027B685A607B68DB
:102D10004FF0FF329A607B6803F108027B68DA604B
:102D20007B6803F108027B681A617B6800221A60E5
:102D300000BF0C37BD4680BC704780B483B000AF85
:102D400078607B6800221A6100BF0C37BD4680BCEA
:102D5000704780B485B000AF786039607B685B688D
:102D6000FB603B68FA685A60FB689A683B689A6047
:102D7000FB689B683A685A60FB683A689A603B68EF
:102D80007A681A617B681B685A1C7B681A6000BFEE
:102D90001437BD4680BC704780B485B000AF786002
:102DA00039603B681B68BB60BB68B3F1FF3F03D170
:102DB0007B681B69FB600CE07B680833FB6002E00A
:102DC000FB685B68FB60FB685B681B68BA689A42DB
:102DD000F6D2FB685A683B685A603B685B683A68A1
:102DE0009A603B68FA689A60FB683A685A603B6888
:102DF0007A681A617B681B685A1C7B681A6000BF7E
:102E00001437BD4680BC704780B485B000AF786091
:102E10007B681B69FB607B685B687A6892689A6074
:102E20007B689B687A6852685A60FB685B687A685E
:102E30009A4203D17B689A68FB685A607B680022DB
:102E40001A61FB681B685A1EFB681A60FB681B68E6
:102E500018461437BD4680BC7047000080B584B06A
:102E600000AF786039607B68FB60FB68002B0AD19B
:102E70004FF0500383F31188BFF36F8FBFF34F8F71
:102E8000BB6000BFFEE701F0C9FFFB681A68FB6882
:102E9000DB6BF968096C01FB03F31A44FB685A60A9
:102EA000FB6800229A63FB681A68FB689A60FB68FB
:102EB0001A68FB68DB6B013BF968096C01FB03F3E3
:102EC0001A44FB68DA60FB68FF2283F84420FB6841
:102ED000FF2283F845203B68002B14D1FB681B6957
:102EE000002B1AD0FB681033184601F0F1F80346A6
:102EF000002B12D00C4B4FF080521A60BFF34F8F53
:102F0000BFF36F8F09E0FB6810331846FFF7F6FE3A
:102F1000FB6824331846FFF7F1FE01F0AFFF0123F1
:102F200018461037BD4680BD04ED00E080B58EB078
:102F300002AFF860B9607A603B60FB68002B0AD191
:102F40004FF0500383F31188BFF36F8FBFF34F8FA0
:102F5000BB6200BFFEE73B68002B0AD14FF0500375
:102F600083F31188BFF36F8FBFF34F8F7B6200BF76
:102F7000FEE77B68002B02D0BB68002B01D0012349
:102F800000E00023002B0AD14FF0500383F3118897
:102F9000BFF36F8FBFF34F8F3B6200BFFEE77B68CD
:102FA000002B02D1BB68002B01D1012300E00023DC
:102FB000002B0AD14FF0500383F31188BFF36F8FBA
:102FC000BFF34F8FFB6100BFFEE750237B617B693E
:102FD000502B0AD04FF0500383F31188BFF36F8F4B
:102FE000BFF34F8FBB6100BFFEE73B68FB62FB6A2C
:102FF000002B0DD0FB6A012283F8462097F8382079
:10300000FB6A009313467A68B968F86800F005F81F
:10301000FB6A18463037BD4680BD80B584B000AF2E
:10302000F860B9607A60FB70BB68002B03D1BB69A4
:10303000BA691A6002E0BB697A681A60BB69FA680B
:10304000DA63BB69BA681A640121B869FFF706FF41
:10305000BB69FA7883F84C2000BF1037BD4680BDAD
:1030600080B58EB000AFF860B9607A603B60002335
:103070007B63FB683B633B6B002B0AD14FF0500333
:1030800083F31188BFF36F8FBFF34F8FBB6200BF15
:10309000FEE7BB68002B03D13B6B1B6C002B01D1FF
:1030A000012300E00023002B0AD14FF0500383F3EB
:1030B0001188BFF36F8FBFF34F8F7B6200BFFEE7B6
:1030C0003B68022B03D13B6BDB6B012B01D101234E
:1030D00000E00023002B0AD14FF0500383F3118846
:1030E000BFF36F8FBFF34F8F3B6200BFFEE701F06E
:1030F000B1F90346002B02D17B68002B01D10123DB
:1031000000E00023002B0AD14FF0500383F3118815
:10311000BFF36F8FBFF34F8FFB6100BFFEE701F07E
:103120007DFE3B6B9A6B3B6BDB6B9A4202D33B6839
:10313000022B29D13A68B968386B00F007FAF862B7
:103140003B6B5B6A002B10D03B6B2433184600F0BE
:10315000BFFF0346002B13D03F4B4FF080521A6045
:10316000BFF34F8FBFF36F8F0AE0FB6A002B07D0CE
:10317000394B4FF080521A60BFF34F8FBFF36F8F00
:1031800001F07CFE012363E07B68002B03D101F09A
:1031900075FE00235CE07B6B002B06D107F1140366
:1031A000184600F0F9FF01237B6301F067FE00F091
:1031B0006BFD01F033FE3B6B93F844305BB2B3F12F
:1031C000FF3F03D13B6B002283F844203B6B93F815
:1031D00045305BB2B3F1FF3F03D13B6B002283F874
:1031E000452001F04BFE3A1D07F114031146184625
:1031F00000F0E8FF0346002B24D1386B00F09EFA64
:103200000346002B18D03B6B10337A6811461846E2
:1032100000F00EFF386B00F029FA00F043FD034682
:10322000002B7FF47CAF0C4B4FF080521A60BFF341
:103230004F8FBFF36F8F72E7386B00F017FA00F013
:1032400031FD6CE7386B00F011FA00F02BFD002324
:1032500018463837BD4680BD04ED00E080B58EB01D
:1032600000AFF860B9607A603B60FB683B633B6B22
:10327000002B0AD14FF0500383F31188BFF36F8FF7
:10328000BFF34F8F7B6200BFFEE7BB68002B03D10B
:103290003B6B1B6C002B01D1012300E00023002BB2
:1032A0000AD14FF0500383F31188BFF36F8FBFF340
:1032B0004F8F3B6200BFFEE73B68022B03D13B6BA5
:1032C000DB6B012B01D1012300E00023002B0AD18D
:1032D0004FF0500383F31188BFF36F8FBFF34F8F0D
:1032E000FB6100BFFEE701F05BFEEFF311824FF0E0
:1032F000500383F31188BFF36F8FBFF34F8FBA6111
:103300007B61BB69FB623B6B9A6B3B6BDB6B9A42ED
:1033100002D33B68022B2CD13B6B93F8453087F8E6
:103320002B303A68B968386B00F010F997F92B30F8
:10333000B3F1FF3F12D13B6B5B6A002B16D03B6BA6
:103340002433184600F0C4FE0346002B0ED07B68E1
:10335000002B0BD07B6801221A6007E097F82B3016
:103360000133DBB25AB23B6B83F8452001237B6308
:1033700001E000237B63FB6A3B613B6983F31188B7
:1033800000BF7B6B18463837BD4680BD80B58CB01A
:1033900000AFF860B9607A600023FB62FB68BB6233
:1033A000BB6A002B0AD14FF0500383F31188BFF39F
:1033B0006F8FBFF34F8F3B6200BFFEE7BB68002BF0
:1033C00003D1BB6A1B6C002B01D1012300E0002359
:1033D000002B0AD14FF0500383F31188BFF36F8F96
:1033E000BFF34F8FFB6100BFFEE701F033F80346E8
:1033F000002B02D17B68002B01D1012300E00023C8
:10340000002B0AD14FF0500383F31188BFF36F8F65
:10341000BFF34F8FBB6100BFFEE701F0FFFCBB6A4B
:103420009B6B7B627B6A002B1FD0B968B86A00F087
:10343000F7F87B6A5A1EBB6A9A63BB6A1B69002B4A
:103440000FD0BB6A1033184600F042FE0346002B33
:1034500007D03D4B4FF080521A60BFF34F8FBFF340
:103460006F8F01F00BFD012369E07B68002B03D116
:1034700001F004FD002362E0FB6A002B06D107F196
:103480001003184600F088FE0123FB6201F0F6FCF1
:1034900000F0FAFB01F0C2FCBB6A93F844305BB267
:1034A000B3F1FF3F03D1BB6A002283F84420BB6A1B
:1034B00093F845305BB2B3F1FF3F03D1BB6A002202
:1034C00083F8452001F0DAFC3A1D07F1100311469C
:1034D000184600F077FE0346002B23D1B86A00F0AF
:1034E00017F90346002B17D0BB6A24337A681146BC
:1034F000184600F09DFDB86A00F0B8F800F0D2FB65
:103500000346002B89D1104B4FF080521A60BFF355
:103510004F8FBFF36F8F80E7B86A00F0A7F800F015
:10352000C1FB7AE7B86A00F0A1F800F0BBFBB86A0B
:1035300000F0EEF80346002B3FF46FAF002318466F
:103540003037BD4680BD00BF04ED00E080B586B0D9
:1035500000AFF860B9607A6000237B61FB689B6B09
:103560003B61FB681B6C002B0DD1FB681B68002BBB
:103570004DD1FB685B68184600F08AFF7861FB68F4
:1035800000225A6043E07B68002B19D1FB689868E1
:10359000FB681B6C1A46B96802F072F9FB689A68FE
:1035A000FB681B6C1A44FB689A60FB689A68FB68AE
:1035B0005B689A422BD3FB681A68FB689A6026E026
:1035C000FB68D868FB681B6C1A46B96802F058F9AA
:1035D000FB68DA68FB681B6C5B421A44FB68DA60C4
:1035E000FB68DA68FB681B689A4207D2FB685A6876
:1035F000FB681B6C5B421A44FB68DA607B68022B39
:1036000005D13B69002B02D03B69013B3B613B6923
:103610005A1CFB689A637B6918461837BD4680BD03
:1036200080B582B000AF786039607B681B6C002B7E
:1036300018D07B68DA687B681B6C1A447B68DA6098
:103640007B68DA687B685B689A4203D37B681A6898
:103650007B68DA607B68D9687B681B6C1A463868BF
:1036600002F00EF900BF0837BD4680BD80B584B0BA
:1036700000AF786001F0D2FB7B6893F84530FB73B4
:1036800011E07B685B6A002B12D07B6824331846FC
:1036900000F01EFD0346002B01D000F0F5FDFB7B82
:1036A000013BDBB2FB7397F90F30002BE9DC00E044
:1036B00000BF7B68FF2283F8452001F0DFFB01F0AB
:1036C000ADFB7B6893F84430BB7311E07B681B69EA
:1036D000002B12D07B681033184600F0F9FC03462B
:1036E000002B01D000F0D0FDBB7B013BDBB2BB73F4
:1036F00097F90E30002BE9DC00E000BF7B68FF2269
:1037000083F8442001F0BAFB00BF1037BD4680BDEE
:1037100080B584B000AF786001F080FB7B689B6B64
:10372000002B02D10123FB6001E00023FB6001F0CC
:10373000A5FBFB6818461037BD4680BD80B584B038
:1037400000AF786001F06AFB7B689A6B7B68DB6B8B
:103750009A4202D10123FB6001E00023FB6001F0EB
:103760008DFBFB6818461037BD4680BD80B485B020
:1037700000AF786039600023FB6014E00E4AFB68FC
:1037800052F83330002B0BD10B49FB683A6841F8F3
:103790003320094AFB68DB0013447A685A6006E06C
:1037A000FB680133FB60FB68072BE7D900BF00BF54
:1037B0001437BD4680BC70470426002080B586B013
:1037C00000AFF860B9607A60FB687B6101F026FBAE
:1037D0007B6993F844305BB2B3F1FF3F03D17B695F
:1037E000002283F844207B6993F845305BB2B3F143
:1037F000FF3F03D17B69002283F8452001F03EFBA7
:103800007B699B6B002B06D17B6924337A68B9688E
:10381000184600F031FC7869FFF728FF00BF183721
:10382000BD4680BD80B58EB004AFF860B9607A60E7
:103830003B607B6B002B0AD14FF0500383F3118860
:10384000BFF36F8FBFF34F8F3B6200BFFEE7BB6BD1
:10385000002B0AD14FF0500383F31188BFF36F8F11
:10386000BFF34F8FFB6100BFFEE75C233B613B6909
:103870005C2B0AD04FF0500383F31188BFF36F8F96
:10388000BFF34F8FBB6100BFFEE7BB6B002B1ED0A9
:103890007B6B002B1BD0BB6B7B627B6A7A6B1A63E2
:1038A0007B6A022283F85920002303937B6A0293E8
:1038B00007F1140301933B6B00933B687A68B96886
:1038C000F86800F050F8786A00F0D4F801E00023BE
:1038D0007B617B6918462837BD4680BD80B58CB0BA
:1038E00004AFF860B9603B601346FB80FB889B0027
:1038F000184601F093FB78617B69002B0ED05C20A9
:1039000001F08CFBF861FB69002B03D0FB697A693D
:103910001A6305E0786901F045FC01E00023FB61D2
:10392000FB69002B17D0FB69002283F85920FA8825
:1039300000230393FB690293FB6A0193BB6A009324
:103940003B68B968F86800F00EF8F86900F092F882
:103950000123BB6102E04FF0FF33BB61BB69184636
:103960002037BD4680BD80B588B000AFF860B96033
:103970007A603B603B6B186B7B689B001A46A52105
:1039800001F08CFF3B6B1A6B7B6803F18043013BBA
:103990009B001344BB61BB6923F00703BB61BB6998
:1039A00003F00703002B0AD04FF0500383F3118874
:1039B000BFF36F8FBFF34F8F7B6100BFFEE7002324
:1039C000FB6112E0BA68FB69134419783A6BFB6932
:1039D000134434330A461A70BA68FB6913441B78DF
:1039E000002B06D0FB690133FB61FB690F2BE9D982
:1039F00000E000BF3B6B002283F84320BB6A372BFB
:103A000001D93723BB623B6BBA6ADA623B6BBA6A95
:103A1000DA643B6B00221A653B6B04331846FFF7F0
:103A20008CF93B6B18331846FFF787F93B6B3A6B01
:103A30001A61BB6AC3F138023B6B9A613B6B3A6B0C
:103A40005A623B6B00225A653B6B002283F8582078
:103A50003A68F968B86901F0EFF802463B6B1A6002
:103A6000FB6A002B02D0FB6A3A6B1A6000BF20375A
:103A7000BD4680BD80B582B000AF786001F0CEF960
:103A80002D4B1B6801332C4A13602C4B1B68002BF9
:103A900009D12A4A7B681360274B1B68012B10D180
:103AA00000F016FC0DE0264B1B68002B09D1234BC0
:103AB0001B68DA6A7B68DB6A9A4202D81F4A7B6815
:103AC0001360204B1B6801331E4A13601D4B1A689C
:103AD0007B685A647B68DA6A1B4B1B689A4203D97D
:103AE0007B68DB6A184A13607B68DA6A13469B00BE
:103AF00013449B00154A1A447B6804331946104648
:103B0000FFF727F901F0BAF90D4B1B68002B0ED017
:103B10000A4B1B68DA6A7B68DB6A9A4207D20C4B55
:103B20004FF080521A60BFF34F8FBFF36F8F00BF0B
:103B30000837BD4680BD00BF240C00205007002080
:103B4000300C0020400C00202C0C002054070020DA
:103B500004ED00E080B584B000AF78600023FB6026
:103B60007B68002B17D0134B1B68002B0AD04FF03B
:103B7000500383F31188BFF36F8FBFF34F8FBB6088
:103B800000BFFEE700F080F80021786800F0EEFC4E
:103B900000F088F8F860FB68002B07D1064B4FF067
:103BA00080521A60BFF34F8FBFF36F8F00BF103783
:103BB000BD4680BD4C0C002004ED00E080B58AB00D
:103BC00004AF0023BB6000237B603A46391D07F138
:103BD00008031846FFF760F839687B68BA680292F4
:103BE00001930023009300230A4621492148FFF74F
:103BF00019FE0346204A13601F4B1B68002B02D09E
:103C000001237B6101E000237B617B69012B02D1F1
:103C100000F000FD78617B69012B16D14FF0500355
:103C200083F31188BFF36F8FBFF34F8F3B6100BFEA
:103C3000124B4FF0FF321A60114B01221A60114BE8
:103C400000221A6001F078F80EE07B69B3F1FF3FC3
:103C50000AD14FF0500383F31188BFF36F8FBFF386
:103C60004F8FFB6000BFFEE700BF1837BD4680BD29
:103C7000A0610008A1420008480C0020440C00206C
:103C8000300C0020280C002080B400AF044B1B68CF
:103C90000133034A136000BFBD4680BC704700BFBC
:103CA0004C0C002080B584B000AF0023FB600023E3
:103CB000BB60424B1B68002B0AD14FF0500383F3CB
:103CC0001188BFF36F8FBFF34F8F3B6000BFFEE7DC
:103CD00001F0A4F8394B1B68013B384A1360374B9D
:103CE0001B68002B62D1364B1B68002B5ED02FE087
:103CF000344BDB68DB68FB60FB6818331846FFF762
:103D000083F8FB6804331846FFF77EF8FB68DA6A2D
:103D10002D4B1B689A4203D9FB68DB6A2A4A136061
:103D2000FB68DA6A13469B0013449B00274A1A4437
:103D3000FB68043319461046FFF70BF8FB68DA6A94
:103D4000234B1B68DB6A9A4202D3224B01221A6082
:103D50001C4B1B68002BCBD1FB68002B01D000F063
:103D600055FB1D4B1B687B607B68002B10D000F05F
:103D700045F80346002B02D0164B01221A607B68DF
:103D8000013B7B607B68002BF1D1134B00221A6052
:103D9000104B1B68002B09D00123BB600F4B4FF069
:103DA00080521A60BFF34F8FBFF36F8F01F066F838
:103DB000BB6818461037BD4680BD00BF4C0C0020C4
:103DC000240C0020E40B00202C0C002054070020C1
:103DD00050070020380C0020340C002004ED00E0D7
:103DE00080B483B000AF044B1B687B607B681846CF
:103DF0000C37BD4680BC7047280C002080B586B0CB
:103E000000AF00237B61514B1B68002B40F08E807C
:103E10004F4B1B6801333B614D4A3B6913603B6963
:103E2000002B20D14B4B1B681B68002B0AD04FF096
:103E3000500383F31188BFF36F8FBFF34F8F3B6045
:103E400000BFFEE7434B1B68FB60434B1B68414AC6
:103E50001360414AFB681360404B1B6801333F4AC3
:103E6000136000F0D3FA3E4B1B683A699A424ED376
:103E7000384B1B681B68002B01D1012300E0002395
:103E8000002B04D0364B4FF0FF321A603FE0314B2D
:103E90001B68DB68DB68BB60BB685B687B603A699A
:103EA0007B689A4203D22E4A7B6813602FE0BB687E
:103EB00004331846FEF7A8FFBB689B6A002B04D0AA
:103EC000BB6818331846FEF79FFFBB68DA6A254BBC
:103ED0001B689A4203D9BB68DB6A224A1360BB683D
:103EE000DA6A13469B0013449B001F4A1A44BB68BE
:103EF000043319461046FEF72CFFBB68DA6A1B4BE9
:103F00001B68DB6A9A42B3D301237B61B0E7174B8E
:103F10001B68DA6A144913469B0013449B000B4448
:103F20001B68012B07D901237B6104E0104B1B6840
:103F300001330F4A13600F4B1B68002B01D0012384
:103F40007B617B6918461837BD4680BD4C0C00204C
:103F5000280C0020DC0B0020E00B00203C0C002093
:103F6000440C00202C0C0020540700205007002097
:103F7000340C0020380C002080B485B000AF274BF3
:103F80001B68002B03D0264B01221A6041E0244B12
:103F900000221A60234B1B68FB6010E0FB68002BBB
:103FA0000AD14FF0500383F31188BFF36F8FBFF333
:103FB0004F8F7B6000BFFEE7FB68013BFB601A4947
:103FC000FA6813469B0013449B000B441B68002BAC
:103FD000E4D0FA6813469B0013449B00124A134432
:103FE000BB60BB685B685A68BB685A60BB685A684C
:103FF000BB6808339A4204D1BB685B685A68BB68E7
:104000005A60BB685B68DB68084A1360054AFB6856
:10401000136000BF1437BD4680BC70474C0C0020B5
:10402000380C00202C0C00205407002050070020E2
:1040300080B584B000AF786039607B68002B0AD10E
:104040004FF0500383F31188BFF36F8FBFF34F8F8F
:10405000FB6000BFFEE7074B1B6818331946786802
:10406000FEF79AFE0121386800F080FA00BF103791
:10407000BD4680BD5007002080B586B000AFF86017
:10408000B9607A60FB68002B0AD14FF0500383F3CC
:104090001188BFF36F8FBFF34F8F7B6100BFFEE7C7
:1040A0000A4B1B6818331946F868FEF752FE7B6806
:1040B000002B02D04FF0FF33BB607968B86800F086
:1040C00055FA00BF1837BD4680BD00BF500700201D
:1040D00080B586B000AF78607B68DB68DB683B61E9
:1040E0003B69002B0AD14FF0500383F31188BFF3D3
:1040F0006F8FBFF34F8FFB6000BFFEE73B69183344
:104100001846FEF781FE1E4B1B68002B1DD13B6934
:1041100004331846FEF778FE3B69DA6A194B1B68D0
:104120009A4203D93B69DB6A164A13603B69DA6A33
:1041300013469B0013449B00134A1A443B69043303
:1041400019461046FEF705FE05E03B69183319468F
:104150000E48FEF7FEFD3B69DA6A0D4B1B68DB6A11
:104160009A4205D901237B610A4B01221A6001E0C2
:1041700000237B617B6918461837BD4680BD00BFB0
:104180004C0C00202C0C002054070020E40B0020D5
:1041900050070020380C002080B483B000AF786056
:1041A000064B1A687B681A60054B1A687B685A6070
:1041B00000BF0C37BD4680BC704700BF3C0C0020E0
:1041C000280C002080B588B000AF786039607B682B
:1041D000002B0AD14FF0500383F31188BFF36F8F88
:1041E000BFF34F8F3B6100BFFEE73B68002B0AD156
:1041F0004FF0500383F31188BFF36F8FBFF34F8FDE
:10420000FB6000BFFEE700F009FE1D4B1B68BB61B1
:104210007B685B68BA69D31A7B613B681B68B3F142
:10422000FF3F02D10023FB6123E07B681A68154B36
:104230001B689A4207D07B685B68BA699A4202D3CE
:104240000123FB6115E03B681B687A699A420BD237
:104250003B681A687B69D21A3B681A607868FFF776
:104260009BFF0023FB6104E03B6800221A600123EE
:10427000FB6100F003FEFB6918462037BD4680BD98
:10428000280C00203C0C002080B400AF034B01221E
:104290001A6000BFBD4680BC704700BF380C0020CC
:1042A00080B582B000AF786000F052F8064B1B6812
:1042B000012BF9D9054B4FF080521A60BFF34F8F95
:1042C000BFF36F8FF0E700BF5407002004ED00E05C
:1042D00080B582B000AF00237B600CE07A681346A3
:1042E0009B0013449B00124A13441846FEF706FD38
:1042F0007B6801337B607B68372BEFD90D48FEF775
:10430000FDFC0D48FEF7FAFC0C48FEF7F7FC0C48E4
:10431000FEF7F4FC0B48FEF7F1FC0B4B054A1A6064
:104320000A4B054A1A6000BF0837BD4680BD00BF72
:1043300054070020B40B0020C80B0020E40B002021
:10434000F80B0020100C0020DC0B0020E00B0020FC
:1043500080B582B000AF19E000F060FD104BDB6863
:10436000DB687B607B6804331846FEF74DFD0D4B20
:104370001B68013B0B4A13600B4B1B68013B0A4A4D
:10438000136000F07BFD786800F010F8064B1B68A6
:10439000002BE1D100BF00BF0837BD4680BD00BF84
:1043A000F80B0020240C00200C0C002080B584B0F9
:1043B00000AF78607B6893F85930002B08D17B6898
:1043C0001B6B184600F0EEFE786800F0EBFE18E07C
:1043D0007B6893F85930012B03D1786800F0E2FE36
:1043E0000FE07B6893F85930022B0AD04FF050034E
:1043F00083F31188BFF36F8FBFF34F8FFB6000BF54
:10440000FEE700BF1037BD4680BD000080B483B01A
:1044100000AF0E4B1B681B68002B01D1012300E08D
:104420000023002B04D00A4B4FF0FF321A6008E043
:10443000064B1B68DB68DB687B607B685B68044A53
:10444000136000BF0C37BD4680BC7047DC0B0020FA
:10445000440C002080B483B000AF0B4B1B68002BD2
:1044600002D101237B6008E0084B1B68002B02D1BE
:1044700002237B6001E000237B607B6818460C37D9
:10448000BD4680BC704700BF300C00204C0C0020A3
:1044900080B586B000AF78607B683B6100237B61AC
:1044A0007B68002B56D02E4B1B683A699A420AD083
:1044B0004FF0500383F31188BFF36F8FBFF34F8F1B
:1044C000FB6000BFFEE73B691B6D002B0AD14FF07C
:1044D000500383F31188BFF36F8FBFF34F8FBB601F
:1044E00000BFFEE73B691B6D5A1E3B691A653B69BD
:1044F000DA6A3B69DB6C9A422CD03B691B6D002B5E
:1045000028D13B6904331846FEF77EFC3B69DA6C20
:104510003B69DA623B69DB6AC3F138023B699A6145
:104520003B69DA6A0F4B1B689A4203D93B69DB6A25
:104530000C4A13603B69DA6A13469B0013449B00E4
:10454000094A1A443B69043319461046FEF701FC38
:1045500001237B617B6918461837BD4680BD00BFCB
:10456000500700202C0C00205407002080B584B098
:1045700000AF78603960214B1B68FB60204B1B68E3
:1045800004331846FEF740FC7B68B3F1FF3F0AD1C5
:104590003B68002B07D01A4B1B6804331946194897
:1045A000FEF7D7FB26E0FA687B681344BB60144B28
:1045B0001B68BA685A60BA68FB689A4209D2124B03
:1045C0001A680F4B1B68043319461046FEF7E4FBCC
:1045D00010E00E4B1A680A4B1B680433194610464C
:1045E000FEF7DAFB0A4B1B68BA689A4202D2084A05
:1045F000BB68136000BF1037BD4680BD280C00208B
:1046000050070020100C0020E00B0020DC0B0020E5
:10461000440C002080B58AB004AF00237B6100F019
:10462000CBFA1C4B1B68002B21D00023FB6000231E
:10463000BB603A1D07F1080107F10C031846FEF7AD
:1046400043FB7968BB68FA680292019302230093E6
:1046500000230A4610491148FFF7E4F80346104AC0
:1046600013600F4B1B68002B01D001237B617B691A
:10467000002B0AD14FF0500383F31188BFF36F8FE3
:10468000BFF34F8F3B6100BFFEE77B6918461837C9
:10469000BD4680BD800C0020A8610008C14700080D
:1046A000840C002080B58AB000AFF860B9607A60F1
:1046B0003B6000237B62FB68002B0AD14FF0500364
:1046C00083F31188BFF36F8FBFF34F8F3B6200BF3F
:1046D000FEE71A4B1B68002B2AD0BB683B617B6846
:1046E0007B61FB68BB61BB68052B18DCFFF7B2FE82
:1046F0000346022B09D1114B186807F11001002362
:104700003A6BFEF7ADFC786212E00C4B186807F1CB
:10471000100100230022FEF7A3FC786208E0074B9B
:10472000186807F1100100233A68FEF797FD7862D8
:104730007B6A18462837BD4680BD00BF800C00202C
:1047400080B588B002AF786039601C4B1B68DB68AD
:10475000DB687B617B6904331846FEF755FB7B6998
:10476000DB69012B22D17B699A697B68D1187B6850
:104770003A68786900F0C8F80346002B16D0002389
:10478000009300237A6800217869FFF78BFF386176
:104790003B69002B0AD14FF0500383F31188BFF31C
:1047A0006F8FBFF34F8FFB6000BFFEE77B695B6AD3
:1047B0007869984700BF1837BD4680BD780C002047
:1047C00080B584B000AF786007F10803184600F0A8
:1047D00057F8F860BB681946F86800F003F800F075
:1047E000D5F8F1E780B584B000AF78603960FFF7A5
:1047F0004BFA07F10803184600F066F8F860BB684A
:10480000002B30D13B68002B0AD17A68FB689A42B2
:1048100006D8FFF747FAF9687868FFF791FF24E0B8
:104820003B68002B08D0134B1B681B68002B0CBF88
:1048300001230023DBB23B600F4B18687A68FB68EA
:10484000D31A3A681946FEF7B9FFFFF72BFA034669
:10485000002B0AD1094B4FF080521A60BFF34F8FE3
:10486000BFF36F8F01E0FFF71DFA00BF1037BD46A1
:1048700080BD00BF7C0C0020800C002004ED00E017
:1048800080B485B000AF78600E4B1B681B68002BAE
:104890000CBF01230023DBB21A467B681A607B68D9
:1048A0001B68002B05D1074B1B68DB681B68FB608E
:1048B00001E00023FB60FB6818461437BD4680BC4E
:1048C000704700BF780C002080B584B000AF7860DE
:1048D000FFF786FAF8600B4B1B68FA689A4205D21C
:1048E00000F008F97B6801221A6002E07B68002270
:1048F0001A60044AFB681360FB6818461037BD460F
:1049000080BD00BF880C002080B586B000AFF86085
:10491000B9607A603B6000237B61FB68BA685A60CB
:10492000FB68FA681A61BA687B689A4212D87A689A
:104930003B68D21AFB689B699A4202D301237B61D0
:104940001BE0104B1A68FB68043319461046FEF74B
:1049500023FA12E07A683B689A4206D2BA683B684A
:104960009A4202D301237B6107E0074B1A68FB6878
:10497000043319461046FEF70FFA7B6918461837BC
:10498000BD4680BD7C0C0020780C002080B58EB028
:1049900002AF9DE07B68002B18DA3B1D0433FB62FD
:1049A000FB6A002B0AD14FF0500383F31188BFF349
:1049B0006F8FBFF34F8FFB6100BFFEE7FB6A1B6881
:1049C000FA6A5068FA6A9268114698477B68002B29
:1049D0007DDBFB68BB62BB6A5B69002B04D0BB6AF2
:1049E00004331846FEF710FA3B461846FFF76CFFF3
:1049F00078627B68092B6BD801A252F823F000BFC4
:104A0000294A0008294A0008294A0008D14A000812
:104A1000854A0008BD4A0008294A0008294A0008BA
:104A2000D14A0008854A0008BA68BB6A9B69D11858
:104A3000BB687A6AB86AFFF767FF0346002B47D066
:104A4000BB6A5B6AB86A9847BB6ADB69012B3FD1D6
:104A5000BA68BB6A9B691A440023009300230021B3
:104A6000B86AFFF71FFE38623B6A002B30D14FF067
:104A7000500383F31188BFF36F8FBFF34F8FBB6178
:104A800000BFFEE7BA68BB6A9A61BB6A9B69002BEC
:104A90000AD14FF0500383F31188BFF36F8FBFF338
:104AA0004F8F7B6100BFFEE7BB6A9A697B6AD118B2
:104AB0007B6A7A6AB86AFFF727FF09E0BB6A93F856
:104AC0002C30002B04D1B86A00F06CFB00E000BF72
:104AD000074B1B68391D00221846FEF757FC03469A
:104AE000002B7FF457AF00BF00BF3037BD4680BDFD
:104AF000800C002080B588B002AF45E02C4B1B68CD
:104B0000DB681B683B612A4B1B68DB68DB68FB606A
:104B1000FB6804331846FEF777F9FB685B6AF868B0
:104B20009847FB68DB69012B2ED1FB689B693A69CA
:104B30001344BB60BA683B699A420ED9FB68BA68F5
:104B40005A60FB68FA681A61194B1A68FB680433EB
:104B500019461046FEF720F916E0002300930023C3
:104B60003A690021F868FFF79DFD78607B68002BAB
:104B70000AD14FF0500383F31188BFF36F8FBFF357
:104B80004F8F3B6000BFFEE7094B1B681B68002B83
:104B9000B4D1074B1B687B61064B1B68044A13604A
:104BA000044A7B69136000BF1837BD4680BD00BF53
:104BB000780C00207C0C002080B582B002AF00F0A1
:104BC0002DF9154B1B68002B20D11448FEF796F8E1
:104BD0001348FEF793F8134B104A1A60124B104A11
:104BE0001A6000230093114B114A10210A20FEF78E
:104BF0009DF90346084A1360074B1B68002B05D03C
:104C0000054B1B680B491846FEF7B0FD00F036F95E
:104C100000BFBD4680BD00BF800C0020500C0020AE
:104C2000640C0020780C00207C0C00202C0D00204F
:104C30008C0C0020B061000880B485B000AFF86033
:104C4000B9607A60FB68043BFB60FB684FF08072E0
:104C50001A60FB68043BFB60BB6823F00102FB6841
:104C60001A60FB68043BFB60084AFB681A60FB683B
:104C7000143BFB607A68FB681A60FB68203BFB60B2
:104C8000FB6818461437BD4680BC7047914C00083D
:104C900080B485B000AF00237B60124B1B68B3F17A
:104CA000FF3F0AD04FF0500383F31188BFF36F8F9B
:104CB000BFF34F8FFB6000BFFEE74FF0500383F35D
:104CC0001188BFF36F8FBFF34F8FBB6000BF00BF72
:104CD0007B68002BFCD000BF00BF1437BD4680BCF2
:104CE000704700BF0C000020000000000000000022
:104CF000074B19680868B0E8F00F80F30988BFF324
:104D00006F8F4FF0000080F311884EF00D0E70474A
:104D10005007002000BF00BF06480068006880F30D
:104D2000088862B661B6BFF34F8FBFF36F8F00DFA5
:104D300000BF00BF08ED00E080B584B000AF324B8B
:104D4000FB60FB681B78DBB27B60FB68FF221A709C
:104D5000FB681B78DBB2FB70FB78DBB203F050031F
:104D6000DAB22A4B1A702A4B07221A6009E0284B44
:104D70001B68013B264A1360FB78DBB25B00DBB2A9
:104D8000FB70FB78DBB203F08003802BEFD0204B6D
:104D90001B68C3F10703042B0AD04FF0500383F3C1
:104DA0001188BFF36F8FBFF34F8FBB6000BFFEE76B
:104DB000174B1B681B02164A1360154B1B6803F444
:104DC000E063134A13607B68DAB2FB681A70114B18
:104DD0001B68104A43F4700313600E4B1B680D4AA6
:104DE00043F07043136000F0B9F80B4B00221A60D7
:104DF000FFF792FFFFF7C0F8FFF74AFF00231846BE
:104E00001037BD4680BD00BF00E400E07C0D0020EF
:104E1000800D002020ED00E00C00002080B483B065
:104E200000AF4FF0500383F31188BFF36F8FBFF3D0
:104E30004F8F7B6000BF0F4B1B6801330D4A13601F
:104E40000C4B1B68012B0FD10B4B1B68DBB2002BEB
:104E50000AD04FF0500383F31188BFF36F8FBFF375
:104E60004F8F3B6000BFFEE700BF0C37BD4680BCE4
:104E7000704700BF0C00002004ED00E080B483B058
:104E800000AF114B1B68002B0AD14FF0500383F386
:104E90001188BFF36F8FBFF34F8F7B6000BFFEE7BA
:104EA000094B1B68013B084A1360074B1B68002B2A
:104EB00005D100233B603B6883F3118800BF00BF2E
:104EC0000C37BD4680BC70470C000020000000007D
:104ED000EFF30980BFF36F8F0D4B1A6820E9F00FD5
:104EE00010602DE908404FF0500080F31188FFF763
:104EF00043F84FF0000080F31188BDE808401968BE
:104F00000868B0E8F00F80F30988BFF36F8F70472F
:104F10005007002000BF00BF80B582B000AF4FF047
:104F2000500383F31188BFF36F8FBFF34F8F7B6004
:104F300000BFFEF763FF0346002B03D0064B4FF084
:104F400080521A6000233B603B6883F3118800BFE6
:104F500000BF0837BD4680BD04ED00E080B400AF5F
:104F60000A4B00221A600A4B00221A60094B1B6888
:104F7000094AA2FB03239B09084A013B1360034B28
:104F800007221A6000BFBD4680BC704710E000E0F9
:104F900018E000E000000020D34D621014E000E0B3
:104FA00080B485B000AFEFF30583FB60FB680F2B87
:104FB00014D9164AFB6813441B78FB72144B1B78F8
:104FC000FA7A9A420AD24FF0500383F31188BFF362
:104FD0006F8FBFF34F8F7B6000BFFEE70D4B1B68E9
:104FE00003F4E0620C4B1B689A420AD94FF050035D
:104FF00083F31188BFF36F8FBFF34F8F3B6000BF08
:10500000FEE700BF1437BD4680BC7047F0E300E008
:105010007C0D00200CED00E0800D002080B58AB0F2
:1050200000AF78600023FB61FEF72EFE584B1B6833
:10503000002B01D100F010F9564B1A687B68134021
:10504000002B40F08E807B68002B1DD008227B68EF
:1050500013447B607B6803F00703002B14D07B684C
:1050600023F0070308337B607B6803F00703002B02
:105070000AD04FF0500383F31188BFF36F8FBFF353
:105080004F8F7B6100BFFEE77B68002B69D0424BEE
:105090001B687A689A4264D8404B3B623F4B1B685E
:1050A0007B6204E07B6A3B627B6A1B687B627B6A93
:1050B0005B687A689A4203D97B6A1B68002BF1D13E
:1050C000334B1B687A6A9A424BD03B6A1B680822B2
:1050D0001344FB617B6A1A683B6A1A607B6A5A68F0
:1050E0007B68D21A08235B009A421FD97A6A7B68D0
:1050F0001344BB61BB6903F00703002B0AD04FF0D8
:10510000500383F31188BFF36F8FBFF34F8F3B6161
:1051100000BFFEE77B6A5A687B68D21ABB695A6097
:105120007B6A7A685A60B86900F0F8F81A4B1A6816
:105130007B6A5B68D31A184A1360174B1A68184BBE
:105140001B689A4203D2144B1B68154A13607B6A92
:105150005A68104B1B681A437B6A5A607B6A0022AC
:105160001A60FEF79FFDFB6903F00703002B0AD0CE
:105170004FF0500383F31188BFF36F8FBFF34F8F4E
:10518000FB6000BFFEE7FB6918462837BD4680BDBF
:10519000FC2400200825002000250020F424002005
:1051A0000425002080B586B000AF78607B687B6105
:1051B0007B68002B48D008235B427A6913447B61EB
:1051C0007B693B613B695A68214B1B681340002B8C
:1051D0000AD14FF0500383F31188BFF36F8FBFF3F1
:1051E0004F8FFB6000BFFEE73B691B68002B0AD0B6
:1051F0004FF0500383F31188BFF36F8FBFF34F8FCE
:10520000BB6000BFFEE73B695A68114B1B68134047
:10521000002B19D03B691B68002B15D13B695A68DC
:105220000B4B1B68DB431A403B695A60FEF72CFDB1
:105230003B695A68074B1B681344064A1360386978
:1052400000F06CF8FEF72EFD00BF1837BD4680BD9C
:10525000082500200025002080B485B000AF41F271
:105260007073BB60274BFB60FB6803F00703002BE8
:105270000CD0FB680733FB60FB6823F00703FB607F
:10528000BA68FB68D31A1F4A1344BB60FB687B6093
:105290001D4A7B6813601C4B00225A607B68BA6809
:1052A0001344FB600822FB689B1AFB60FB6823F039
:1052B0000703FB60FB68154A1360144B1B68002250
:1052C0005A60124B1B6800221A607B683B603B6887
:1052D000FA68D21A3B685A600C4B1A683B681A602D
:1052E0003B685B680A4A13603B685B68094A136065
:1052F000094B4FF000421A6000BF1437BD4680BC16
:10530000704700BF840D0020F4240020FC240020FE
:1053100004250020002500200825002080B485B049
:1053200000AF7860274BFB6002E0FB681B68FB6006
:10533000FB681B687A689A42F7D8FB68BB60FB6819
:105340005B68BA6813447A689A4208D1FB685A6865
:105350007B685B681A44FB685A60FB687B607B680B
:10536000BB607B685B68BA681A44FB681B689A423A
:1053700018D1FB681A68144B1B689A420DD07B68E1
:105380005A68FB681B685B681A447B685A60FB6854
:105390001B681A687B681A6008E00B4B1A687B6808
:1053A0001A6003E0FB681A687B681A60FA687B6819
:1053B0009A4202D0FB687A681A6000BF1437BD4673
:1053C00080BC7047F4240020FC24002080B582B00B
:1053D00000AF0023FB7126E0FB79503BDBB20021DC
:1053E000184600F02BF80021002000F027F80021DB
:1053F000102000F023F80023BB710DE0BA79FB798F
:105400000D49D2000A4413441B780121184600F0CC
:1054100015F8BB790133BB7197F90630002BEDDA33
:10542000FB790133FB71FB79072BD5D900BF00BF96
:105430000837BD4680BD00BF4426002080B584B03B
:1054400000AF03460A46FB711346BB71BB79002BC4
:1054500006D001224FF480711C48FBF715FF05E0D0
:1054600000224FF480711948FBF70EFF0023FB73F5
:105470001EE0002220211548FBF706FF97F90730B0
:10548000002B05DA012240211048FBF7FDFE04E065
:10549000002240210D48FBF7F7FE012220210B4896
:1054A000FBF7F2FEFB795B00FB71FB7B0133FB73C7
:1054B000FB7B072BDDD901224FF480710348FBF7FA
:1054C000E3FE00BF1037BD4680BD00BF001801409D
:1054D00080B582B000AF0023FB7114E00023BB71E4
:1054E0000AE0BA79FB790C49D2000A44134400223D
:1054F0001A70BB790133BB7197F90630002BF0DAD3
:10550000FB790133FB71FB79072BE7D9FFF75EFFCE
:1055100000BF0837BD4680BD4426002080B485B05A
:1055200000AF0346FB710B46BB7113467B71002332
:10553000FB7397F90730002B41DBBB793F2B3ED83B
:10554000BB79DB08DBB2C3F10703BB73BB7903F0A4
:1055500007037B737B7BC3F10703012202FA03F38A
:10556000FB737B79002B12D0FA79BB7B1649D200F2
:105570000A4413441878FA79BB7BF97B0143C8B21B
:105580001149D2000A44134402461A7018E0FA790D
:10559000BB7B0D49D2000A4413441B785AB297F9D9
:1055A0000F30DB435BB2134059B2FA79BB7BC8B210
:1055B0000549D2000A44134402461A7000E000BFB5
:1055C0001437BD4680BC70474426002090B585B096
:1055D00000AF0446084611461A462346FB710346AF
:1055E000BB710B467B7113463B71BB793B737B7977
:1055F000203B7B710023BB734DE03B790C2B0BD11F
:105600007A79B97B284813465B0013449B00034416
:105610000B441B78FB7307E07A79BB7B23491201AB
:105620000A4413441B78FB7300237B732DE097F926
:105630000F30002B07DA97F82020B979FB7918464C
:10564000FFF76CFF0CE097F82030002B0CBF012314
:105650000023DBB21A46B979FB791846FFF75EFFE3
:10566000FB7B5B00FB73BB790133BB71BA793B7B7E
:10567000D21A3B799A4205D13B7BBB71FB7901334E
:10568000FB7105E07B7B01337B737B7B072BCED9E2
:10569000BB7B0133BB73BA7B3B799A42ADD300BF6E
:1056A00000BF1437BD4690BD7C620008F06600085C
:1056B00080B584B002AF03463A60FB710B46BB7104
:1056C0001FE0FB797A2B04D90023FB71BB791033DF
:1056D000BB71BB793A2B05D90023FB71FB79BB71F8
:1056E000FFF7F6FE3B681A78B979F8790123009341
:1056F0000C23FFF76BFFFB790833FB713B68013329
:105700003B603B681B78002BDBD100BF00BF083734
:10571000BD4680BD80B500AFFBF7CEFD414B1B6A97
:10572000404A23F0010313623E4B1B6A3D4A23F0BB
:1057300004031362FBF7CCFD002280213A48FBF7FB
:10574000A3FD6420FBF704FB012280213648FBF710
:105750009BFD0021AE20FFF771FE0021D520FFF751
:105760006DFE00215020FFF769FE0021A820FFF701
:1057700065FE00213F20FFF761FE0021D320FFF7E7
:105780005DFE00210020FFF759FE00214020FFF7B9
:1057900055FE00218D20FFF751FE00211420FFF758
:1057A0004DFE00212020FFF749FE00210220FFF7D7
:1057B00045FE0021A120FFF741FE0021C020FFF798
:1057C0003DFE0021DA20FFF739FE00211220FFF70D
:1057D00035FE00218120FFF731FE0021EF20FFF789
:1057E0002DFE0021D920FFF729FE0021F120FFF72F
:1057F00025FE0021DB20FFF721FE00213020FFF7EE
:105800001DFE0021A420FFF719FE0021A620FFF7AE
:1058100015FE0021AF20FFF711FEFFF759FE00BF74
:1058200080BD00BF0010024000180140014B186805
:10583000704700BF1000002070B500260C4D0D4CC5
:10584000641BA410A64209D100F05CFC00260A4D9E
:105850000A4C641BA410A64205D170BD55F8043B48
:1058600098470136EEE755F8043B98470136F2E7D2
:10587000146D0008146D0008146D0008186D000800
:105880000A44914200F1FF3300D1704710B511F87E
:10589000014B914203F8014FF9D110BD0346024478
:1058A000934200D1704703F8011BF9E70EB46FF083
:1058B000004100B59CB01DAB029006900791049189
:1058C0000848094953F8042B0591006802A901937F
:1058D00000F068F80022029B1A701CB05DF804EB1F
:1058E00003B07047100000200802FFFF2DE9F047C9
:1058F0008E6882469E420C4690461F4638D88A895A
:1059000012F4906F32D0256809690133A5EB0109C3
:1059100065694B4405EB450505EBD5756D109D425A
:1059200038BF1D46530531D5294600F045FB0646D4
:1059300050B90C234FF0FF30CAF80030A38943F070
:105940004003A381BDE8F0874A462169FFF798FF2D
:10595000A38923F4906343F08003A38126614E441E
:1059600026603E466561A5EB0905A560BE4200D9EB
:105970003E4632464146206800F0B8FAA3682268E5
:105980009B1B32440020A3602260DBE72A4600F024
:105990006DFB06460028E1D15046216900F0C0FAAF
:1059A000C7E700002DE9F04F98468B8907461B0694
:1059B0000D4614469DB00ED50B6963B9402100F029
:1059C000FBFA2860286120B90C233B604FF0FF30C0
:1059D000D1E040236B610023099320238DF8293007
:1059E00030234FF00109CDF80C80DFF8A4818DF849
:1059F0002A3023469A4613F8012B0AB1252AF9D1F9
:105A0000BAEB040B0BD05B46224629463846FFF71B
:105A10006DFF013000F0AA80099A5A4409929AF861
:105A20000030002B00F0A28000234FF0FF32CDE9C0
:105A300005230AF1010A049307938DF853301A9352
:105A40005446052214F8011B514800F041FA049A0B
:105A5000D8B9D00644BF20238DF85330110744BF76
:105A60002B238DF853309AF800302A2B15D054464A
:105A700000204FF00A0C079A214611F8013B303BF9
:105A8000092B4ED9B0B1079214E0A0EB080309FA34
:105A900003F31343A2460493D2E7039B191D1B682B
:105AA0000391002BBBBF5B4242F0020207930793B6
:105AB000B8BF049223782E2B0CD163782A2B35D1D2
:105AC000039B02341A1D1B680392002BB8BF4FF0D2
:105AD000FF330593DFF8C8A003225046217800F079
